:100000000C9434000C9410010C9451000C943201A7
:100010000C9451000C9452010C9451000C9451001A
:100020000C9451000C9451000C9451000C94D0008D
:100030000C9451000C9451000C9493000C945100BA
:100040000C9451000C9451000C941F010C9451001D
:100050000C9451000C9451000C9451000C945100DC
:100060000C9451000C94510011241FBECFEFD8E026
:10007000DEBFCDBF11E0A0E0B1E0E2E9F3E002C0F5
:1000800005900D92A430B107D9F711E0A4E0B1E0DA
:1000900001C01D92A031B107E1F70E9472000C94DB
:1000A000C7010C94000092E897BD88BD84B58268B2
:1000B00084BD85B5826085BD83E080936E00089520
:1000C000E9E6F0E080818A6080838DB383608DBB38
:1000D00085E08093680080E180936D0081E08093EB
:1000E0006B0008958FEF87B9569A14B85E985E9AA0
:1000F00081E490E00E9453000E94600088E391E058
:100100000E94790187E690E00E9494018AE090E0E5
:10011000909301018093000178944098FECFF89469
:1001200087BD789408951F920F920FB60F921124F5
:100130002F933F938F939F9380910201813039F5E4
:1001400020910401309105018091000190910101FD
:100150002817390768F05E9A8AE18A95F1F700C09E
:100160005E981092050110920401109202010FC0D6
:100170008091040190910501009749F0809104015C
:1001800090910501019690930501809304019F9140
:100190008F913F912F910F900FBE0F901F90189548
:1001A0001F920F920FB60F9211242F933F934F93EC
:1001B0005F936F937F938F939F93AF93BF93EF93CF
:1001C000FF93609108017091090180910A0190915B
:1001D0000B0122E330E040E050E00E94A801609370
:1001E0000C0170930D0180930E0190930F011092FA
:1001F00008011092090110920A0110920B01FF915F
:10020000EF91BF91AF919F918F917F916F915F918E
:100210004F913F912F910F900FBE0F901F90189507
:100220001F920F920FB60F9211248F9381E080934B
:1002300002018F910F900FBE0F901F9018951F9283
:100240000F920FB60F9211248F938091C00087FFF9
:10025000FCCF81E0809306018F910F900FBE0F902D
:100260001F9018951F920F920FB60F9211248F9323
:100270009F93AF93BF93189902C0409A01C04098D2
:100280008FEF93EDA0E381509040A040E1F700C0D4
:100290000000BF91AF919F918F910F900FBE0F9073
:1002A0001F9018951F920F920FB60F9211248F93E3
:1002B0009F93AF93BF934B9B13C080910801909184
:1002C0000901A0910A01B0910B010196A11DB11D78
:1002D0008093080190930901A0930A01B0930B0148
:1002E000BF91AF919F918F910F900FBE0F901F9074
:1002F000189522EA209380002DE1209381009093AD
:100300008700809386008FEF9FEF90938900809302
:10031000880090938B0080938A00219A089590938F
:1003200089008093880008959093C5008093C4004D
:1003300088E98093C10086E08093C200089590917F
:10034000C00095FFFCCF8093C600089580E008951B
:10035000629FD001739FF001829FE00DF11D649FA9
:10036000E00DF11D929FF00D839FF00D749FF00D35
:10037000659FF00D9927729FB00DE11DF91F639FD6
:10038000B00DE11DF91FBD01CF0111240895F894AE
:02039000FFCF9D
:040392001400010052
:00000001FF
