:100000000C9434000C94A3060C9451000C945100F1
:100010000C9468050C948F050C9451000C94830685
:100020000C9451000C9493060C9451000C943906D6
:100030000C9451000C9451000C9402060C94510045
:100040000C9451000C9451000C94B6050C94510082
:100050000C9451000C9451000C9451000C945100DC
:100060000C9451000C94510011241FBECFEFD8E026
:10007000DEBFCDBF12E0A0E0B1E0E0EAF4E102C0F3
:1000800005900D92A437B107D9F713E0A4E7B2E0C9
:1000900001C01D92A032B107E1F70E9410020C943A
:1000A0004E0A0C94B20681E060E070E040E050E05F
:1000B00021E00E94F4008EE80E942B0180E60E945D
:1000C0002B018FE39CE90197F1F700C00000089530
:1000D0008F929F92AF92BF92CF92DF92EF92FF9258
:1000E0000F931F93DF93CF93CDB7DEB72E970FB645
:1000F000F894DEBF0FBECDBFFA82E9821C830B836A
:100100003E832D8318861F829A8789877C876B8719
:100110005E874D8700E010E06E010894C11CD11C81
:100120003AE0A32EB12C26EF822E2FEF922E05C09F
:100130000330110511F404E010E0F801EE0FFF1F89
:10014000EC0DFD1D20813181C901B5010E940E0712
:10015000689D7001699DF00C789DF00C112484E07D
:10016000660F771F8A95E1F7E60EF71EE20EF31E83
:10017000F182E0825D98802F80580E942B018E2DA5
:100180000E942B015D9A0F5F1F4F0730110584F20B
:100190002E960FB6F894DEBF0FBECDBFCF91DF9184
:1001A0001F910F91FF90EF90DF90CF90BF90AF9095
:1001B0009F908F900895CF93DF93C0E0D0E005C06B
:1001C000C330D10511F4C4E0D0E08C2F0E942B0184
:1001D00080E00E942B012196C730D1058CF380E08E
:1001E00091E0DF91CF910895203F29F42398249A3C
:1001F0005598259804C0239A2498259A559A411514
:10020000510511F050EC01C050E46295660F607E1C
:10021000203F11F040E101C040E090E081FF02C0CA
:1002200038E001C030E081709070880F991F880F0E
:10023000991F862B922F9270892B922F9170892B68
:10024000852B842B832B8CBD81E022FF80E08DBD2C
:1002500008951CBC08958EBD0DB407FEFDCF8EB56C
:1002600008958EBD8EB50895CF93DF9329E1382F81
:100270003203E001112481E080937A0287E08093C9
:10028000B1001C161D0624F48AE08093B30006C05A
:100290008FE28093B300D095C195DF4F00D000D09E
:1002A00081E091E0EDB7FEB792838183D483C3836D
:1002B0000E94EF060F900F900F900F9080E090E05B
:1002C00007C0EFE9FFE03197F1F700C000000196A9
:1002D0008C179D07B0F381E080937A021092B100F1
:1002E0004298DF91CF9108959C01FB014081842FBA
:1002F0008E5F8083D901A80FB11D8C918053119618
:100300009C911197992379F09A3369F04D5F40835E
:10031000880F982F990F990F980F240F311DF9010D
:1003200080818053890F089580917B02882321F575
:10033000189922C08FE798E3A1E081509040A04037
:10034000E1F700C0000018992AC080917B02882341
:1003500031F500D08AE191E0ADB7BEB712969C931B
:100360008E9311970E94EF0681E080937B0210929A
:100370007C020F900F90089580917B02882379F082
:10038000189B0DC000D08EE191E0EDB7FEB79283CF
:1003900081830E94EF0610927B020F900F900895C8
:1003A000389A92E897BD88BD84B5826084BD85B5D2
:1003B000826085BD83E080936E0082E08093690057
:1003C000E89A0895E8E6F0E0808184608083EDE6B5
:1003D000F0E08081806180830895289AE0E8F0E071
:1003E000808180648083E1E8F0E080818C6080839C
:1003F000EFE6F0E080818260808383E294EF909367
:1004000089008093880008953A9A1092B200109261
:10041000B00081E08093B30083E080937000089582
:100420002F923F924F925F926F927F928F929F9204
:10043000AF92BF92CF92DF92EF92FF920F931F93F2
:10044000DF93CF93CDB7DEB760970FB6F894DEBFDA
:100450000FBECDBF1982389A0E94040281E490E059
:100460000E94D0010E94ED0189E190E00E94BC064B
:10047000789400D089E291E0ADB7BEB712969C9314
:100480008E9311970E94EF060F900F9080E090E0FE
:100490000E946109882311F08093790281E090E045
:1004A0000E946109C82E82E090E00E946109E82E56
:1004B00083E090E00E946109082F84E090E00E94B0
:1004C0006109EDB7FEB73A970FB6F894FEBF0FBEBD
:1004D000EDBF31962FE231E0ADB7BEB712963C9337
:1004E0002E931197C2821382E482158206831782AB
:1004F000808711860E94EF06EDB7FEB73A960FB6D9
:10050000F894FEBF0FBEEDBF85E090E00E94610948
:10051000C82E86E090E00E946109E82E87E090E016
:100520000E946109082F88E090E00E9461092DB7C0
:100530003EB72A5030400FB6F8943EBF0FBE2DBFD5
:10054000EDB7FEB7319623E531E0ADB7BEB71296F1
:100550003C932E931197C2821382E4821582068304
:100560001782808711860E94EF06EDB7FEB73A9694
:100570000FB6F894FEBF0FBEEDBF8DE090E00E9475
:100580006109C82E8EE090E00E946109E82E8FE09C
:1005900090E00E946109082F80E190E00E946109CB
:1005A0002DB73EB72A5030400FB6F8943EBF0FBE6D
:1005B0002DBFEDB7FEB7319628E731E0ADB7BEB736
:1005C00012963C932E931197C2821382E482158275
:1005D00006831782808711860E94EF06EDB7FEB76B
:1005E0003A960FB6F894FEBF0FBEEDBF89E090E0DB
:1005F0000E946109C82E8AE090E00E946109E82EFD
:100600008BE090E00E946109082F8CE090E00E944E
:1006100061092DB73EB72A5030400FB6F8943EBF5F
:100620000FBE2DBFEDB7FEB731962EE931E0ADB765
:10063000BEB712963C932E931197C2821382E48226
:10064000158206831782808711860E94EF068FEF3E
:1006500093EDA0E381509040A040E1F700C000007E
:10066000ADB7BEB718960FB6F894BEBF0FBEADBFFC
:1006700083EC91E012969C938E9311970E94EF0663
:100680000F900F9084E60E943401882499244AE553
:10069000A42E42E0B42E31E6632E32E0732E29E61A
:1006A000422E22E0522E94E5292E92E0392E8DE141
:1006B000C82E82E0D82E0E94940180917002882377
:1006C00009F0E4C18E010E5F1F4FC80165E073E0C1
:1006D0000E94570700D0EDB7FEB7128301830E9436
:1006E000EF0619820F900F90C0C1800F911FDC019F
:1006F0008C918C3409F44EC18D3448F48334B9F0B4
:10070000843409F493C0823409F0ACC1B0C082359E
:1007100009F462C1833520F48F3409F0A3C1EEC01F
:10072000833509F479C1873509F09CC113C1C8012B
:100730007E010894E11CF11CB7010E947401982EFF
:10074000C801B7010E947401882EC801B7010E9438
:100750007401E82EEDB7FEB738970FB6F894FEBFD8
:100760000FBEEDBF319620ED31E0ADB7BEB71296AA
:100770003C932E93119792821382848215828683F2
:1007800017820E94EF0689818F5F8983FE01E80F3F
:10079000F11D8DB79EB708960FB6F8949EBF0FBE99
:1007A0008DBF8381882309F05DC1ADB7BEB71897AF
:1007B0000FB6F894BEBF0FBEADBFEDB7FEB7319612
:1007C00026EE31E012963C932E931197809173029E
:1007D00082831382809183028483158280918402B4
:1007E000868317820E94EF069092730280928302A2
:1007F000E0928402EDB7FEB7319624E032E0ADB767
:10080000BEB712963C932E931197928213828482E4
:100810001582E68217820E94EF068DB79EB7089672
:100820000FB6F8949EBF0FBE8DBF1CC1C801BE019C
:100830006F5F7F4F0E94740190E0909372028093EB
:100840007102809171029091720200D000D0ADB718
:10085000BEB71296DC92CE92119714969C938E930B
:1008600013970E94EF0689818F5F89836EC0809104
:10087000790200D000D02BE232E0EDB7FEB7328330
:100880002183992787FD9095948383830E94EF06A7
:100890000F900F900F900F90C801BE016F5F7F4FB8
:1008A0000E9474018093790280E090E00E946109C7
:1008B00090917902E82EE91A00D000D0ECE3F2E042
:1008C000ADB7BEB71296FC93EE9311972E2D33273A
:1008D00027FD309514963C932E9313970E94EF06B4
:1008E0000F900F900F900F90EE2019F08E2D0E9418
:1008F00034016091790280E090E0AFC08B81863452
:1009000041F48FEF9FEF90937202809371022E5FFC
:1009100009C08E3441F48AE590E09093720280938E
:1009200071022F5F2983809171029091720200D031
:1009300000D0ADB7BEB71296DC92CE921197149646
:100940009C938E9313970E94EF060F900F900F9039
:100950000F9088C000D0EDB7FEB7328221820E948E
:10096000EF060F900F9081E090E0692D0E946909D9
:1009700082E090E0682D0E94690960917102709197
:10098000720283E090E00E9469096091790284E03C
:1009900090E063C000D0ADB7BEB71296BC92AE92E5
:1009A00011970E94EF060F900F9085E090E0692D5F
:1009B0000E94690986E090E0682D0E9469096091B3
:1009C00071027091720287E090E00E946909609163
:1009D000790288E090E041C000D0EDB7FEB77282A6
:1009E00061820E94EF060F900F908DE090E0692DDC
:1009F0000E9469098EE090E0682D0E94690960916B
:100A00007102709172028FE090E00E94690960911A
:100A1000790280E190E021C000D0ADB7BEB7129658
:100A20005C924E9211970E94EF060F900F9089E012
:100A300090E0692D0E9469098AE090E0682D0E948B
:100A4000690960917102709172028BE090E00E94DE
:100A50006909609179028CE090E00E9469098981BE
:100A60008F5F898389818F5F89832981F801019054
:100A70000020E9F73197E01BF10B822F90E08E17F1
:100A80009F0708F432CE81E0809370028091840247
:100A90008C33A0F010928402809183028F5F809348
:100AA00083028C3358F010928302809173028F5F1F
:100AB00080937302873110F0109273028FEF93EDE1
:100AC000A0E381509040A040E1F700C00000F3CDCA
:100AD0001F920F920FB60F9211248F939F93AF9393
:100AE000BF93339B13C080917D0290917E02A091B1
:100AF0007F02B09180020196A11DB11D80937D02FD
:100B000090937E02A0937F02B0938002BF91AF9139
:100B10009F918F910F900FBE0F901F9018951F926D
:100B20000F920FB60F9211248F939F93AF93BF93A1
:100B30004C9B13C080917D0290917E02A0917F0218
:100B4000B09180020196A11DB11D80937D0290930A
:100B50007E02A0937F02B0938002BF91AF919F91DC
:100B60008F910F900FBE0F901F9018951F920F92AC
:100B70000FB60F9211242F933F934F935F936F9370
:100B80007F938F939F93AF93BF93EF93FF93809146
:100B9000C00087FFFCCF8091C600E0E00EC08A3025
:100BA00081F1AE2FB0E0AB5FBC4F8C93EF5F8091D3
:100BB000C00087FFFCCF8091C6008B3381F7F0E047
:100BC000EB5FFC4F10821092700200D085E093E042
:100BD000EDB7FEB7928381830E94EF060F900F90CE
:100BE000FF91EF91BF91AF919F918F917F916F9105
:100BF0005F914F913F912F910F900FBE0F901F90DB
:100C00001895FFCF1F920F920FB60F9211242F93BA
:100C10003F938F939F9380917802813009F52091C3
:100C200076023091770280917102909172022817BA
:100C3000390768F0409A85E38A95F1F700004098FB
:100C400010927702109276021092780209C0809179
:100C500076029091770201969093770280937602C4
:100C60009F918F913F912F910F900FBE0F901F90EA
:100C700018951F920F920FB60F9211242F933F9346
:100C80004F935F936F937F938F939F93AF93BF9394
:100C9000EF93FF9360917D0270917E0280917F02BD
:100CA0009091800228EE33E040E050E00E9421075E
:100CB000309382022093810210927D0210927E0274
:100CC00010927F0210928002809184028F5F809345
:100CD000840280917B02882329F480917C028F5FBB
:100CE00080937C02FF91EF91BF91AF919F918F9183
:100CF0007F916F915F914F913F912F910F900FBE18
:100D00000F901F9018951F920F920FB60F921124FB
:100D10008F9380917A02811142988F910F900FBE2C
:100D20000F901F9018951F920F920FB60F921124DB
:100D30008F9380917A028111429A8F910F900FBE0A
:100D40000F901F9018951F920F920FB60F921124BB
:100D50008F9381E0809378028F910F900FBE0F9058
:100D60001F9018951F920F920FB60F9211240F909B
:100D70000FBE0F901F9018952AB123602AB9909347
:100D8000C5008093C40088E98093C10086E0809309
:100D9000C20008959091C00095FFFCCF8093C600DB
:100DA000089580E00895EF92FF920F931F93CF93E1
:100DB000DF937B01082F192FC0E0D0E006C0F801B7
:100DC00081918F010E94CA062196CE15DF05BCF3E2
:100DD000DF91CF911F910F91FF90EF900895EF92C7
:100DE000FF920F931F93DF93CF93CDB7DEB7FE0132
:100DF00039966191719105E812E0C801AF010E9436
:100E00005E077C01C801B7010E94D306C701CF91DC
:100E1000DF911F910F91FF90EF90089597FB092E9E
:100E200007260AD077FD04D02ED006D000201AF471
:100E3000709561957F4F0895F6F7909581959F4F36
:100E40000895A1E21A2EAA1BBB1BFD010DC0AA1F0B
:100E5000BB1FEE1FFF1FA217B307E407F50720F023
:100E6000A21BB30BE40BF50B661F771F881F991F9E
:100E70001A9469F760957095809590959B01AC01E7
:100E8000BD01CF010895AA1BBB1B51E107C0AA1FDA
:100E9000BB1FA617B70710F0A61BB70B881F991F1B
:100EA0005A95A9F780959095BC01CD010895FB0155
:100EB000DC0101900D920020E1F70895AEE0B0E072
:100EC000E4E6F7E00C94250A8C0186E08C831A8313
:100ED00009838FEF9FE79E838D83CE0101960E9449
:100EE0007A07EF81F885E00FF11F10822E96E4E07B
:100EF0000C94410AACE0B0E0E0E8F7E00C94170A8B
:100F00006C011B018A01FC0117821682838181FF1B
:100F1000D1C12E010894411C511CF6019381F101AD
:100F200093FD859193FF81911F01882309F4BEC130
:100F3000853239F493FD859193FF81911F018532AC
:100F400029F490E0B6010E948D09E7CFEE24FF243A
:100F500020E02032B0F48B3269F08C3228F48032F9
:100F600051F0833271F40BC08D3239F0803349F483
:100F700021602CC02260246029C0286027C0206125
:100F800025C027FD2CC0382F30533A3098F426FF67
:100F900008C08E2D880FE82EEE0CEE0CE80EE30E46
:100FA00015C08F2D880FF82EFF0CFF0CF80EF30ED6
:100FB00020620CC08E3221F426FD78C1206406C068
:100FC0008C3611F4206802C0883649F4F10193FD93
:100FD000859193FF81911F01882309F0BACF982F43
:100FE0009554933018F09052933028F40C5F1F4FB3
:100FF000FFE3F9830DC0833631F0833771F0833519
:1010000009F060C022C0F801808189830E5F1F4F04
:10101000420171E0A72EB12C16C062E0662E712C41
:10102000600E711EF8018080918026FF03C06E2D36
:1010300070E002C06FEF7FEFC4012C870E9482092D
:101040005C0183012C852F7717C052E0652E712C2F
:10105000600E711EF8018080918026FF03C06E2D06
:1010600070E002C06FEF7FEFC4012C870E94770908
:101070005C012C852068830123FD20C008C080E22C
:1010800090E0B6012C870E948D09FA942C858F2D53
:1010900090E0A816B90698F311C0F40127FD8591D8
:1010A00027FF81914F0190E0B6012C870E948D09A6
:1010B0002C85F110FA940894A108B108A114B10488
:1010C00061F7F1C0843611F0893649F527FF08C071
:1010D000F80160817181828193810C5F1F4F09C08B
:1010E000F80160817181882777FD8095982F0E5FC8
:1010F0001F4F4FE6B42EB22297FF09C090958095FE
:10110000709561957F4F8F4F9F4FF0E8BF2AA201E6
:101110002AE030E00E94B909782E741845C085375E
:1011200031F43FEEB32EB2222AE030E025C099EF31
:10113000B92EB2228F36C1F0803720F4883509F0FD
:10114000B5C00DC0803721F0883709F0AFC002C0AC
:1011500020E1B22AB4FE0BC084E0B82A08C0B4FE75
:1011600009C0E6E0BE2A06C028E030E005C020E164
:1011700030E002C020E132E0B7FE08C0F801608133
:101180007181828193810C5F1F4F07C0F8016081DC
:10119000718180E090E00E5F1F4FA2010E94B909AB
:1011A000782E7418FFE7BF22B6FE0BC02EEFB222D6
:1011B0007E1438F4B4FE07C0B2FC05C08FEEB8222E
:1011C00002C0A72C01C0AE2C8B2D90E0B4FE0DC048
:1011D000FE01E70DF11D2081203319F4E9EEBE2256
:1011E00009C0A394B2FE06C004C086789070009730
:1011F00009F0A3948B2C9924B3FC14C0B0FE0FC04B
:10120000AF1428F4E72CEF0CEA18AF2C08C0E72C39
:1012100006C080E290E0B6010E948D09A394AF144D
:10122000C0F304C0AF1410F4FA1801C0FF2484FE08
:101230000FC080E390E0B6010E948D0982FE1FC0BE
:1012400081FE03C088E590E010C088E790E00DC003
:10125000C40186789070009791F081FC02C080E212
:1012600001C08BE2B7FC8DE290E0B6010E948D09CF
:1012700006C080E390E0B6010E948D09EA947E14D6
:10128000C0F37A94F201E70DF11D808190E0B60180
:101290000E948D097720A9F706C080E290E0B60190
:1012A0000E948D09FA94FF20C1F737CEF6012681FE
:1012B000378102C02FEF3FEFC9012C96E2E10C9479
:1012C000330AF999FECF92BD81BDF89A992780B56E
:1012D0000895262FF999FECF1FBA92BD81BD20BD7A
:1012E0000FB6F894FA9AF99A0FBE01960895FC0188
:1012F0000590615070400110D8F7809590958E0F41
:101300009F1F0895FC016150704001900110D8F7B3
:10131000809590958E0F9F1F08950F931F93CF93E5
:10132000DF938C01EB018B8181FF1BC082FF0DC01D
:101330002E813F818C819D812817390764F4E881D3
:10134000F9810193F983E88306C0E885F985802F48
:101350000995009731F48E819F8101969F838E833A
:1013600002C00FEF1FEFC801DF91CF911F910F91C6
:101370000895FA01AA27283051F1203181F1E8942B
:101380006F936E7F6E5F7F4F8F4F9F4FAF4FB1E078
:101390003ED0B4E03CD0670F781F891F9A1FA11D73
:1013A000680F791F8A1F911DA11D6A0F711D811D74
:1013B000911DA11D20D009F468943F912AE0269F39
:1013C00011243019305D3193DEF6CF010895462F98
:1013D0004770405D4193B3E00FD0C9F7F6CF462F79
:1013E0004F70405D4A3318F0495D31FD40524193E2
:1013F00002D0A9F7EACFB4E0A6959795879577959F
:101400006795BA95C9F700976105710508959B0125
:10141000AC010A2E06945795479537952795BA95AE
:10142000C9F7620F731F841F951FA01D08952F9287
:101430003F924F925F926F927F928F929F92AF9264
:10144000BF92CF92DF92EF92FF920F931F93CF93B1
:10145000DF93CDB7DEB7CA1BDB0B0FB6F894DEBF48
:101460000FBECDBF09942A88398848885F846E846E
:101470007D848C849B84AA84B984C884DF80EE80B8
:10148000FD800C811B81AA81B981CE0FD11D0FB6C1
:10149000F894DEBF0FBECDBFED010895F894FFCFE5
:1014A00000426C696E647320636C6F73696E6720B1
:1014B000666F72202564206D730020212100204E6C
:1014C0006F204D6F74696F6E0053746172740057B2
:1014D000616B652073657420746F2025643A256400
:1014E00020776974682064696D2076616C75652069
:1014F0002564004C656176652073657420746F20E7
:1015000025643A256420776974682064696D2076C3
:10151000616C75652025640052657475726E207368
:10152000657420746F2025643A2564207769746897
:101530002064696D2076616C756520256400536CAC
:101540006565702073657420746F2025643A256486
:1015500020776974682064696D2076616C756520F8
:10156000256400436C6F73652057696E646F770064
:10157000436C6F636B2073657420746F2025643A2D
:1015800025643A25640054696D65206F6E20636898
:1015900069703A20253032643A253032643A253079
:1015A00032640A004E65772054696D653A20253013
:1015B00032643A253032643A253032640044696D31
:1015C0002073657420746F20256400426C696E641A
:1015D000732073657420746F20256400426C696EFB
:1015E000647320646966666572656E6365206973FD
:1015F0002025640057616B6521004C65617665218B
:101600000052657475726E2100536C65657021001F
:0416100001140008B9
:00000001FF
