:100000000C9434000C9451000C9451000C94510049
:100010000C9451000C9451000C9451000C94E40089
:100020000C9451000C94F4000C9451000C94510069
:100030000C9451000C9451000C9451000C945100FC
:100040000C9451000C9451000C9451000C945100EC
:100050000C9451000C9451000C9451000C945100DC
:100060000C9451000C94510011241FBECFEFD8E026
:10007000DEBFCDBF11E0A0E0B1E0E8E7F8E002C0EC
:1000800005900D92A033B107D9F711E0A0E3B1E0DC
:1000900001C01D92AD3BB107E1F70E945F000C94D7
:1000A0003A040C9404013A9A1092B2001092B000F3
:1000B00081E08093B30083E08093700008959F9265
:1000C000AF92BF92CF92DF92EF92FF920F931F9366
:1000D000CF93DF938FEF87B90E94530089E190E0BF
:1000E0000E940E01789400D080E091E0ADB7BEB7D9
:1000F00012969C938E9311970E9441010F900F903E
:1001000002E310E037E0E32E31E0F32EAA24A394BB
:1001100027E0B22E9FE2992E84E1C82E81E0D82EEE
:100120008FEF93EDA0E381509040A040E1F700C035
:10013000000000D0ADB7BEB71296FC92EE921197B8
:100140000E944101B9E10B02E0011124A0923C019F
:10015000B092B1000F900F901C161D061CF4B092C7
:10016000B30005C09092B300D095C195DF4F00D089
:1001700000D0EDB7FEB7D282C182D483C3830E9480
:1001800041010F900F900F900F9080E090E007C01A
:10019000AFE9BFE01197F1F700C0000001968C179E
:1001A0009D07B4F3A0923C011092B10042988FEFEA
:1001B00093EDA0E381509040A040E1F700C0000023
:1001C000109501951F4FACCF1F920F920FB60F9253
:1001D00011248F9380913C01811142988F910F904F
:1001E0000FBE0F901F9018951F920F920FB60F928F
:1001F00011248F9380913C018111429A8F910F902D
:100200000FBE0F901F9018951F920F920FB60F926E
:1002100011240F900FBE0F901F9018952AB12360E4
:100220002AB99093C5008093C40088E98093C100E7
:1002300086E08093C20008959091C00095FFFCCFA6
:100240008093C600089580E00895EF92FF920F9387
:100250001F93CF93DF937B01082F192FC0E0D0E0CD
:1002600006C0F80181918F010E941C012196CE15D4
:10027000DF05BCF3DF91CF911F910F91FF90EF90BD
:100280000895EF92FF920F931F93DF93CF93CDB713
:10029000DEB7FE013996619171910DE311E0C8015D
:1002A000AF010E9460017C01C801B7010E942501D5
:1002B000C701CF91DF911F910F91FF90EF900895AB
:1002C000AEE0B0E0E6E6F1E00C9411048C0186E0CB
:1002D0008C831A8309838FEF9FE79E838D83CE01E2
:1002E00001960E947C01EF81F885E00FF11F1082DA
:1002F0002E96E4E00C942D04ACE0B0E0E2E8F1E0EE
:100300000C9403046C011B018A01FC011782168204
:10031000838181FFD1C12E010894411C511CF6013B
:100320009381F10193FD859193FF81911F018823B2
:1003300009F4BEC1853239F493FD859193FF819113
:100340001F01853229F490E0B6010E947903E7CFBE
:10035000EE24FF2420E02032B0F48B3269F08C329E
:1003600028F4803251F0833271F40BC08D3239F0B1
:10037000803349F421602CC02260246029C02860A9
:1003800027C0206125C027FD2CC0382F30533A30BC
:1003900098F426FF08C08E2D880FE82EEE0CEE0C88
:1003A000E80EE30E15C08F2D880FF82EFF0CFF0C02
:1003B000F80EF30E20620CC08E3221F426FD78C1B7
:1003C000206406C08C3611F4206802C0883649F4D7
:1003D000F10193FD859193FF81911F01882309F01D
:1003E000BACF982F9554933018F09052933028F448
:1003F0000C5F1F4FFFE3F9830DC0833631F0833765
:1004000071F0833509F060C022C0F80180818983D2
:100410000E5F1F4F420171E0A72EB12C16C062E0A3
:10042000662E712C600E711EF8018080918026FF6F
:1004300003C06E2D70E002C06FEF7FEFC4012C8708
:100440000E946E035C0183012C852F7717C052E058
:10045000652E712C600E711EF8018080918026FF40
:1004600003C06E2D70E002C06FEF7FEFC4012C87D8
:100470000E9463035C012C852068830123FD20C05A
:1004800008C080E290E0B6012C870E947903FA94BC
:100490002C858F2D90E0A816B90698F311C0F401B1
:1004A00027FD859127FF81914F0190E0B6012C87B0
:1004B0000E9479032C85F110FA940894A108B108E0
:1004C000A114B10461F7F1C0843611F0893649F501
:1004D00027FF08C0F80160817181828193810C5FE0
:1004E0001F4F09C0F80160817181882777FD8095D1
:1004F000982F0E5F1F4F4FE6B42EB22297FF09C010
:1005000090958095709561957F4F8F4F9F4FF0E844
:10051000BF2AA2012AE030E00E94A503782E7418B9
:1005200045C0853731F43FEEB32EB2222AE030E0E9
:1005300025C099EFB92EB2228F36C1F0803720F452
:10054000883509F0B5C00DC0803721F0883709F033
:10055000AFC002C020E1B22AB4FE0BC084E0B82ACA
:1005600008C0B4FE09C0E6E0BE2A06C028E030E0BC
:1005700005C020E130E002C020E132E0B7FE08C053
:10058000F80160817181828193810C5F1F4F07C0E8
:10059000F8016081718180E090E00E5F1F4FA20141
:1005A0000E94A503782E7418FFE7BF22B6FE0BC089
:1005B0002EEFB2227E1438F4B4FE07C0B2FC05C0A0
:1005C0008FEEB82202C0A72C01C0AE2C8B2D90E07C
:1005D000B4FE0DC0FE01E70DF11D2081203319F49A
:1005E000E9EEBE2209C0A394B2FE06C004C086781C
:1005F0009070009709F0A3948B2C9924B3FC14C03D
:10060000B0FE0FC0AF1428F4E72CEF0CEA18AF2CA3
:1006100008C0E72C06C080E290E0B6010E94790392
:10062000A394AF14C0F304C0AF1410F4FA1801C0BF
:10063000FF2484FE0FC080E390E0B6010E9479039E
:1006400082FE1FC081FE03C088E590E010C088E7ED
:1006500090E00DC0C40186789070009791F081FC05
:1006600002C080E201C08BE2B7FC8DE290E0B601EF
:100670000E94790306C080E390E0B6010E947903EE
:10068000EA947E14C0F37A94F201E70DF11D8081A3
:1006900090E0B6010E9479037720A9F706C080E2B6
:1006A00090E0B6010E947903FA94FF20C1F737CE9B
:1006B000F6012681378102C02FEF3FEFC9012C964A
:1006C000E2E10C941F04FC010590615070400110A0
:1006D000D8F7809590958E0F9F1F0895FC0161506B
:1006E000704001900110D8F7809590958E0F9F1F54
:1006F00008950F931F93CF93DF938C01EB018B81B0
:1007000081FF1BC082FF0DC02E813F818C819D81A6
:100710002817390764F4E881F9810193F983E883A4
:1007200006C0E885F985802F0995009731F48E8100
:100730009F8101969F838E8302C00FEF1FEFC80138
:10074000DF91CF911F910F910895FA01AA272830C8
:1007500051F1203181F1E8946F936E7F6E5F7F4F8E
:100760008F4F9F4FAF4FB1E03ED0B4E03CD0670F0A
:10077000781F891F9A1FA11D680F791F8A1F911D5D
:10078000A11D6A0F711D811D911DA11D20D009F4AD
:1007900068943F912AE0269F11243019305D3193EF
:1007A000DEF6CF010895462F4770405D4193B3E0D8
:1007B0000FD0C9F7F6CF462F4F70405D4A3318F07F
:1007C000495D31FD4052419302D0A9F7EACFB4E030
:1007D000A6959795879577956795BA95C9F70097E8
:1007E0006105710508959B01AC010A2E0694579589
:1007F000479537952795BA95C9F7620F731F841FE0
:10080000951FA01D08952F923F924F925F926F9275
:100810007F928F929F92AF92BF92CF92DF92EF9290
:10082000FF920F931F93CF93DF93CDB7DEB7CA1B11
:10083000DB0B0FB6F894DEBF0FBECDBF09942A883C
:10084000398848885F846E847D848C849B84AA84E4
:10085000B984C884DF80EE80FD800C811B81AA8171
:10086000B981CE0FD11D0FB6F894DEBF0FBECDBF3C
:08087000ED010895F894FFCF9B
:100878000A537461727400436C6F73652057696E14
:10088800646F7700426C696E647320636C6F736980
:100898006E6720666F72202564206D730014000156
:00000001FF
