:100000000C942B500C9438900C944A500C944A50F9
:100010000C944A500C944A500C944A500C944A50F8
:100020000C944A500C944A500C944A500C944A50E8
:100030000C944A500C944A500C944A500C944A50D8
:100040000C944A500C944A500C944A500C944A50C8
:100050000C944A500C944A500C944A500C9448907A
:100060000C944A500C944A500C944A500C944A50A8
:100070000C944A500C944A500C944A500C944A5098
:100080000C944A500C944A500C944A500C944A5088
:100090000C944A500C944A500502030807080802C1
:1000A00006060705020504060707070707070707EF
:1000B00007070202050505070807070707070707DF
:1000C00006030707060907070707070707070709C2
:1000D00007070703060310100306060606060506B3
:1000E00006040405040706070607050504060707B6
:1000F0000506060B1008020D0F0710100B10030564
:100100000D0D0D0D0D0D0D0D000000000000000087
:1001100000000000F8171C0000001C004002400214
:10012000F81F40024002F81F40024002C0082011A0
:100130001011F83F10111009200630184804480229
:100140003001800C40122012180C600C9012081123
:100150009012600C000C0012001020001C00C00760
:10016000301808200440028002800280028004408F
:1001700008203018C007200240018000F0078000EE
:100180004001200200010001C007000100010058E9
:1001900000380001000100010001000100180018F2
:1001A000000000000030000C0003C00030000C0014
:1001B000C003300C081008100810300CC0030000F9
:1001C00020101010F81F001000100000201810144C
:1001D00008120811081190106010100808108810FB
:1001E0008810881050092006000380024002200277
:1001F0001002F81F0002F808881088108810881074
:1002000008090006E00710098810881088100809FE
:100210000006000008000800081C0803C800380099
:1002200020065009881088108810500920066000A8
:1002300090100811081108119008E007C006C006C8
:10024000C016C00E00018002400420081010800279
:100250008002800280028002101020084004800288
:10026000000120001000080008160801900060003E
:10027000E0071008C81328142814C8171014E00346
:10028000001C80036002180260028003001CF81F3B
:10029000881088108810881050092006E007100880
:1002A00008100810081008101008F81F081008108F
:1002B000081008101008E007F81F88108810881030
:1002C000881088100810F81F8800880088008800AF
:1002D00008000800E00710080810081108110811AC
:1002E000100EF81F8000800080008000F81F0810AA
:1002F000F81F08100004000800100010001000088B
:10030000F807F81F800040012002100408080010C0
:10031000F81F00100010001000100010F81F180047
:10032000600080010006800160001800F81FF81FBF
:1003300018006000800100060018F81FE007100890
:100340000810081008101008E007F81F080208023B
:10035000080208021001E000E00710080810081069
:1003600008301048E047F81F080108010803080595
:100370009008601060049008881008110811100996
:100380002006080008000800F81F08000800080000
:10039000F80700080010001000100008F8077800A7
:1003A000800100060018000680017800F8000007B0
:1003B00000180006C001000600180007F800181811
:1003C0002004400280014002200418183800400038
:1003D0008000001F80004000380008180814081230
:1003E0008811481028101810FC3F04200420003009
:1003F000000C0003C00030000C0004200420FC3F6F
:10040000F03F0800080008000800F03F080008005E
:1004100008000800F03F0800080008000800F03F4E
:10042000C00030000830100C2003C000300008303D
:10043000100C2003C00030000830100C2003C00056
:10044000000038004000000C401240124012800CA6
:10045000001FF01F800840104010800800070007B0
:1004600080084010401040108008000780084010AD
:1004700040108008F01F0007800A4012401240120E
:1004800080090001F01F08010800100000078088A3
:10049000409040908048803FF81F8000400040001E
:1004A0008000001F0000D01F0000000000400080FE
:1004B0004080D07FF81F000200058008401008002F
:1004C000F81F00000000C01F80004000801F400097
:1004D0004000801FC01F8000400040008000001FBF
:1004E0000007800840104010401080080007C0FF3F
:1004F0008008401040108008000700078008401066
:1005000040108008C0FF0080C01F800040004000F5
:1005100080008009401240124012800C4000F00F11
:1005200040100010C0070008001000100008C01F95
:10053000C00300040008001000080004C003C00F3E
:1005400000100008000600080010C00FC0180005C9
:1005500000020005C018C007008800900090004805
:10056000C03F40184014401240124011C010E00338
:100570001004C809280A280A280A08081004E003F9
:1005800000000000FE001200320052008C0000004B
:10059000E00F200120012001C000007C00120011AA
:1005A0000012007C00800040C03F000800100010D6
:1005B0000008C0070000000000000000801F80004D
:1005C000001F8000001F0000801F8000001F8000AF
:1005D000001F2018201420122011A010601000000D
:1005E000801880148012801100000012001A00167A
:1005F000FEFF02800380038003800280FEFFFFFF76
:1006000003C005A0099011882184418281818181E4
:10061000418221841188099005A003C0FFFF0000DA
:1006200000000000FC7F04400440044004400440FB
:10063000044004400440044004400440044004409A
:1006400004400440044004418443C447E44FF45F41
:100650000440FC7F04400440044004400440044043
:100660000440044004400440FC7F00018003C007B4
:10067000E00FF01F4002E0024002C0034000800390
:10068000400080030007C018202010401040088060
:10069000F8830880104010402020C0180007000791
:1006A000C0182020504090400881088208801040E7
:1006B00010402020C01800070007C01A2022104256
:1006C0001042088208820880104010402020C01884
:1006D00000070007C0182020105010480884088226
:1006E0000880104010402020C01800070007C018E4
:1006F000202010401040088008FE08801040104064
:100700002020C01800070007C0182020104010400B
:10071000088008820884104810502020C018000764
:100720000007C0182020104010400880088208826E
:10073000104210422022C01A00070007C0182020D3
:1007400010401040088008820881904050402020CE
:10075000C01800070801120116011C012C013A0102
:100760004A015A015E016A01760184018E019201FB
:100770009C01A401B001BE01CC01DA01E801F6013F
:100780000402120220022E023C02400244024E02E7
:1007900058026202700280028E029C02AA02B80213
:1007A000C602D402E202EE02F402020310031C03AA
:1007B0002E033C034A035803660374038203900329
:1007C0009E03AC03BE03CC03DA03E803EE03FA0393
:1007D000000420044004460452045E046A047604C3
:1007E00082048C049804A404AC04B404BE04C604BB
:1007F000D404E004EE04FA04080512051C052405DF
:1008000030053E054C05560562056E058405A405B8
:10081000B405B805D205F005FE051E063E065406D1
:1008200074067A0684069E06B806D206EC0606070B
:1008300020073A0703030305050505030303050520
:100840000205010505050505050505050505010266
:10085000040404050505050505050505050305054D
:100860000405050505050505050505070505050339
:100870000503050503040504050404040502030437
:100880000306050405050504030505050504040321
:100890000303020007070707070707070000000018
:1008A0005F00070007147F147F1426497F493263D5
:1008B0001308646336490000000403001C22414110
:1008C000221C082A1C2A0808083E0808806008081C
:1008D0000808084060100804033E5149453E0042A4
:1008E0007F40006251494946224149493618141255
:1008F0007F1027494949313C4A494930017109056E
:10090000033649494936064949291E1480680814A6
:100910002241141414144122140802015109063E04
:10092000415D00007C1211127C7F494949363E41ED
:100930004141227F4141221C7F494949417F0909A8
:1009400009013E414929727F0808087F417F412003
:1009500040413F017F081422417F4040407F020C0C
:10096000027F7F0608307F3E4141413E7F090909F1
:10097000063E4151215E7F091929462649494932DF
:1009800001017F01013F4040403F0F3040300F0FD9
:1009900030403840300F63140814630708700807AC
:1009A00061514945437F4141030408106041417F43
:1009B000080402040840404040400304002054540E
:1009C000787F2844443838444428384444287F38C1
:1009D000545448087E090298A4A4587F0804047857
:1009E0003D4080847D7F102844017F007C0804788E
:1009F00004787C0804047838444438FC182424180B
:100A000018242418FC7C0804040848545424043E88
:100A1000443C4040207C1C2040201C3C4030403C5A
:100A200044281028441CA0A07C6454544C0836412F
:100A3000007F004136080000001C22414F41221C6B
:100A40001C22414945221C1C224149492A1C1C22C6
:100A5000414951221C1C22417941221C1C2251492E
:100A600041221C1C2A494941221C1C224549412281
:100A70001C9C089F08A208A508AA08AF08B408B9DA
:100A800008BC08BF08C208C708CC08CE08D308D4E1
:100A900008D908DE08E308E808ED08F208F708FCC2
:100AA00008010906090B090C090E09120916091A91
:100AB000091F09240929092E09330938093D09426A
:100AC0000947094C094F09540959095D0962096729
:100AD000096C09710976097B09800985098A098FE2
:100AE0000996099B09A009A509A809AD09B009B58E
:100AF00009BA09BD09C109C609CA09CF09D309D76D
:100B000009DB09E009E209E509E909EC09F209F75D
:100B100009FB09000A050A0A0A0E0A110A160A1B2D
:100B20000A200A250A290A2D0A300A330A360A3809
:100B30000A390A400A470A4E0A550A5C0A630A6AD9
:100B40000A0D0A0B1F16221C090F0C1421090D098E
:100B50000D161116161716171616160A0A20212139
:100B600015271C1B1D1C19181D1B09141D18211BE2
:100B70001F191F1B19191A1B261B1A190F140B21D9
:100B8000150915181616160D161709091709231732
:100B90001818160F150C171720151615130C1320FF
:100BA0000000000000000000000000000000000045
:100BB0000000000000000000000000000000000035
:100BC0000000000000000000000000000000000025
:100BD0000000000000000000000000000000000015
:100BE0000000000000000000000000000000000005
:100BF00000000000000000000000000000000000F5
:100C000000000000000000FF1F003F0000FFFF3F4A
:100C10003F0000FFFF3F3F0000FFFF3F3F0000FF9E
:100C2000FF3F3F0000FF3F003F00000000000000CA
:100C300000FC1F00000000FC1F00000000FC1F0063
:100C400000000000000000000000000000000000A4
:100C50000000000000000000000000FC1F00000079
:100C600000FC1F00000000FC1F000000000000004E
:100C70000000000000800000000000F00000000004
:100C800000F00000000040F0C000000078F0F0002C
:100C9000000078F0FE00000078F0FF00000078F01F
:100CA0003F00000078FE0F000000F8FF0100000088
:100CB000F8FF00000000FFFF000000C0FFF100008F
:100CC00000F87FF0E00000F87FF0F80000F878F01E
:100CD000FF00003878F0FF00000078FC1F000000E3
:100CE00078FF07000000F8FF00000000FCFF000094
:100CF0000080FFF3000000E0FFF0000000F87FF04C
:100D0000000000F87BF00000007878F00000001888
:100D1000781000000000780000000000780000005B
:100D200000001800000000000000000000000000AB
:100D3000000000001FE0010000C07FE0070000E0AD
:100D4000FFE00F0000F0FFE01F0000F8FFE11F00D0
:100D500000F8FFC13F0000FCF0033E00007CE00310
:100D60007E00007CE0037C0080FFFFFFFF0780FF28
:100D7000FFFFFF07007CC0077C0000FCC00F7C0069
:100D800000FC811F3E0000F887FF3F0000F807FFCE
:100D90001F0000F007FF1F0000E007FE0F000080AB
:100DA00007FC0700000000F8010000000000000040
:100DB00000000000000000C00F00000000F03F0035
:100DC000000000F87F00000000F87F000000007CB9
:100DD000F8000000003CF0000000003CF0002000A3
:100DE000003CF0003000003CF0003C00007CF800CB
:100DF0003E0000F87F801F0000F87FC0070000F071
:100E00003FF0010000C00FFC00000000003F0000A8
:100E10000000800F00000000E00700000000F0016B
:100E200000000000FCF0030000003FFC0F0000C0C9
:100E30000FFE1F0000E003FE1F0000F8001F3E0031
:100E4000007C000F3C00001C000F3C00000C000F59
:100E50003C000004000F3C000000001F3E000000AA
:100E600000FE1F00000000FE1F00000000FC0F003D
:100E7000000000F00300000000000000000000007F
:100E80000000000000F80100000000FE0700000064
:100E900000FF0F00000080FF1F0000F0C1FF3F00B7
:100EA00000FCCFFF3F0000FEFF0F3F0000FEFF03EE
:100EB0007E0000FFFF037C00001FFE017C00000F8E
:100EC000FC077C00000FFC0F7C00000FFE1F3E00A3
:100ED000001FFF3F3E0000FE9F7F3F0000FE0FFF10
:100EE0001F0000FC07FC0F0000F001F80F000000DD
:100EF00000FC1F000000C0FF3F000000C0FF3F00DB
:100F00000000C07F3F000000C01F3C000000C00385
:100F10003800000000003000000000002000000049
:100F200000000000000000000000000000000000C1
:100F3000001F06000000001F06000000001F070041
:100F4000000000FF0300000000FF01000000007F20
:100F50000000000000000000000000000000000091
:100F60000000000000000000000000000000C0FFC2
:100F700000000000FCFF0F000000FFFF3F0000E04A
:100F8000FFFFFF0100F8FFFFFF0700FCFFFFFF0F5F
:100F900000FF0F00FC3F80FF0000C07F800F0000BB
:100FA000007C800300000070800000000040000012
:100FB000000000008000000000408003000000707E
:100FC000801F0000007E80FF0000C07F00FF0F0038
:100FD000FC3F00FCFFFFFF0F00F8FFFFFF0700E0F2
:100FE000FFFFFF010000FFFF3F000000FCFF0F00BC
:100FF0000000C0FF00000000000000000000000032
:10100000000000800000000000F00000000000F080
:101010004100000000E0E100000000E0F9000000F5
:1010200000E0FF01000000C07F00000000FF3F0063
:10103000000000FF1F00000000FF1F00000000FF75
:101040003F00000000C0FF00000000E0FF010000C2
:1010500000E0F900000000E0E100000000F04100C5
:10106000000000F00100000000800000000000000F
:101070000000000000000000000000000000000070
:101080000000000000000000000000000000000060
:101090000000000000000000000000000000000050
:1010A000000000000000000F00000000000F000022
:1010B0000000000F00000000000F00000000000F03
:1010C00000000000000F00000000000F0000000002
:1010D000000F00000000000F00000000000F0000E3
:1010E00000E0FFFF7F0000E0FFFF7F0000E0FFFF68
:1010F0007F0000E0FFFF7F000000000F0000000005
:10110000000F00000000000F00000000000F0000B2
:101110000000000F00000000000F00000000000FA2
:1011200000000000000F00000000000F00000000A1
:10113000000F0000000000000000000000000000A0
:10114000000000000000000000003F1C0000000044
:101150003F1C000000003F0E00000000FF070000E1
:101160000000FF0300000000FF000000000000007E
:101170000000003E00000000003E00000000003EB5
:1011800000000000003E00000000003E00000000E3
:10119000003E00000000003E00000000003E000095
:1011A0000000003E00000000003E00000000003E85
:1011B00000000000003E00000000000000000000F1
:1011C00000000000000000000000000000003F00E0
:1011D000000000003F00000000003F000000000091
:1011E0003F00000000003F00000000003F00000042
:1011F0000000000200000000C00300000000FC032B
:1012000000000080FF00000000F80F00000000FF59
:1012100001000000F03F00000000FE03000000C0DD
:101220007F00000000FC0700000000FF000000003D
:10123000001F00000000000100000000000000008E
:1012400000000000000000000000F83F0000000067
:10125000FFFF010000C0FFFF070000E0FFFF0F00DD
:1012600000F0FFFF1F0000F8FFFF3F0000F807C07D
:101270003F0000FC00007E00007C00007C00007C41
:1012800000007C00007C00007C00007C00007C00F2
:1012900000FC00007E0000F807C03F0000F8FFFFE0
:1012A0003F0000F0FFFF1F0000E0FFFF0F0000C045
:1012B000FFFF07000000FFFF01000000F83F0000F3
:1012C000000000000000000000000000000000001E
:1012D000000000000000000000000000000000808E
:1012E00007000000008007000000008007000000E9
:1012F00000800700000000C00700000000C00700D9
:10130000000000F0FFFF3F0000FCFFFF3F0000FC7B
:10131000FFFF3F0000FCFFFF3F0000FCFFFF3F001E
:1013200000FCFFFF3F000000000000000000000084
:10133000000000000E003E0000800F803F0000E033
:101340000FC03F0000F00FE03F0000F00FF03F0043
:1013500000F80FF03F0000F801F83F0000FC00FC2F
:101360003E00007C007E3E00007C007E3E00007C53
:10137000003F3E00007C801F3E0000FCC00F3E008E
:1013800000FCE10F3E0000F8FF073E0000F8FF03FD
:101390003E0000F0FF033E0000E0FF013E0000C001
:1013A000FF003E0000003F003E0000000000000083
:1013B000000000000000000000C00100008007C025
:1013C000070000E007C00F0000F007C01F0000F892
:1013D00007C03F0000F807C03F0000F800003F00D2
:1013E000007C00007E00007CC0037C00007CC00309
:1013F0007C00007CC0037C00007CC0037C0000FCFF
:10140000E0077E0000F8FF0F3F0000F8FFFF3F00FD
:1014100000F0FFFF3F0000F07FFF1F0000E03FFFF4
:101420000F0000800FFE0700000000F80100000020
:1014300000000000000000000000000000FC0000B0
:10144000000000FE0000000080FF00000000E0FF40
:1014500000000000F0FF00000000FCF300000000AE
:10146000FFF0000000807FF0000000E01FF00000AF
:1014700000F807F0000000FC03F0000000FC00F0A2
:10148000000000FCFFFF3F0000FCFFFF3F0000FCEE
:10149000FFFF3F0000FCFFFF3F0000FCFFFF3F009D
:1014A00000FCFFFF3F00000000F00000000000F023
:1014B0000000000000F0000000000000000000003C
:1014C00000000000000000C001000000E0C30700B1
:1014D00000E0FFC30F0000FCFFC31F0000FCFFC3C0
:1014E0003F0000FCFFC33F0000FCF7037F00007CCF
:1014F000F0017E00007CF8007C00007CF8007C009D
:10150000007CF8007C00007CF8007C00007CF80186
:101510007E00007CF8033F00007CF0FF3F00007C71
:10152000F0FF1F00007CE0FF1F00007CC0FF0F00E9
:10153000007C80FF0300000000FC000000000000B1
:1015400000000000000000000000F03F000000006C
:10155000FEFF01000080FFFF070000E0FFFF0F001B
:1015600000F0FFFF1F0000F0FFFF3F0000F8C3077F
:101570003F0000F8E0037E0000FCF0017C00007CEE
:10158000F0017C00007CF0017C00007CF0017C001C
:10159000007CF0017C0000FCF0037E0000FCF307FF
:1015A0003F0000F8E3FF3F0000F8E3FF1F0000F0FA
:1015B000C3FF1F0000E083FF0F00008003FF030054
:1015C000000000FC0000000000000000000000001F
:1015D0000000007C00000000007C00000000007C97
:1015E00000000000007C00000000007C00003C00C7
:1015F000007C00C03F00007C00F83F00007C00FE43
:101600003F00007C80FF3F00007CE0FF3F00007C4B
:10161000F0FF0300007CFC3F0000007CFE070000A0
:10162000007CFF00000000FC3F00000000FC1F00E9
:10163000000000FC0700000000FC0300000000FCAC
:1016400000000000007C000000000000000000001E
:10165000000000000000000000F8010000801FFCF6
:10166000070000E03FFE0F0000F07FFF1F0000F8C2
:10167000FFFF3F0000F8FFFF3F0000F8F90F7F0079
:1016800000FCF0077E00007CE0037C00007CE003AF
:101690007C00007CE0037C00007CE0037C0000FC1C
:1016A000F0077E0000F8F90F7F0000F8FFFF3F0011
:1016B00000F8FFFF3F0000F07FFF1F0000E03FFE4B
:1016C0000F0000800FFC0700000000F80100000080
:1016D0000000000000000000000000007E0000008C
:1016E0000080FF81030000E0FF830F0000F0FF8710
:1016F0001F0000F0FF8F3F0000F8FF8F3F0000F851
:10170000C19F7F0000FC801F7E00007C001F7C00CA
:10171000007C001F7C00007C001F7C00007C001F00
:101720007E0000FC800F3E0000F8C1873F0000F8FB
:10173000FFFF1F0000F0FFFF1F0000E0FFFF07009A
:1017400000C0FFFF03000000FFFF00000000F81FC3
:101750000000000000000000000000000000000089
:101760000000000000000000000000003F003F00FB
:1017700000003F003F0000003F003F0000003F002E
:101780003F0000003F003F0000003F003F0000001E
:101790000000000000000000000000000000000049
:1017A00000000000000000003F003F1C00003F0060
:1017B0003F1C00003F003F0E00003F00FF070000FD
:1017C0003F00FF0300003F00FF000000000000009A
:1017D0000000000000000000000000000000000009
:1017E00000000000000000000000000000000000F9
:1017F000000000000000000000000000000F0000DA
:101800000000800F00000000800F00000000C01FDB
:1018100000000000C01F00000000C03D00000000EC
:10182000E03D00000000E03D00000000F078000016
:101830000000F0780000000070F00000000078F078
:101840000000000078F0000000003CE00100000013
:101850003CE0010000001EC0030000001EC00300A9
:1018600000001EC0030000000F80070000000F8072
:10187000070000800F000F00008007000F000080AD
:1018800007000F0000C003001E0000000000000061
:101890000000000000000000000000000000000048
:1018A0000000000000000000000000000000000038
:1018B00000000000000000000000000078F00000C0
:1018C000000078F00000000078F00000000078F0E0
:1018D0000000000078F00000000078F00000000038
:1018E00078F00000000078F00000000078F00000C0
:1018F000000078F00000000078F00000000078F0B0
:101900000000000078F00000000078F00000000007
:1019100078F00000000078F00000000078F000008F
:10192000000078F00000000078F00000000078F07F
:101930000000000078F00000000078F000000000D7
:1019400078F00000000078F00000000078F000005F
:101950000000000000000000000000000000000087
:101960000000000000000000000000000000000077
:101970000000000000000000000000000000000067
:1019800000000000000000C003001E0000800700EF
:101990000F00008007000F0000800F800F00000084
:1019A0000F80070000000F80070000001EC003002A
:1019B00000001EC0030000001EC0030000003CE049
:1019C000010000003CE00100000078F00000000091
:1019D00078F00000000078F000000000F0780000CF
:1019E0000000F07800000000E03D00000000E03D55
:1019F00000000000E03D00000000C01F00000000EB
:101A0000C01F00000000800F00000000800F0000D9
:101A10000000800F000000000000000000E0010056
:101A2000000000F80100000000FC0100000000FEC2
:101A30000100000000FF0100000000FF01000000A5
:101A4000803F00000000801F001E3F00800F801FAD
:101A50003F00800FC01F3F00800FE01F3F00800F3E
:101A6000F01F3F00801FF81F3F00803FFC01000077
:101A700000FFFF00000000FFFF00000000FE7F00ED
:101A8000000000FC3F00000000F81F00000000E024
:101A9000070000000000000000000000000000003F
:101AA000000000FF01000000E0FF0F000000F8FF51
:101AB0003F000000FE007F0000001F00F8000080D3
:101AC0000700E00100C00300C00300E00100800344
:101AD00000F000008007007000FC0107007880FF24
:101AE000070F0038C0FF0F0E003CE0FF0F0E001C78
:101AF000F0071F0E001CF8001C1C001E78001C1CA8
:101B0000000E3C001C1C000E1C001C1C000E1C00C7
:101B10000E1C000E1C000E1C000E1C00071C000EEC
:101B200038C0031C000E78FC0F1C000EF0FF0F1EC7
:101B3000000EF0FF1F0E001CF83F1C0E001CF803E7
:101B40001C0E001C38001C07003800001C07003861
:101B500000008E03007000008F0300F00080C701BA
:101B600000E001E0030000C007F801000080FFFF73
:101B700000000000FE3F00000000F8070000000029
:101B800000002000000000003C00000000803F003A
:101B9000000000F03F00000000FE3F000000C0FF1A
:101BA0003F000000F8FF1F000000FFFF030000C01F
:101BB000FFFF000000F8FFFF000000FFFFF900003A
:101BC00000FF3FF8000000FF03F80000007F00F86E
:101BD0000000007F00F8000000FF03F8000000FF95
:101BE0003FF8000000FFFFF9000000F8FFFF0000D1
:101BF00000C0FFFF00000000FFFF03000000F8FF2F
:101C00001F000000C0FF3F00000000FE3F0000007A
:101C100000F03F00000000803F00000000003C009A
:101C20000000000020000000000000000000000094
:101C3000000000000000000000FFFFFF3F0000FF69
:101C4000FFFF3F0000FFFFFF3F0000FFFFFF3F00DF
:101C500000FFFFFF3F0000FFFFFF3F00001FF001FC
:101C60003E00001FF0013E00001FF0013E00001F7B
:101C7000F0013E00001FF0013E00001FF0013E0099
:101C8000001FF0013E00001FF0013E00001FF001A8
:101C90003E00001FF0013E00003FF8033F0000FF40
:101CA000FF873F0000FEFFFF1F0000FEFFFF1F0039
:101CB00000FCBFFF0F0000F89FFF0F0000F007FFC0
:101CC0000300000000FC0100000000000000000014
:101CD000000000000000FC0F000000C0FFFF00003B
:101CE00000F0FFFF030000F8FFFF070000FCFFFF0C
:101CF0000F0000FEFFFF1F0000FE03F01F0000FFAB
:101D000000C03F00003F00003F00801F00007E0039
:101D1000801F00007E00800F00007C00800F00000C
:101D20007C00800F00007C00800F00007C00800F92
:101D300000007C00800F00007C00801F00007E00FF
:101D4000801F00003E00003F00003F0000FF00C079
:101D50003F0000FF03F01F0000FE03F01F0000FC27
:101D600003F00F0000F803F0070000F003F0030099
:101D70000080037000000000000000000000000070
:101D8000000000000000000000FFFFFF3F0000FF18
:101D9000FFFF3F0000FFFFFF3F0000FFFFFF3F008E
:101DA00000FFFFFF3F0000FFFFFF3F00001F00009C
:101DB0003E00001F00003E00001F00003E00001F0C
:101DC00000003E00001F00003E00001F00003E001B
:101DD000001F00003E00001F00003E00001F00002A
:101DE0003E00003F00003F00007F00801F0000FE1B
:101DF00000C01F0000FE07F01F0000FCFFFF0F00E7
:101E000000FCFFFF070000F8FFFF070000E0FFFFF6
:101E1000010000C0FF7F00000000FC0F0000000078
:101E200000000000000000000000000000000000B2
:101E300000FFFFFF3F0000FFFFFF3F0000FFFFFF2D
:101E40003F0000FFFFFF3F0000FFFFFF3F0000FFDC
:101E5000FFFF3F00001FF0013E00001FF0013E00A9
:101E6000001FF0013E00001FF0013E00001FF001C6
:101E70003E00001FF0013E00001FF0013E00001F69
:101E8000F0013E00001FF0013E00001FF0013E0087
:101E9000001FF0013E00001FF0013E00001FF00196
:101EA0003E00001FF0013E00001F00003E00000049
:101EB00000003E00000000000000000000000000E4
:101EC00000000000000000FFFFFF3F0000FFFFFFD9
:101ED0003F0000FFFFFF3F0000FFFFFF3F0000FF4C
:101EE000FFFF3F0000FFFFFF3F00001FF001000069
:101EF000001FF0010000001FF0010000001FF001B2
:101F00000000001FF0010000001FF0010000001F92
:101F1000F0010000001FF0010000001FF0010000B0
:101F2000001FF0010000001FF0010000001FF00181
:101F30000000001FF0010000001F00000000001F53
:101F40000000000000000000000000000000000091
:101F50000000FC0F00000080FF7F000000E0FFFF9A
:101F6000010000F8FFFF070000FCFFFF0F0000FE6C
:101F7000FFFF1F0000FE03F81F0000FF00C03F002E
:101F8000003F00003F00801F00007E00801F000017
:101F90007E00800F00007C00800F00007C00800F1E
:101FA00000007C00800F00007C00800FC0077C00D8
:101FB000801FC0077C00801FC0073E00003FC00795
:101FC0003E00007FC0871F0000FFC1E70F0000FE3A
:101FD000C1FF070000FCC1FF3F0000FCC1FF3F0044
:101FE00000F8C1FF3F0000E0C1FF3F000080C1FFDB
:101FF0003F000000000000000000000000000000A2
:102000000000000000FFFFFF3F0000FFFFFF3F0058
:1020100000FFFFFF3F0000FFFFFF3F0000FFFFFF4B
:102020003F0000FFFFFF3F000000F800000000003D
:10203000F80000000000F80000000000F8000000B8
:102040000000F80000000000F80000000000F800A8
:1020500000000000F80000000000F8000000000090
:10206000F80000000000F80000000000F800000088
:1020700000FFFFFF3F0000FFFFFF3F0000FFFFFFEB
:102080003F0000FFFFFF3F0000FFFFFF3F0000FF9A
:10209000FFFF3F0000000000000000000000000003
:1020A00000000000000000FFFFFF3F0000FFFFFFF7
:1020B0003F0000FFFFFF3F0000FFFFFF3F0000FF6A
:1020C000FFFF3F0000FFFFFF3F0000000000000097
:1020D000000000F80300000000F80F00000000F806
:1020E0001F00000000F83F00000000F83F00000063
:1020F00000F83F00000000007E00000000007C00AF
:10210000000000007C00000000007C0000000000D7
:102110007C00000000007C00000000007E0000FF4A
:10212000FFFF7F0000FFFFFF3F0000FFFFFF3F00BA
:1021300000FFFFFF1F0000FFFFFF0F0000FFFFFF7A
:10214000030000000000000000000000000000008C
:102150000000000000FFFFFF3F0000FFFFFF3F0007
:1021600000FFFFFF3F0000FFFFFF3F0000FFFFFFFA
:102170003F0000FFFFFF3F000000F00700000000ED
:10218000F80300000000FC0100000000FE01000058
:102190000080FF03000000C0FF0F000000E0FF1FF1
:1021A000000000F0FF7F000000F8C7FF000000FC07
:1021B00083FF010000FE01FE070000FF00FC0F008E
:1021C000007F00F03F00003F00E03F00001F00C024
:1021D0003F00000F00003F00000700003E0000012C
:1021E0000000380000000000300000000000200067
:1021F00000000000000000000000000000000000DF
:10220000000000FFFFFF3F0000FFFFFF3F0000FF57
:10221000FFFF3F0000FFFFFF3F0000FFFFFF3F0009
:1022200000FFFFFF3F00000000003E000000000034
:102230003E00000000003E00000000003E000000E4
:1022400000003E00000000003E00000000003E00D4
:10225000000000003E00000000003E000000000002
:102260003E00000000003E00000000003E000000B4
:1022700000003E00000000003E00000000003E00A4
:10228000000000000000000000000000000000004E
:10229000000000FFFFFF3F0000FFFFFF3F0000FFC7
:1022A000FFFF3F0000FFFFFF3F0000FFFFFF3F0079
:1022B00000FFFFFF3F0000FF0000000000FF0F00D5
:1022C000000000FFFF00000000FEFF0F000000E024
:1022D000FFFF00000000FEFF1F000000C0FF3F00E6
:1022E000000000FC3F00000000E03F00000000E0B4
:1022F0003F00000000FC3F000000C0FF3F00000066
:10230000FCFF1F0000E0FFFF010000FEFF1F0000B8
:1023100000FFFF00000000FF0F00000000FF0000B2
:10232000000000FFFFFF3F0000FFFFFF3F0000FF36
:10233000FFFF3F0000FFFFFF3F0000FFFFFF3F00E8
:1023400000FFFFFF3F000000000000000000000051
:10235000000000000000000000FFFFFF3F0000FF42
:10236000FFFF3F0000FFFFFF3F0000FFFFFF3F00B8
:1023700000FFFFFF3F0000FFFFFF3F0000FF0300E3
:10238000000000FC0F00000000F03F00000000C053
:10239000FF0000000080FF0100000000FE070000B9
:1023A0000000F81F00000000E07F00000000C0FFF8
:1023B0000000000000FF0300000000FC0F00000010
:1023C00000F03F0000FFFFFF3F0000FFFFFF3F0066
:1023D00000FFFFFF3F0000FFFFFF3F0000FFFFFF88
:1023E0003F0000FFFFFF3F00000000000000000072
:1023F000000000000000FC0F00000080FF7F0000D4
:1024000000E0FFFF010000F8FFFF070000FCFFFFF6
:102410000F0000FEFFFF1F0000FE07F81F0000FF77
:1024200000C03F00003F00003F00803F00007F00F1
:10243000801F00007E00801F00007E00800F0000D3
:102440007C00800F00007C00800F00007C00800F6B
:1024500000007C00800F00007C00801F00007E00D8
:10246000801F00007E00803F00007F00003F0000D2
:102470003F0000FF00C03F0000FE07F81F0000FE05
:10248000FFFF1F0000FCFFFF0F0000F8FFFF070029
:1024900000E0FFFF01000080FF7F00000000FC0F54
:1024A000000000000000000000000000000000002C
:1024B0000000000000FFFFFF3F0000FFFFFF3F00A4
:1024C00000FFFFFF3F0000FFFFFF3F0000FFFFFF97
:1024D0003F0000FFFFFF3F00001FC0070000001F7C
:1024E000C0070000001FC0070000001FC007000059
:1024F000001FC0070000001FC0070000001FC0072A
:102500000000001FC0070000003FE0070000007F40
:10251000F007000000FFFF07000000FEFF030000BF
:1025200000FEFF03000000FCFF01000000F8FF00B8
:10253000000000C03F00000000000000000000009C
:10254000000000000000FC0F00000080FF7F000082
:1025500000E0FFFF010000F8FFFF070000FCFFFFA5
:102560000F0000FEFFFF1F0000FE07F81F0000FF26
:1025700000C03F00003F00003F00803F00007F00A0
:10258000801F00007E00801F00007E00800F000082
:102590007C00800F00007C00800F00007C00800F1A
:1025A00000207C00800F00707C00801F00F87C0001
:1025B000801F00FC7E00803F00F83F00003F00F0DD
:1025C0003F0000FF00E03F0000FE07F81F0000FC96
:1025D000FFFF3F0000FCFFFF7F0000F8FFFFFF0050
:1025E00000E0FFFFF9000080FF7F38000000FC0FD3
:1025F00010000000000000000000000000000000CB
:102600000000000000FFFFFF3F0000FFFFFF3F0052
:1026100000FFFFFF3F0000FFFFFF3F0000FFFFFF45
:102620003F0000FFFFFF3F00001FE0030000001F0E
:10263000E0030000001FE0030000001FE0030000B3
:10264000001FE0030000001FE0030000001FE00384
:102650000000001FE0030000001FE0030000001F57
:10266000E0070000003FF00F0000007FF8FF1F00B0
:1026700000FFFFFF3F0000FEFFFF3F0000FE7FFF67
:102680003F0000FC3FFF3F0000F83FFC3F0000E040
:102690000F003800000000000000000000000000F3
:1026A00000E00FE0010000F81FE0070000FC7FE001
:1026B0000F0000FE7FE01F0000FFFFE01F0000FF93
:1026C000FFE03F00003FFC013F00801FFC017E0057
:1026D000800FF8017E00800FF8017C00800FF80366
:1026E0007C00800FF0037C00800FF0037C00800FE3
:1026F000F0037C00801FF0077C00003FE0077E00B5
:1027000000FFE10F3F0000FEE1FF3F0000FEC1FFC0
:102710001F0000FCC1FF1F0000F881FF0F0000C078
:1027200001FF0700000000FC0100000000000000A5
:10273000001F00000000001F00000000001F00003C
:102740000000001F00000000001F00000000001F2C
:1027500000000000001F00000000001F000000003B
:10276000001F0000000000FFFFFF3F0000FFFFFF11
:102770003F0000FFFFFF3F0000FFFFFF3F0000FFA3
:10278000FFFF3F0000FFFFFF3F00001F00000000B1
:10279000001F00000000001F00000000001F0000DC
:1027A0000000001F00000000001F00000000001FCC
:1027B00000000000001F00000000001F00000000DB
:1027C0000000000000000000000000000000000009
:1027D000000000FFFFFF000000FFFFFF070000FFF9
:1027E000FFFF0F0000FFFFFF1F0000FFFFFF1F00A4
:1027F00000FFFFFF3F00000000803F0000000000DE
:102800007E00000000007E00000000007C00000050
:1028100000007C00000000007C00000000007C0044
:10282000000000007C00000000007E0000000000AE
:102830007E00000000803F0000FFFFFF3F0000FF20
:10284000FFFF1F0000FFFFFF1F0000FFFFFF0F0043
:1028500000FFFFFF070000FFFFFF00000003000074
:102860000000000F00000000007F0000000000FFDB
:102870000300000000FF1F00000000FF7F000000B9
:1028800000FFFF03000000FCFF1F000000E0FFFF4F
:1028900000000000FFFF07000000F8FF3F000000FD
:1028A00080FF3F00000000FC3F00000000C03F0030
:1028B000000000FC3F00000080FF3F000000F0FF30
:1028C0003F000000FFFF070000E0FFFF000000FCEA
:1028D000FF1F000000FFFF03000000FFFF000000DB
:1028E00000FF1F00000000FF03000000007F000049
:1028F0000000000F000000000003000000000000C6
:1029000000000000000300000000001F00000000A5
:1029100000FF0000000000FF0F00000000FF7F002C
:10292000000000FFFF07000000FFFF3F000000F075
:10293000FFFF03000000FFFF1F000000F0FF3F004B
:10294000000000FF3F00000000E03F00000000FF2B
:102950003F000000F8FF3F0000E0FFFF1F0000FF06
:10296000FF7F000000FFFF03000000FF1F000000CA
:10297000007F0000000000FF1F00000000FFFF03B9
:10298000000000FFFF7F000000E0FFFF1F000000CD
:10299000F8FF3F00000000FF3F00000000E03F00A4
:1029A000000000FF3F000000F0FF3F000000FFFFBD
:1029B0001F0000F0FFFF030000FFFF3F000000FFCB
:1029C000FF07000000FF7F00000000FF0F00000075
:1029D00000FF00000000001F0000000000030000D6
:1029E0000000000100002000000300003800000F7C
:1029F00000003C00001F00003F00007F00803F00FF
:102A000000FF00E03F0000FF03F03F0000FF07FC75
:102A10003F0000FC1FFF0F0000F0BFFF030000E0BD
:102A2000FFFF01000080FF7F00000000FE1F00008C
:102A30000000FC0F00000000FE1F00000080FF7F70
:102A4000000000E0FFFF010000F0BFFF030000FCFA
:102A50001FFE0F0000FF07FC3F0000FF03F03F00D8
:102A600000FF00E03F00007F00803F00001F0000EB
:102A70003F00000F00003C00000300003000000198
:102A8000000020000001000000000007000000001E
:102A9000001F00000000007F0000000000FF010098
:102AA000000000FF0300000000FF0F00000000FE18
:102AB0003F00000000F8FF00000000C0FF0300001E
:102AC0000000FFFF3F000000FCFF3F000000F0FFA0
:102AD0003F000000F0FF3F000000FCFF3F000080CF
:102AE000FFFF3F0000E0FF03000000F8FF000000D0
:102AF00000FE3F00000000FF0F00000000FF030089
:102B0000000000FF01000000007F00000000001F27
:102B100000000000000700000000000100000000AD
:102B2000000000000000001F00003E00001F0080A9
:102B30003F00001F00C03F00001F00E03F00001FDB
:102B400000F03F00001F00FC3F00001F00FE3F00A0
:102B5000001F00FF3F00001F80FF3E00001FC07FDE
:102B60003E00001FF01F3E00001FF80F3E00001F38
:102B7000FC073E00001FFE033E00009FFF003E00DA
:102B800000DF7F003E0000FF3F003E0000FF1F000F
:102B90003E0000FF0F003E0000FF03003E0000FF6C
:102BA00001003E0000FF00003E00007F00003E00EC
:102BB000001F00003E0000000000000000000000B8
:102BC0000000000000000000000000000000000005
:102BD0000000000000FFFFFFFF7F00FFFFFFFF7FFF
:102BE00000FFFFFFFF7F00FFFFFFFF7F00FFFFFFF2
:102BF000FF7F00FFFFFFFF7F000F00000078000F46
:102C000000000078000F00000078000F000000783E
:102C1000000000000000000300000000000F0000A2
:102C20000000807F0000000080FF0100000000FC29
:102C30000F00000000F07F0000000080FF01000096
:102C40000000FE0F00000000F07F00000000C0FF49
:102C50000100000000FE0F00000000F87F000000EF
:102C600000C0FF0100000000FE0F00000000F83F60
:102C700000000000C0FF00000000007F0000000016
:102C80000078000000000060000000000000000F5D
:102C900000000078000F00000078000F00000078AE
:102CA000000F0000007800FFFFFFFF7F00FFFFFF25
:102CB000FF7F00FFFFFFFF7F00FFFFFFFF7F00FFA1
:102CC000FFFFFF7F00FFFFFFFF7F0000000000000D
:102CD00000000000000000000000000000000000F4
:102CE00000000000000000000000000000000000E4
:102CF00000000000000000000000000000000000D4
:102D000000000800000000000C00000000000E00A1
:102D1000000000000F00000000800F00000000C055
:102D20000700000000E00300000000F001000000C8
:102D300000F800000000007E00000000003E0000DF
:102D40000000001E00000000001E00000000003E09
:102D500000000000007E0000000000F800000000FD
:102D600000F00100000000E00300000000C00700C8
:102D7000000000800F00000000000F0000000000B5
:102D80000E00000000000C00000000000800000021
:102D90000000000000F00000000000F00000000053
:102DA00000F00000000000F00000000000F0000053
:102DB000000000F00000000000F00000000000F043
:102DC0000000000000F00000000000F00000000023
:102DD00000F00000000000F00000000000F0000023
:102DE000000000F00000000000F00000000000F013
:102DF0000000000000F00000000000F000000000F3
:102E000000F00000000000F00000000000F00000F2
:102E100000000000000000000000000000000000B2
:102E200000F80700000000FE0700000000FF070098
:102E3000000080E30700000080E10700000080E15F
:102E400007000000000000000000000000E0070094
:102E5000000070F01F0000007CFC3F0000007EFCC2
:102E60003F0000007FFE7F0000007FFE7F000080AB
:102E70007F3E7E0000801F1F7C0000800F1F7C00B3
:102E800000800F1F7C0000800F1F3C0000800F0F90
:102E90001E0000809F0F0F000000FFFF1F000000BA
:102EA000FFFF3F000000FFFF3F000000FEFF3F006C
:102EB0000000FCFF3F000000F8FF3F0000000000A2
:102EC00030000000000000000000000000000000D2
:102ED0000000000000FFFFFF3F0000FFFFFF3F007A
:102EE00000FFFFFF3F0000FFFFFF3F0000FFFFFF6D
:102EF0003F0000FFFFFF3F0000007C800F0000004C
:102F00001E001E0000001F003E0000800F007C001D
:102F100000800F007C0000800F007C0000801F00FC
:102F20007E0000801F007E0000807F807F00000008
:102F3000FFFF3F000000FFFF3F000000FEFF1F00FB
:102F40000000FCFF0F000000F0FF03000000807F86
:102F50000000000000000000000000000000000071
:102F600080FF00000000F0FF03000000FCFF0F00E6
:102F70000000FEFF1F000000FEFF3F000000FFFFFB
:102F80003F0000007F807F0000801F007E000080E7
:102F90000F007C0000800F007C0000800F007C0090
:102FA00000800F007C0000801F007E0000803F003A
:102FB0003F000000FFC03F000000FFC03F000000D6
:102FC000FEC01F000000FCC00F000000F8C007009A
:102FD0000000E0C001000000000000000000807F51
:102FE00000000000F0FF03000000FCFF0F000000E5
:102FF000FEFF1F000000FFFF3F000000FFFF3F003B
:1030000000807F807F0000801F007E0000801F0006
:103010007E0000800F007C0000800F007C0000809C
:103020000F007C0000001F003E0000001E001E007C
:1030300000007C800F0000FFFFFF3F0000FFFFFF4C
:103040003F0000FFFFFF3F0000FFFFFF3F0000FFCA
:10305000FFFF3F0000FFFFFF3F00000000000000F7
:10306000000000000000000080FF00000000F0FFF2
:1030700003000000FCFF07000000FEFF1F0000002F
:10308000FEFF1F000000FFFF3F0000007F1E3F000B
:1030900000801F1E7E0000800F1E7C0000800F1E1F
:1030A0007C0000800F1E7C0000800F1E7C000080D2
:1030B0001F1E7C0000003F1E3E000000FF1F3F005F
:1030C0000000FE1F1F000000FE1F1F000000FC1F6D
:1030D0000F000000F01F07000000C01F01000000EB
:1030E0000000000000000F00000000000F000000C2
:1030F00000000F00000000F8FFFF3F0000FCFFFF92
:103100003F0000FEFFFF3F0000FFFFFF3F0000FF0A
:10311000FFFF3F0000FFFFFF3F00001F0F00000008
:10312000001F0F000000001F0F0000000000000043
:1031300000000000807F00000000F0FF0107000099
:10314000FCFF070F0000FEFF0F1F0000FFFF1F3FE7
:103150000000FFFF1F3F00807FC03F3F00801F0037
:103160003F7E00800F003E7C00800F003E7C008090
:103170000F003E7C00800F003E7C00000F001E7C94
:1031800000001F001F7E00007EC00F3F0000FFFFF9
:10319000FF3F0000FFFFFF3F0000FFFFFF1F000099
:1031A000FFFFFF0F0000FFFFFF070000FFFFFF0111
:1031B000000000000000000000000000000000000F
:1031C000000000FFFFFF3F0000FFFFFF3F0000FF88
:1031D000FFFF3F0000FFFFFF3F0000FFFFFF3F003A
:1031E00000FFFFFF3F0000003E00000000001E0047
:1031F000000000000F00000000000F000000008031
:103200000F00000000800F00000000800F00000091
:1032100000801F0000000080FFFF3F000080FFFFD4
:103220003F000000FFFF3F000000FFFF3F000000E5
:10323000FEFF3F000000F8FF3F000000000000001C
:10324000000000000000000000000000001FFFFF61
:103250003F00001FFFFF3F00001FFFFF3F00001F58
:10326000FFFF3F00001FFFFF3F00001FFFFF3F0069
:1032700000000000007C00000000007C0000000056
:10328000007C001FFFFFFF7F001FFFFFFF7F001F6D
:10329000FFFFFF7F001FFFFFFF3F001FFFFFFF3FFC
:1032A000001FFFFFFF0F00000000000000000000F3
:1032B000000000000000000000FFFFFF3F0000FFD3
:1032C000FFFF3F0000FFFFFF3F0000FFFFFF3F0049
:1032D00000FFFFFF3F0000FFFFFF3F000000803FB7
:1032E00000000000C01F00000000E01F0000000000
:1032F000F07F00000000F8FF01000000FEFF070063
:103300000000FFFE1F0000007FF83F0000003FF0BC
:103310003F0000000FC03F00000007003F0000001A
:1033200003003C0000000100380000000000200005
:10333000000000000000000000000000000000008D
:10334000000000FFFFFF3F0000FFFFFF3F0000FF06
:10335000FFFF3F0000FFFFFF3F0000FFFFFF3F00B8
:1033600000FFFFFF3F000000000000000000000021
:1033700000000000000000000000FFFF3F00000010
:10338000FFFF3F000000FFFF3F000000FFFF3F0086
:103390000000FFFF3F000000FFFF3F0000003E0075
:1033A000000000001F00000000000F00000000806F
:1033B0000F00000000800F00000000800F000000E0
:1033C00000801F0000000080FFFF3F000080FFFF23
:1033D0003F000000FFFF3F000000FFFF3F00000034
:1033E000FEFF3F000000FCFF3F0000003E00000029
:1033F00000001F00000000000F00000000800F0010
:10340000000000800F00000000800F00000000801E
:103410001F0000000080FFFF3F000080FFFF3F0013
:103420000000FFFF3F000000FEFF3F000000FEFF26
:103430003F000000F8FF3F00000000000000000017
:10344000000000000000000000000000FFFF3F003F
:103450000000FFFF3F000000FFFF3F000000FFFFF4
:103460003F000000FFFF3F000000FFFF3F000000A3
:103470003C00000000001E00000000000F000000E3
:1034800000000F00000000800F00000000800F000F
:10349000000000800F00000000801F00000000807E
:1034A000FFFF3F000080FFFF3F000000FFFF3F00E5
:1034B0000000FFFF3F000000FEFF3F000000F8FF9C
:1034C0003F000000000000000000000000000000BD
:1034D000807F00000000E0FF01000000F8FF07000F
:1034E0000000FCFF0F000000FEFF1F000000FFFFB8
:1034F0003F0000007F803F0000801F007E000080B2
:103500001F007E0000800F007C0000800F007C0008
:1035100000800F007C0000800F007C0000801F00F6
:103520007E0000801F007E0000007F803F000000C2
:10353000FFFF3F000000FEFF1F000000FCFF0F0028
:103540000000F8FF07000000E0FF01000000807F9E
:10355000000000000000000000000000000000006B
:10356000000000000000FFFFFF7F0000FFFFFF7F63
:103570000000FFFFFF7F0000FFFFFF7F0000FFFF55
:10358000FF7F0000FFFFFF7F00007C800F00000036
:103590001E001E0000001F003E0000800F007C0087
:1035A00000800F007C0000800F007C0000801F0066
:1035B0007E0000801F007E0000807F807F00000072
:1035C000FFFF3F000000FFFF3F000000FEFF1F0065
:1035D0000000FCFF0F000000F0FF03000000807FF0
:1035E00000000000000000000000807F00000000DC
:1035F000F0FF03000000FCFF0F000000FEFF1F00B3
:103600000000FFFF3F000000FFFF3F0000807F80C1
:103610007F0000801F007E0000801F007E00008071
:103620000F007C0000800F007C0000800F007C00F9
:1036300000001F003E0000001E001E0000007C80F5
:103640000F000000FFFFFF7F0000FFFFFF7F000073
:10365000FFFFFF7F0000FFFFFF7F0000FFFFFF7FF6
:103660000000FFFFFF7F00000000000000000000DE
:1036700000000000FFFF3F000000FFFF3F000000D0
:10368000FFFF3F000000FFFF3F000000FFFF3F0083
:103690000000FFFF3F0000007C00000000003E0033
:1036A000000000001F00000000801F0000000080DC
:1036B0001F00000000801F00000000801F000000AD
:1036C0000000000000000000000000000000F08189
:1036D00003000000FC830F000000FE871F000000B5
:1036E000FF8F3F000000FF8F3F000080FF9F7F00A3
:1036F00000809F1F7E0000800F1F7C0000800F1F36
:103700007C0000800F3F7C0000800F3F7C00008029
:103710001F3E7C0000007F7E7E0000007FFE3F0099
:1037200000007FFE3F0000007EFC3F0000007CFCAC
:103730001F00000078F80F00000000F003000000F8
:103740000F00000000000F00000000000F0000004C
:1037500000FCFFFF070000FCFFFF1F0000FCFFFF55
:103760001F0000FCFFFF3F0000FCFFFF3F0000FCCC
:10377000FFFF3F0000000F003E0000000F003E0072
:1037800000000F003E0000000000000000000000EC
:1037900000000000000000000000FFFF0700000024
:1037A000FFFF1F000000FFFF3F000000FFFF3F0082
:1037B0000000FFFF7F000000FFFF7F00000000000F
:1037C0007E00000000007C00000000007C00000083
:1037D00000007C00000000003C00000000003C00F5
:1037E000000000001E00000000000F000000FFFFAE
:1037F0003F000000FFFF3F000000FFFF3F00000010
:10380000FFFF3F000000FFFF3F000000FFFF3F0001
:1038100000000000000000000100000000000F0098
:10382000000000003F0000000000FF010000000059
:10383000FF0F00000000FF3F00000000FFFF01003D
:103840000000FCFF0F000000E0FF3F00000000FE52
:103850003F00000000F03F00000000003F000000BB
:1038600000F03F00000000FF3F000000E0FF1F00ED
:103870000000FEFF03000000FFFF00000000FF1F2C
:1038800000000000FF03000000007F0000000000B7
:103890000F00000000000100000000000000000018
:1038A00000000300000000001F0000000000FF01F6
:1038B00000000000FF0F00000000FFFF00000000FC
:1038C000FFFF07000000FCFF3F000000C0FF3F00BB
:1038D000000000F83F00000000803F00000000FCF6
:1038E0003F000000E0FF3F000000FFFF0F0000006E
:1038F000FFFF00000000FF07000000003F00000085
:103900000000FF0700000000FFFF00000000FEFFB6
:103910000F000000C0FF3F00000000FC3F0000005F
:1039200000803F00000000F83F00000080FF3F00E3
:103930000000FCFF3F000000FFFF07000000FF7FCA
:1039400000000000FF0F00000000FF00000000006A
:103950001F00000000000100000000000000200027
:10396000000003003000000007003C0000001F00C2
:103970003E0000003F803F000000FFC03F0000000D
:10398000FFF33F000000FEFF0F000000F8FF0700FC
:103990000000F0FF01000000807F00000000E0FF59
:1039A00001000000F8FF07000000FEFF1F000000FC
:1039B000FFF33F000000FFE03F0000003F803F00BA
:1039C00000001F003E00000007003C000000030054
:1039D0003000000000002000000000000000000097
:1039E0000300000000001F0000000000FF000000B6
:1039F0000000FF07007C0000FF1F007C0000FFFFAD
:103A0000007C0000FEFF077C0000E0FF3F7F00001D
:103A100000FFFF7F000000F0FF3F00000000FF1FDD
:103A2000000000F0FF07000000FFFF010000E0FFC2
:103A30003F000000FEFF07000000FFFF0000000045
:103A4000FF1F00000000FF03000000007F000000D7
:103A500000000F0000000000030000000000000054
:103A60000000000000003E0000001F003F000000BA
:103A70001F803F0000001FC03F0000001FE03F000C
:103A800000001FF03F0000001FF83F0000001FFC77
:103A90003F0000001FFE3E0000001F7F3E000000B0
:103AA0009F3F3E000000DF1F3E000000FF0F3E0072
:103AB0000000FF073E000000FF033E000000FF0182
:103AC0003E000000FF003E0000007F003E000000BE
:103AD0003F003E0000001F003E000000000000000C
:103AE00000000000000000000000000000000000D6
:103AF00000000000001C00000000001C000000008E
:103B0000001C00000000001C00000000003E00003F
:103B10000000007F000000FCFFF7FF1F00FEFFF722
:103B2000FF3F00FFFFF7FF7F00FFFFE3FF7F80FF06
:103B3000FF80FFFF8007000000F08003000000E02E
:103B40008003000000E08003000000E000000000AF
:103B50000000000000000000000000000000000065
:103B60000000000000000000000000000000000055
:103B700000000000000000000000000080FFFFFFC8
:103B8000FFFF80FFFFFFFFFF80FFFFFFFFFF80FFC2
:103B9000FFFFFFFF00000000000000000000000029
:103BA0000000000000000000000000008003000092
:103BB00000E08003000000E08003000000E08007D8
:103BC000000000F080FFFFC1FFFF00FFFFE3FF7F69
:103BD00000FFFFF7FF7F00FEFFF7FF3F00FCFFF74E
:103BE000FF1F0000007F00000000003E00000000FA
:103BF000001C00000000001C00000000001C000071
:103C00000000001C00000000000000000000000098
:103C100000000000000000000000000000000000A4
:103C20000000000000000000000000000000000094
:103C300000000000000000C00700000000F00700C6
:103C4000000000F80700000000FC07000000007CF6
:103C500000000000003E00000000001E0000000008
:103C6000001E00000000001E00000000003E0000DA
:103C70000000007C0000000000FC0000000000F8D4
:103C80000100000000E00300000000C00700000089
:103C9000008007000000008007000000008007008F
:103CA000000000C00700000000E00300000000FE6C
:103CB0000300000000FE0100000000FE0000000004
:103CC000003E00000000A00BEE0B2A0C6C0C260D31
:103CD000AA0D760E1E0F540FAE0FF60F6E10341194
:103CE0006A11B811EE113C12C0122613AA132E1439
:103CF000B8143C15C6154A16CE1652178E17CA1799
:103D00008A185019161A941A7E1B261CC81C761D78
:103D10001E1EB41E441FF21F9420CA204221F0210F
:103D200080224623E823A2243825F22594262A2738
:103D3000C0275C28FE28E229842A202BB62B102CD1
:103D4000882CCA2C902D0E2E442EC22E522FD62FE8
:103D50005A30DE302C31B0313A327032A632303344
:103D600066333834C2345235E2356636C0363E37B3
:103D7000863710389A385A39D8395C3ADA3A4C3B97
:103D8000943B063C080506110D15110408050B149B
:103D9000050705080D090D0D0D0D0D0D0D0D050582
:103DA0001314140C18101011110F0E1110040B1114
:103DB0000D1310120F12100F0E100F170F100F0807
:103DC0000B06140D040E0E0C0D0D070D0D04040C46
:103DD00004140D0E0E0D080B060D0B110C0D0B0B24
:103DE000070A1400000000000000000000000000AE
:103DF00000000000000000000000000000000000C3
:103E00000000000000000000000000000000008032
:103E1000FFCF0180FFCF0100000000000000008004
:103E20003F00000000000000000000803F00000094
:103E3000000000000000000000040000400400003A
:103E40004004010040E40100403C0000C0070000C5
:103E5000780401004FE40100413C0000C00700006D
:103E6000780400004F0400004104000040040000FA
:103E700040000000000000007C780000FEF8000018
:103E8000C6C0000083810100838101C0FFFF0700DD
:103E90008381010003830100068301000EC7000037
:103EA0000CFE0000007C0000000000003800000054
:103EB000FE000000C6000000830100008301030033
:103EC00083C10100C6600000FE380000380C00000D
:103ED00000030000800100006038000038FE000090
:103EE0000CC600000783010001830100008301006C
:103EF00000C6000000FE00000038000000000000C6
:103F0000007C000000FE00001EC70100BF8301808E
:103F1000E3810180C1810180C183018061870180CB
:103F200073CE00003FDC00001E7800000078000027
:103F300000DF000000C70100008001000000010058
:103F400000000080130000801B0000800F000000B4
:103F5000000000000000000000000000C0FF0000A2
:103F6000F8FF07003E001F800300708000004080C3
:103F700000004080030070003E001F00F8FF0700B3
:103F8000C0FF000000000000080000008C000000DE
:103F9000D8010000F80000803F0000803F000000D2
:103FA000F8000000D80100008C00000008000000AC
:103FB0000000000000000000000000000000000001
:103FC00000000000000200000002000000020000EB
:103FD00000020000000200000002000000020000D9
:103FE000FCFF0100000200000002000000020000CF
:103FF00000020000000200000002000000020000B9
:10400000000000000000000000C0110000C01D0002
:1040100000C00700000000000006000000060000CD
:104020000006000000060000000600000006000078
:10403000000000000000000000C0010000C00100FE
:1040400000C001000000060000C0070000F80000EA
:10405000001F0000E00300007C0000800F000080D3
:104060000100000000000000F01F0000FC7F0000C5
:104070001EF0000006C0000007C001000380010020
:104080000380010007C0010006C000001EF0000010
:10409000FC7F0000F01F0000000000000000000096
:1040A00000000000180000001800000018000000C8
:1040B0001C000000FFFF0100FFFF010000000000E6
:1040C00038E001003EF001000EB80100079C01003D
:1040D000038C0100038E01000386010003870100A9
:1040E0000783010086830100FE810100F880010042
:1040F00000000000103800001CF800001EE0000066
:1041000007C0010003800100838101008381010059
:1041100083810100C7C10100FEE300007CFF0000B5
:10412000003E000000000000001C0000001E000017
:10413000001B0000C0190000E0180000301800004B
:104140001C1800000E180000FFFF0100FFFF010017
:10415000001800000018000000000000803100007E
:10416000FFF10000FFE00000C3C001006380010018
:10417000638001006380010063800100E3C00100EF
:10418000C3E10000C3FF0000003F0000000000008A
:10419000E01F0000FC7F00009EE3000086C10100DC
:1041A000C3800100C3800100C3800100C3800100FF
:1041B000C3C1010086E300009EFF0000183E00001E
:1041C00000000000030000000300000003000000E6
:1041D00003C0010003FC0100033F0000C30700000F
:1041E000F30000007B0000001F0000000F00000033
:1041F0000300000000000000003C000038FE00004A
:104200007EC30000C6C301008381010083810100D9
:104210008381010083810100C6C301007EC30000C9
:1042200038FE0000003C000000000000F8300000F4
:10423000FEF300008EC30100078701000386010022
:1042400003860100038601000386010007C3010005
:104250008EF30000FC7F0000F00F00000000000063
:104260000000000070C0010070C0010070C00100BB
:10427000000000000000000070C0110070C01D00B0
:1042800070C00700000000000000000000000000F7
:104290000000000000000000000200000007000015
:1042A00000050000800D000080080000800800006C
:1042B000C018000040100000603000002020000006
:1042C00020200000306000001040000018C00000F6
:1042D00000000000000000000000000000000000DE
:1042E0000000000080080000800800008008000036
:1042F000800800008008000080080000800800009E
:10430000800800008008000080080000800800008D
:10431000800800008008000080080000800800007D
:10432000000000000000000000000000000000008D
:10433000000000000000000018C000001040000055
:1043400030600000202000002020000060300000CD
:1043500040100000C0180000800800008008000025
:10436000800D0000000500000007000000020000B2
:10437000000000001C0000001F000000070000807B
:104380000300008001CC018001CF018081CF01803A
:10439000C1010080E30000007F0000003E0000003B
:1043A00000000000801F0000E07F000078E00000B7
:1043B0000C8001000600030002000600031F040039
:1043C000C13F0C80E16008802040088010400880D8
:1043D0001040088010200880303C0880E07F0C806E
:1043E000E043048031400400014004000360020007
:1043F000063002000C1C0000F80F0000F003000063
:104400000000010000C0010000F80100003F0000B2
:10441000E00F0000FC0C00801F0C0080030C0080EB
:10442000030C00801F0C0000FC0C0000E00F0000DB
:10443000003F000000F8010000C001000000010082
:104440000000000000000080FFFF0180FFFF0180EE
:104450008181018081810180818101808181018050
:104460008181018081810180818101808181018040
:10447000C3C301007FC300007FFF0000003C0000B9
:1044800000000000F00F0000FC3F00001E7800005C
:1044900007E0000003C0008003C0018001800180AC
:1044A0000180018001800180018001800180018004
:1044B00003C0010003C0000007F000001E7C0000E4
:1044C000181C00000000000000000080FFFF0180B9
:1044D000FFFF018001800180018001800180018057
:1044E00001800180018001800180018001800180C4
:1044F00003C0010003C0000007E000001E780000B8
:10450000FC3F0000F00F00000000000000000080F1
:10451000FFFF0180FFFF0180818101808181018097
:10452000818101808181018081810180818101807F
:10453000818101808181018081810180818101806F
:10454000018001000000000000000080FFFF0180EA
:10455000FFFF0180810100808101008081010080D6
:104560008101008081010080810100808101008043
:104570008101008081010080010000000000000036
:10458000F00F0000FC3F00001E78000007E0000074
:1045900003C0008001C00180018001800180018092
:1045A00081810180818101808181018083C100003E
:1045B00083E100008F7100008EFF000088FF010082
:1045C0000000000000000080FFFF0180FFFF0100ED
:1045D000C0000000C0000000C0000000C0000000DB
:1045E000C0000000C0000000C0000000C0000000CB
:1045F000C0000000C0000080FFFF0180FFFF01003D
:104600000000000000000080FFFF0180FFFF0100AC
:104610000078000000F8000000C0010000800100E8
:104620000080010000800100008001000080010086
:1046300000C00180FFFF0080FF7F0000000000003D
:1046400000000080FFFF0180FFFF01000007000065
:1046500080030000C0010000E0010000F003000042
:10466000380700001C1E00000E3C00000770008090
:1046700003E0008001C00180008001000000010013
:104680000000000000000080FFFF0180FFFF01002C
:104690000080010000800100008001000080010016
:1046A0000080010000800100008001000080010006
:1046B000008001000000000000000080FFFF01807A
:1046C000FFFF0180070000003F000000F80100002C
:1046D000C00F0000007E000000F0010000C00100DB
:1046E00000F00100007E0000C00F0000F801000093
:1046F0003F00008007000080FFFF0180FFFF0100F6
:104700000000000000000080FFFF0180FFFF01802B
:10471000070000001E0000003C000000F000000048
:10472000E001000080070000000F0000003C0000D6
:104730000078000000E00180FFFF0180FFFF010022
:1047400000000000F00F0000FC3F00001E78000099
:1047500007E0000003C0008003C0018001800180E9
:104760000180018001800180018001800180018041
:1047700003C0010003C0000007E000001E78000035
:10478000FC3F0000F00F000000000000000000806F
:10479000FFFF0180FFFF0180810100808101008017
:1047A0008101008081010080810100808101008001
:1047B0008101008081010080C3010000FF00000032
:1047C0007E00000000000000F00F0000FC3F000031
:1047D0001E78000007E0000003C0008003C00180D5
:1047E00001800180018001800180018001900180B1
:1047F00001B8018003F0010003E0000007E00000C1
:104800001EF80100FCBF0300F00F010000000000D3
:1048100000000080FFFF0180FFFF01808101008018
:104820008101008081010080810100808101008080
:10483000810100808101008081010080810300806E
:10484000C30F0000FFFE01003EF801000000000061
:10485000000800003E7800007FF80000E3C0008000
:10486000C1C00180C1800180C1810180818101803E
:104870008181018081830100038301001FC7000043
:104880001EFE0000107C00800100008001000080FE
:104890000100008001000080010000800100008014
:1048A000FFFF0180FFFF0180010000800100008008
:1048B0000100008001000080010000800100000074
:1048C0000000000000000080FF3F0080FF7F00002C
:1048D00000E0000000C00100008001000080010035
:1048E00000800100008001000080010000800100C4
:1048F00000C0010000E00080FF7F0080FF3F0080DB
:1049000000000080070000803F000000F801000068
:10491000C00F0000007E000000F0010000C0010098
:1049200000F00100007E0000C00F0000F8010080D0
:104930003F00008007000080000000800000008031
:10494000070000807F000000FC070000C07F00001F
:1049500000FC010000C0010000FC0100C03F00009D
:10496000FC0300803F000080030000803F00000047
:10497000FC030000C03F000000FC010000C001007B
:1049800000FC0100C07F0000FC0700807F00008069
:10499000070000800000000000000180018001800D
:1049A00003E001000FF000001C3C0000780E000046
:1049B000E0070000C0010000E0070000780E0000E2
:1049C0001C3C00000FF0008003E00180018001002A
:1049D000000001800000008001000080070000004E
:1049E0000F0000003C00000070000000E00100002B
:1049F00080FF010080FF0100E00100007000000066
:104A00003C0000000F0000800700008001000080D3
:104A1000000000000000000000C0018001E00180F3
:104A200001F0018001B80180019C0180018F0180AB
:104A300081830180C1810180E180018079800180D2
:104A40001D8001800F8001800780018003800100AC
:104A5000000000000000000000000080FFFF3F8019
:104A6000FFFF3F80010030800100308001003000F6
:104A700000000000000000C0010000000F00000066
:104A800078000000C0030000001E000000F00000DD
:104A90000080070000003C00000060000000008073
:104AA000010030800100308001003080FFFF3F8036
:104AB000FFFF3F00000000000000000000000000B9
:104AC0000000000000000000200000003000000096
:104AD000180000000C000000060000000300008029
:104AE00001000080000000800100000003000000C1
:104AF000060000000C00000018000000300000005C
:104B000020000000000040000000400000004000C5
:104B10000000400000004000000040000000400095
:104B20000000400000004000000040000000400085
:104B30000000400000004000000000001F00008056
:104B40001D0000801C000000000000000078000034
:104B5000E0FC0000E0CC010030860100308601005E
:104B6000308601003086010030C60000704600002B
:104B7000E0FF0000C0FF0100008001000080010094
:104B80000000000000000080FFFF0180FFFF010027
:104B9000C060000060C0000070C0010030800100F3
:104BA0003080010070C0010060C00000E0F1000032
:104BB000C07F0000001F000000000000001F000078
:104BC000C07F0000E0F1000060C0000070C0010084
:104BD000308001003080010070C0010060C0000022
:104BE000E0F000008030000000000000001F000026
:104BF000C07F0000E0F1000060C0000070C0010054
:104C0000308001003080010070C0010060C00000F1
:104C1000C0600080FFFF0180FFFF01000000000076
:104C2000001F0000C07F0000E0F7000060C6000029
:104C300070C60100308601003086010070C6010098
:104C400060C60000E0E60000C0670000002700002A
:104C50003000000030000000FFFF0180FFFF0180F6
:104C600031000080310000803100000000000000B1
:104C7000001F0C00C07F3C00E0F0300060C07000FE
:104C800070C06100308061003080610070C06100E0
:104C900060C07000C0603800F0FF3F00F0FF0F0000
:104CA0000000000000000080FFFF0180FFFF010006
:104CB000C000000060000000300000003000000074
:104CC000300000003000000070000000E0FF010034
:104CD000C0FF01000000000000000080F3FF018021
:104CE000F3FF01000000600000006080F3FF7F80A0
:104CF000F3FF3F000000000000000000FFFF010084
:104D0000FFFF0100000E0000000700008007000008
:104D1000C01F0000E07C000070F0010030C0010006
:104D2000100001000000000000000080FFFF018073
:104D3000FFFF01000000000000000000F0FF010084
:104D4000F0FF0100C0000000600000003000000023
:104D5000300000003000000070000000E0FF0100A3
:104D6000C0FF0100E0000000600000003000000013
:104D7000300000003000000070000000E0FF010083
:104D8000C0FF01000000000000000000F0FF010073
:104D9000F0FF0100C00000006000000030000000D3
:104DA0003000000030000000300000007000000003
:104DB000E0FF0100C0FF010000000000001F000034
:104DC000C07F0000E0F1000060C0000070C0010082
:104DD00030800100308001003080010070C001008F
:104DE00060C00000E0F10000C07F0000001F000074
:104DF0000000000000000000F0FF3F00F0FF3F0057
:104E0000C060000060C0000070C001003080010080
:104E10003080010070C0010060C00000E0F10000BF
:104E2000C07F0000001F000000000000001F000005
:104E3000C07F0000E0F1000060C0000070C0010011
:104E4000308001003080010070C0010060C00000AF
:104E5000C0600000F0FF3F00F0FF3F0000000000D6
:104E600000000000F0FF0100F0FF01006000000002
:104E700030000000300000003000000000000000A2
:104E8000C0610000E0E3000070C601003086010050
:104E900030860100308E0100308C010060CC0100B2
:104EA000E0FC0000807800003000000030000000CE
:104EB000FFFF0000FFFF0100308001003080010093
:104EC0000000000000000000F07F0000F0FF000084
:104ED00000C001000080010000800100008001008E
:104EE0000080010000C0000000600000F0FF010031
:104EF000F0FF010030000000F0010000C00F0000D2
:104F0000007E000000F0010000C0010000F0010080
:104F1000007E0000C00F0000F00100003000000023
:104F200070000000F0070000803F000000F8010062
:104F300000C0010000F80100803F0000F003000005
:104F400030000000F0030000803F000000F8010086
:104F500000C0010000F80100803F0000F0070000E1
:104F600070000000000000003080010070C00100EF
:104F7000E0F10000803B0000001F0000000E000078
:104F8000001F0000803B0000E0F1000070C0010045
:104F9000308001001000000070006000F00360002D
:104FA000801F600000FC700000E03F0000001F0058
:104FB00000E0070000FC0000801F0000F00300007C
:104FC00070000000100000000000000030C0010070
:104FD00030E0010030F0010030B80100309E0100E7
:104FE000308F0100B0830100F0810100F0800100EA
:104FF00070800100000000000000000000000000C0
:105000000004000000040000000E0080FFFB3FC011
:10501000FFF17FC000006040000040400000400001
:105020000000000000000000000000000000000080
:10503000000000C0FFFF7FC0FFFF7F0000000000F6
:105040000000004000004040000040C0000060C080
:10505000FFF17F80FFFB3F00000E00000004000016
:10506000000400000000000000000000000000003C
:1050700000000000000000000E000000030000809F
:10508000010000800000008000000080010000009E
:105090000300000002000000060000000C000000F9
:1050A00008000000080000000C000000060000805E
:1050B000030000E33D033E173E2F3E733EA73EFB39
:1050C0003E3F3F4F3F6F3F833FAF3FFF3F13402F78
:1050D00040434063409740BB40EF40234157418BE2
:1050E00041BF41F34127425B426F428342CF421F9F
:1050F000436F439F43FF433F447F44C344074543BB
:10510000457B45BF45FF450F463B467F46B346FFBF
:10511000463F478747C3470B484B488748BF48FF30
:10512000483B499749D349134A4F4A6F4A9B4AB370
:105130004A034B374B474B7F4BB74BE74B1B4C4F0F
:105140004C6B4C9F4CD34CE34CF34C234D334D8371
:105150004DB74DEF4D274E5B4E7B4EA74EBF4EF3E6
:105160004E1F4F634F934FC74FF34F1F503B50633A
:10517000500D0C0E251725250B130F16290A0E0AA4
:105180000E171617161717171817170B0B2728289F
:10519000152F221F2123201D2525111727202D2300
:1051A000251E25241B1E23223023231F13180E28FF
:1051B000190B191A151B1514181B0E101D0E281B80
:1051C000181A1B1613101B1822181815140F15285F
:1051D00000000000000000000000000000000000CF
:1051E00000000000000000000000000000000000BF
:1051F00000000000000000000000000000000000AF
:10520000000000000000000000000000000000009E
:10521000000000000000000000000000000000008E
:10522000000000000000000000000000000000007E
:10523000000000000000000000000000000000006E
:10524000000000000000000000000000000000005E
:10525000000000000000000000007E0000F00000E0
:105260000000FF0700F801000080FF7F00FC030042
:105270000080FFFF1FFC03000080FFFF1FFC0300F6
:105280000080FF7F00FC03000000FF0700F8010022
:1052900000007E0000F000000000000000000000A0
:1052A000000000000000000000001F0000000000DF
:1052B0000080FF07000000000080FF3F00000000AA
:1052C0000080FF070000000000001F000000000039
:1052D00000000000000000000000000000000000CE
:1052E00000001F00000000000080FF070000000019
:1052F0000080FF3F000000000080FF07000000006A
:1053000000001F000000000000000000000000007E
:10531000000000000000000000000000C0000000CD
:1053200000000000F000000000000000F00000009D
:1053300000000000F000000000000018F00007006E
:105340000000001EF0E007000000001EF0FC070057
:105350000000001EF0FF07000000001EF0FF01002B
:105360000000001EFE3F0000000000DEFF070000FE
:10537000000000FEFF000000000000FEFF00000033
:105380000000C0FFF30000000000F87FF000000004
:105390000000FF1FF000070000C0FF1FF0E0070043
:1053A00000C03F1EF0FC070000C0071EF0FF070012
:1053B00000C0001EF0FF01000000001EFE3F0000C4
:1053C000000000DEFF070000000000FEFF000000FC
:1053D000000000FEFF0000000000C0FFF30000001E
:1053E0000000F87FF00000000000FF1FF000000048
:1053F00000C0FF1FF000000000C03F1EF0000000D2
:1054000000C0071EF000000000C0001E30000000B9
:105410000000001E000000000000001E0000000050
:105420000000001E00000000000000060000000058
:1054300000000000000000000000E0070000000085
:105440000000F81FC07F00000000FC3F007F00004C
:105450000000FE7F00FC00000000FFFF00F00000E5
:10546000000087FF00E00100008003FE01C0010092
:10547000008001FE03800100008001FC0380010028
:1054800000F0FFFFFFFF3F0000F0FFFFFFFF3F00C6
:1054900000F0FFFFFFFF3F00008001F00F800100E0
:1054A000008001F01F800100008003E01FC00100A8
:1054B000000003E03FE00000000007C0FFF0000034
:1054C00000000FC0FF7F000000003E80FF3F000093
:1054D0000000FE00FF3F000000000000FE0F000083
:1054E00000000000F80300000000000000000000C1
:1054F0000000003F000000000000E0FF000000008E
:105500000000F8FF010000000000FCFF01000000A7
:105510000000FEFF030000000000FFEF030000009A
:1055200000007F800300000000801F0003000200D5
:1055300000800700038003000080038001E0030077
:10554000008003C001F80100008003E0007E00003D
:1055500000000370001F000000000E1EC0070000C6
:105560000000FC03F001000000000C00FC00000043
:1055700000000C003E00000000000C800F00000046
:1055800000000CE00300000000000CF80100000027
:1055900000000C7E0000000000000C1F003F000017
:1055A0000000CC07E0FF00000000F601F8FF01005A
:1055B0000000FE00FCFF010000003E00FEFF0300B3
:1055C00000000F00FFEF0300008007007F80030052
:1055D000008001801F00030000000080070003001E
:1055E00000000080038001000000008003C0010073
:1055F0000000008003E000000000000003700000D5
:10560000000000000E1E000000000000FC0300006F
:10561000000000000000000000000000000000008A
:1056200000000000C00F000000000000F03F00007C
:1056300000000000F87F000000000000FCFF0000F8
:1056400000000000FEFF010000000000FEFF01005E
:1056500000000000FFFF03000000E08303FF0300E1
:105660000000F89F01FC03000000FCFF00F00300B5
:105670000000FEFF00F003000000FFFF01E0030058
:105680000000FFFF07E003000000C3FF0FC00100A0
:10569000008001FF3FC00100008001FC7FC00100CD
:1056A000008001F8FFC00000008001F8FFE3000067
:1056B000008003DCFF67000000800F8EFF3F0000CA
:1056C0000080FF0FFE3F00000000FF07FC7F00008E
:1056D0000000FF03F8FF00000000FE01E0FF0100F2
:1056E00000007C00C0FF010000000020C0FF03009C
:1056F00000000020E0FE03000000002078FC030012
:10570000000000601EF80300000000E00FF003003E
:10571000000000E003E00100000000E000E0010004
:105720000000006000E000000000002000700000A9
:105730000000002000180000000000000000000031
:105740000000000000000000000000000000000059
:1057500000001E400000000000003F20000000008C
:1057600000807F300000000000807F1800000000F3
:1057700000807F0E000000000080FF070000000096
:105780000000FF03000000000000FE000000000019
:105790000000000000000000000000000000000009
:1057A00000000000000000000000000000000000F9
:1057B00000000000FF010000000000F0FF1F0000DB
:1057C000000000FCFF7F0000000000FFFFFF010061
:1057D0000000C0FFFFFF07000000E0FFFFFF0F0019
:1057E0000000F00300801F000000780000003C0073
:1057F00000001C000000700000000E000000E0002F
:10580000000006000000C00000000300000080014E
:105810000000010000000001008001000000000302
:105820000080000000000002008000000000000274
:1058300000800100000000030000010000000001E2
:105840000000030000008001000006000000C0000E
:1058500000000E000000E00000001C0000007000CE
:105860000000780000003C000000F00300801F00F2
:105870000000E0FFFFFF0F000000C0FFFFFF070078
:10588000000000FFFFFF0100000000FCFF7F0000A0
:10589000000000F0FF1F000000000000FF010000FA
:1058A00000000000000000000000000000000000F8
:1058B00000000000000000000000F0F00000000008
:1058C0000000F8F0010000000000F8F901000000FD
:1058D0000000F8F9010000000000F0F900000000ED
:1058E0000000E079000000000000C0390000000066
:1058F000000007090E00000000803FC61F000000E6
:105900000080FFFF1F00000000803FC61F00000056
:10591000000007090E0000000000C0390000000070
:105920000000E079000000000000F0F90000000035
:105930000000F8F9010000000000F8F90100000083
:105940000000F8F0010000000000F0F0000000008E
:105950000000000000000000000000000000000047
:105960000000000000000000000000000000000037
:105970000000000000000000000000000000000027
:105980000000000000000000000000000000000017
:105990000000000000000000000000000000000007
:1059A000000000800F000000000000800F000000D9
:1059B000000000800F000000000000800F000000C9
:1059C000000000800F000000000000800F000000B9
:1059D000000000800F000000000000800F000000A9
:1059E000000000800F000000000000800F00000099
:1059F000000000800F000000000000800F00000089
:105A0000000000800F0000000000FCFFFFFF01000D
:105A10000000FCFFFFFF01000000FCFFFFFF010092
:105A20000000FCFFFFFF01000000FCFFFFFF010082
:105A3000000000800F000000000000800F00000048
:105A4000000000800F000000000000800F00000038
:105A5000000000800F000000000000800F00000028
:105A6000000000800F000000000000800F00000018
:105A7000000000800F000000000000800F00000008
:105A8000000000800F000000000000800F000000F8
:105A9000000000800F000000000000000000000077
:105AA00000000000000000000000000000F0000204
:105AB0000000000000F801010000000000FC83016C
:105AC0000000000000FCC3000000000000FC7300A8
:105AD0000000000000FC3F000000000000F81F0074
