:100000000C9434000C9451000C9451000C94510049
:100010000C9451000C9451000C9451000C9451001C
:100020000C9451000C9451000C9451000C9451000C
:100030000C9451000C9451000C9451000C945100FC
:100040000C9451000C9451000C9429010C94510013
:100050000C9451000C9451000C9451000C945100DC
:100060000C9451000C94510011241FBECFEFD8E026
:10007000DEBFCDBF11E0A0E0B1E0E6E7FBE002C0EB
:1000800005900D92AA31B107D9F711E0AAE1B1E0CC
:1000900001C01D92AE3EB107E1F70E946C000C94C6
:1000A000B9050C947501289AE0E8F0E0808180643D
:1000B0008083E1E8F0E080818C608083EFE6F0E00F
:1000C00080818260808383E294EF909389008093A3
:1000D00088000895805308955F926F927F928F9267
:1000E0009F92AF92BF92CF92DF92EF92FF920F93C7
:1000F0001F93DF93CF93CDB7DEB760970FB6F89419
:10010000DEBF0FBECDBF8091680082608093680023
:1001100080916C00826080936C001092DF010E94DD
:10012000530089E190E00E948602789400D080E03C
:1001300091E0ADB7BEB712969C938E9311970E9433
:10014000B9020F900F908E010F5F1F4F46E0842E73
:1001500041E0942E34E0E32EF12CEC0EFD1E23E062
:10016000C22ED12CCC0EDD1E97E0A92EB12CAC0EE8
:10017000BD1E86E0682E712C6C0E7D1E5524539496
:1001800080911901882309F05AC0C8016FED71E010
:100190000E94D80220E044C0F801E80FF91F308126
:1001A0003334E9F500D000D000D0EDB7FEB731967A
:1001B000ADB7BEB712969C928E921197D701A80F39
:1001C000B91F4C914053D601A80FB91F3C91305331
:1001D000330F532F550F550F530F450F4283138283
:1001E000D501A80FB91F3C913053860D971DDC0136
:1001F0008C918053880F982F990F990F980F390F72
:1002000034831582288B0E94B90228892A5FEDB7B2
:10021000FEB736960FB6F894FEBF0FBEEDBF2F5F48
:10022000F80101900020E9F73197E01BF10B822FD4
:1002300090E08E179F0708F4AFCF509219018FEF0F
:1002400093EDA0E381509040A040E1F700C0000092
:1002500097CF1F920F920FB60F9211242F933F93B7
:100260004F935F936F937F938F939F93AF93BF93BE
:10027000EF93FF938091C00087FFFCCF8091C60071
:10028000E0E00EC08A3081F1AE2FB0E0A152BE4F47
:100290008C93EF5F8091C00087FFFCCF8091C600F8
:1002A0008B3381F7F0E0E152FE4F1082109219017A
:1002B00000D08FED91E0EDB7FEB7928381830E946D
:1002C000B9020F900F90FF91EF91BF91AF919F9165
:1002D0008F917F916F915F914F913F912F910F90EF
:1002E0000FBE0F901F901895FFCF1F920F920FB661
:1002F0000F9211240F900FBE0F901F901895203F62
:1003000029F42398249A5598259804C0239A249870
:10031000259A559A4115510511F050EC01C050E451
:100320006295660F607E203F11F040E101C040E021
:1003300090E081FF02C038E001C030E08170907031
:10034000880F991F880F991F862B922F9270892BE7
:10035000922F9170892B852B842B832B8CBD81E070
:1003600022FF80E08DBD08951CBC08955D988EBD70
:100370000DB407FEFDCF5D9A8EB508955D988EBDD4
:100380000DB407FEFDCF5D9A8EB508951F920F92B2
:100390000FB60F9211242F938F939F93EF93FF9398
:1003A0008091C0009091C600E0913C01EF5FEF7139
:1003B00020913D01E21741F08871E0933C01F0E0AB
:1003C000E25CFE4F908301C082E080935E01FF916A
:1003D000EF919F918F912F910F900FBE0F901F90D3
:1003E00018951F920F920FB60F9211248F939F931F
:1003F000EF93FF9390911A0180911B01981769F078
:10040000E0911B01EF5FEF71E0931B01F0E0E45E10
:10041000FE4F80818093C60005C08091C1008F7D12
:100420008093C100FF91EF919F918F910F900FBE2C
:100430000F901F90189510921A0110921B011092A4
:100440003C0110923D0197FF04C022E02093C000C0
:100450009F779093C5008093C40088E98093C10082
:1004600086E08093C200089590913C0180913D0107
:10047000981789F0E0913D01EF5FEF71E0933D0146
:10048000F0E0E25CFE4F808190915E01392F20E028
:10049000280F311D02C020E031E0C901089590917C
:1004A0001A019F5F9F7120911B019217E1F3E92FC1
:1004B000F0E0E45EFE4F808390931A018091C100CA
:1004C00080628093C1000895EF92FF92CF93DF93F3
:1004D000E82EE7017E01F92EE70102C00E944F02DB
:1004E00089918823D9F7DF91CF91FF90EF900895FC
:1004F000CF93DF93EC0102C00E944F02FE012196D0
:1005000084918823C9F7DF91CF9108952AB12360A0
:100510002AB99093C5008093C40088E98093C100F4
:1005200086E08093C20008959091C00095FFFCCFB3
:100530008093C600089580E00895EF92FF920F9394
:100540001F93CF93DF937B01082F192FC0E0D0E0DA
:1005500006C0F80181918F010E9494022196CE1568
:10056000DF05BCF3DF91CF911F910F91FF90EF90CA
:100570000895EF92FF920F931F93DF93CF93CDB720
:10058000DEB7FE013996619171910FE511E0C80166
:10059000AF010E94DF027C01C801B7010E949D02E9
:1005A000C701CF91DF911F910F91FF90EF900895B8
:1005B000FB01DC0101900D920020E1F70895AEE00F
:1005C000B0E0E5EEF2E00C9490058C0186E08C83BF
:1005D0001A8309838FEF9FE79E838D83CE01019657
:1005E0000E94FB02EF81F885E00FF11F10822E962A
:1005F000E4E00C94AC05ACE0B0E0E1E0F3E00C9496
:1006000082056C011B018A01FC011782168283811D
:1006100081FFD1C12E010894411C511CF601938128
:10062000F10193FD859193FF81911F01882309F4C6
:10063000BEC1853239F493FD859193FF81911F01ED
:10064000853229F490E0B6010E94F804E7CFEE2449
:10065000FF2420E02032B0F48B3269F08C3228F491
:10066000803251F0833271F40BC08D3239F0803317
:1006700049F421602CC02260246029C0286027C072
:10068000206125C027FD2CC0382F30533A3098F414
:1006900026FF08C08E2D880FE82EEE0CEE0CE80E1B
:1006A000E30E15C08F2D880FF82EFF0CFF0CF80EEF
:1006B000F30E20620CC08E3221F426FD78C1206436
:1006C00006C08C3611F4206802C0883649F4F10166
:1006D00093FD859193FF81911F01882309F0BACF83
:1006E000982F9554933018F09052933028F40C5F63
:1006F0001F4FFFE3F9830DC0833631F0833771F06C
:10070000833509F060C022C0F801808189830E5FC3
:100710001F4F420171E0A72EB12C16C062E0662E79
:10072000712C600E711EF8018080918026FF03C03D
:100730006E2D70E002C06FEF7FEFC4012C870E9426
:10074000ED045C0183012C852F7717C052E0652EE4
:10075000712C600E711EF8018080918026FF03C00D
:100760006E2D70E002C06FEF7FEFC4012C870E94F6
:10077000E2045C012C852068830123FD20C008C0B1
:1007800080E290E0B6012C870E94F804FA942C8550
:100790008F2D90E0A816B90698F311C0F40127FD3B
:1007A000859127FF81914F0190E0B6012C870E942F
:1007B000F8042C85F110FA940894A108B108A1144A
:1007C000B10461F7F1C0843611F0893649F527FF8D
:1007D00008C0F80160817181828193810C5F1F4F95
:1007E00009C0F80160817181882777FD8095982F75
:1007F0000E5F1F4F4FE6B42EB22297FF09C09095AF
:100800008095709561957F4F8F4F9F4FF0E8BF2A7D
:10081000A2012AE030E00E942405782E741845C019
:10082000853731F43FEEB32EB2222AE030E025C006
:1008300099EFB92EB2228F36C1F0803720F4883577
:1008400009F0B5C00DC0803721F0883709F0AFC07E
:1008500002C020E1B22AB4FE0BC084E0B82A08C06E
:10086000B4FE09C0E6E0BE2A06C028E030E005C0BC
:1008700020E130E002C020E132E0B7FE08C0F8011C
:1008800060817181828193810C5F1F4F07C0F801E5
:100890006081718180E090E00E5F1F4FA2010E9495
:1008A0002405782E7418FFE7BF22B6FE0BC02EEF8A
:1008B000B2227E1438F4B4FE07C0B2FC05C08FEE3D
:1008C000B82202C0A72C01C0AE2C8B2D90E0B4FE44
:1008D0000DC0FE01E70DF11D2081203319F4E9EE72
:1008E000BE2209C0A394B2FE06C004C086789070F0
:1008F000009709F0A3948B2C9924B3FC14C0B0FE8C
:100900000FC0AF1428F4E72CEF0CEA18AF2C08C086
:10091000E72C06C080E290E0B6010E94F804A394A0
:10092000AF14C0F304C0AF1410F4FA1801C0FF24D0
:1009300084FE0FC080E390E0B6010E94F80482FEBE
:100940001FC081FE03C088E590E010C088E790E0FA
:100950000DC0C40186789070009791F081FC02C0B0
:1009600080E201C08BE2B7FC8DE290E0B6010E940C
:10097000F80406C080E390E0B6010E94F804EA940F
:100980007E14C0F37A94F201E70DF11D808190E0AE
:10099000B6010E94F8047720A9F706C080E290E033
:1009A000B6010E94F804FA94FF20C1F737CEF60191
:1009B0002681378102C02FEF3FEFC9012C96E2E17B
:1009C0000C949E05FC010590615070400110D8F711
:1009D000809590958E0F9F1F0895FC016150704087
:1009E00001900110D8F7809590958E0F9F1F089564
:1009F0000F931F93CF93DF938C01EB018B8181FFCA
:100A00001BC082FF0DC02E813F818C819D812817E4
:100A1000390764F4E881F9810193F983E88306C01A
:100A2000E885F985802F0995009731F48E819F81A3
:100A300001969F838E8302C00FEF1FEFC801DF91E5
:100A4000CF911F910F910895FA01AA27283051F1F3
:100A5000203181F1E8946F936E7F6E5F7F4F8F4FEF
:100A60009F4FAF4FB1E03ED0B4E03CD0670F781F4E
:100A7000891F9A1FA11D680F791F8A1F911DA11D33
:100A80006A0F711D811D911DA11D20D009F468946C
:100A90003F912AE0269F11243019305D3193DEF614
:100AA000CF010895462F4770405D4193B3E00FD0CA
:100AB000C9F7F6CF462F4F70405D4A3318F0495DB5
:100AC00031FD4052419302D0A9F7EACFB4E0A69598
:100AD0009795879577956795BA95C9F700976105BA
:100AE000710508959B01AC010A2E06945795479510
:100AF00037952795BA95C9F7620F731F841F951F05
:100B0000A01D08952F923F924F925F926F927F9215
:100B10008F929F92AF92BF92CF92DF92EF92FF920D
:100B20000F931F93CF93DF93CDB7DEB7CA1BDB0BB9
:100B30000FB6F894DEBF0FBECDBF09942A8839885E
:100B400048885F846E847D848C849B84AA84B98465
:100B5000C884DF80EE80FD800C811B81AA81B98171
:100B6000CE0FD11D0FB6F894DEBF0FBECDBFED0185
:060B70000895F894FFCF88
:100B7600537461727400436C6F636B2073657420E9
:0A0B8600746F2025643A2564000115
:00000001FF
