:100000000C9434000C9484010C9451000C94A601BF
:100010000C9451000C94C6010C9451000C945100A6
:100020000C9451000C9451000C9451000C9451000C
:100030000C9451000C9451000C9439010C94510013
:100040000C9451000C9451000C9493010C945100A9
:100050000C9451000C9451000C9451000C945100DC
:100060000C9451000C94510011241FBECFEFD8E026
:10007000DEBFCDBF11E0A0E0B1E0ECE0F4E002C0F3
:1000800005900D92A231B107D9F711E0A2E1B1E0DC
:1000900001C01D92AE31B107E1F70E94CB000C9474
:1000A00004020C94000007C0EFE9FFE03197F1F77C
:1000B00000C0000001970097B9F70895EF92FF92F2
:1000C0000F931F93CF93DF93EC0109900020E9F782
:1000D0002197C81BD90BE82EF92E00E010E007C0CD
:1000E000F70181917F010E94FB010F5F1F4F0C17E9
:1000F0001D07B4F3DF91CF911F910F91FF90EF9007
:10010000089592E897BD88BD84B5826884BD85B5A1
:10011000826085BD83E080936E000895E9E6F0E09B
:1001200080818A6080838DB383608DBB85E08093FE
:10013000680080E180936D0081E080936B000895FA
:10014000F89487BD78940895219A22E8209380003E
:100150002DE120938100909387008093860008957D
:10016000CF93DF93C1E8D0E02881256028832FE179
:1001700030E030938900209388000E9453008881EA
:10018000887F88838FE39CE90197F1F700C0000026
:10019000DF91CF910895CF93DF9320988FEF87B9A8
:1001A000569A81E490E00E94810087E690E00E94E8
:1001B000ED0184E690E090930F0180930E01789416
:1001C00081E30E94FB0180E091E00E945E008AE0F2
:1001D00090E090930F0180930E0188B92FEF31EEDC
:1001E00044E0215030404040E1F700C0000001965B
:1001F0008A35910571F7CAE5D0E0D0930F01C0931D
:100200000E01C8B980E190E00E94B0008FEF99EF35
:10021000A0E081509040A040E1F700C0000021978D
:10022000CA30D10551F7CCCFCF93DF93C1E8D0E0EE
:1002300028812560288320E130E0309389002093D5
:1002400088000E9453008881887F88838FE39CE91F
:100250000197F1F700C00000DF91CF9108958DE57F
:100260008CBD08958EBD0DB407FEFDCF8EB50895EB
:1002700008951F920F920FB60F9211242F933F9360
:100280004F935F936F937F938F939F93AF93BF939E
:10029000EF93FF9380911001813029F52091120195
:1002A0003091130180910E0190910F0128173907A9
:1002B00068F05E9A8AE18A95F1F700C05E98109224
:1002C000130110921201109210010DC085E091E00F
:1002D0000E945E008091120190911301019690930B
:1002E000130180931201FF91EF91BF91AF919F9104
:1002F0008F917F916F915F914F913F912F910F90CF
:100300000FBE0F901F9018951F920F920FB60F926D
:1003100011248F9381E0809310018F910F900FBE75
:100320000F901F9018951F920F920FB60F921124E5
:100330008F938091C00087FFFCCF81E080931401F0
:100340008F910F900FBE0F901F9018951F920F92D4
:100350000FB60F9211248F939F93AF93BF93189969
:1003600002C0409A01C040988FEF93EDA0E3815006
:100370009040A040E1F700C00000BF91AF919F9175
:100380008F910F900FBE0F901F9018951F920F9294
:100390000FB60F9211248F939F93AF93BF934B9BF4
:1003A00013C08091160190911701A0911801B0918E
:1003B00019010196A11DB11D80931601909317019B
:1003C000A0931801B0931901BF91AF919F918F91A4
:1003D0000F900FBE0F901F9018952AB123602AB975
:1003E0009093C5008093C40088E98093C10086E0A3
:1003F0008093C20008959091C00095FFFCCF809338
:0C040000C600089580E00895F894FFCF36
:10040C007465737400476F7420486572650014003E
:02041C000100DD
:00000001FF
