:100000000C9434000C94D8000C9451000C945100C2
:100010000C9451000C9451000C9451000C9451001C
:100020000C9451000C9451000C9451000C9451000C
:100030000C9451000C9451000C9451000C949E00AF
:100040000C9451000C9451000C948B000C945100B2
:100050000C9451000C9451000C9451000C945100DC
:100060000C9451000C94510011241FBECFEFD8E026
:10007000DEBFCDBF11E0A0E0B1E0E8EFF1E002C0EB
:1000800005900D92A430B107D9F711E0A4E0B1E0DA
:1000900001C01D92A730B107E1F70E946A000C94DD
:1000A000FA000C9400009FEF97BD88BD569A84B566
:1000B000806884BD84B5836084BD85B5826085BD5C
:1000C00085E080936E0008955A9A82E080936900DB
:1000D000E89A089581E084B988E08AB9529828980E
:1000E0005B9A81E490E00E9453000E94640088E2E1
:1000F00090E09093010180930001789481E090E07A
:100100008093060101968F3F9105C4F7F9CFF894CB
:1001100087BD789408951F920F920FB60F92112405
:100120008F938091C00087FFFCCF81E08093060110
:100130008F910F900FBE0F901F9018951F920F92E6
:100140000FB60F9211242F933F938F939F9380911B
:100150000201813021F52091040130910501809147
:100160000001909101012817390780F05B98289AC7
:100170008FEF99EF0197F1F700C0000028981092D7
:100180000501109204011092020109C0809104013E
:1001900090910501019690930501809304019F9130
:1001A0008F913F912F910F900FBE0F901F90189538
:1001B0001F920F920FB60F9211248F9381E08093BC
:1001C00002018F910F900FBE0F901F901895909382
:1001D000C5008093C40088E98093C10086E08093C5
:1001E000C20008959091C00095FFFCCF8093C60097
:0801F00008950895F894FFCF73
:0401F80014000100EE
:00000001FF
