:100000000C9434000C943E020C9451000C94750234
:100010000C9451000C94C5030C9451000C945100A5
:100020000C9451000C9451000C9451000C9451000C
:100030000C9451000C9451000C94FE000C9451004F
:100040000C9451000C9451000C9453020C945100E8
:100050000C9451000C9451000C9451000C945100DC
:100060000C9451000C94510011241FBECFEFD8E026
:10007000DEBFCDBF11E0A0E0B1E0E6ECFBE002C0E6
:1000800005900D92A430B107D9F711E0A4E0B1E0DA
:1000900001C01D92A830B107E1F70E9453000C94F3
:1000A000E1050C940000DF93CF93CDB7DEB787E274
:1000B00090E02FEFFC0120838AE290E02AE230E01A
:1000C000F90120812064FC01208384E290E0FC019E
:1000D00010828BE290E02BE230E0F90120812F7B4F
:1000E000FC0120838BE290E02BE230E0F9012081DB
:1000F0002064FC01208381E490E00E9496000E942D
:10010000C30088E391E00E94E1038AE090E09093CD
:10011000010180930001789488E290E028E230E0C9
:10012000F90120812E7FFC012083F6CFDF93CF934E
:1001300000D0CDB7DEB79A83898387E490E022E8C8
:10014000FC01208388E490E02981FC01208384E481
:1001500090E024E430E0F90120812268FC01208352
:1001600085E490E025E430E0F90120812260FC0183
:1001700020838EE690E023E0FC0120830F900F9017
:10018000CF91DF910895DF93CF93CDB7DEB789E6A6
:1001900090E029E630E0F90120812A60FC0120830B
:1001A0008DE390E02DE330E0F90120812360FC0134
:1001B000208388E690E025E0FC0120838DE690E036
:1001C00020E1FC0120838BE690E021E0FC0120830C
:1001D000CF91DF910895DF93CF9300D0CDB7DEB7F5
:1001E0009A838983F89487E490E02981FC01208335
:1001F00078940F900F90CF91DF9108951F920F92F6
:100200000FB60F9211240F931F932F933F934F9389
:100210005F936F937F938F939F93AF93BF93EF936E
:10022000FF93DF93CF93CDB7DEB76897DEBFCDBF27
:1002300080910201813009F009C1209104013091BF
:10024000050180910001909101012817390708F4F8
:10025000EEC08BE290E02BE230E0F90120812064D7
:10026000FC01208380E090E0A0EAB0E489839A83D7
:10027000AB83BC8369817A818B819C812BEA3AEACA
:100280004AEA50E40E947E05DC01CB018D839E8307
:10029000AF83B88711E06D817E818F81988520E0E2
:1002A00030E040E85FE30E946D0488230CF010E02A
:1002B000112319F081E08987A3C011E06D817E814F
:1002C0008F81988520E030E04FE753E40E947A0563
:1002D00018160CF010E0112309F489C069817A81A5
:1002E0008B819C8120E030E04AE754E40E94710455
:1002F000DC01CB018A879B87AC87BD876A857B85BC
:100300008C859D8520E030E04AE755E40E947E051B
:10031000DC01CB018E879F87A88BB98B11E06E859E
:100320007F858889998920E030E040E85FE30E947A
:100330006D0488230CF010E0112329F081E090E097
:100340009B8B8A8B46C011E06E857F858889998951
:1003500020E03FEF4FE757E40E947A0518160CF0B3
:1003600010E0112361F16A857B858C859D8520E0F5
:1003700030E040E251E40E947E05DC01CB01BC018B
:10038000CD010E94D904DC01CB019B8B8A8B12C06A
:1003900080E991E09D8B8C8B8C899D898C01C801B3
:1003A0000197F1F78C011D8B0C8B8A899B89019732
:1003B0009B8B8A8B8A899B89009751F728C06E8511
:1003C0007F85888999890E94D904DC01CB019B8BA8
:1003D0008A8B8A899B899F8B8E8B8E899F898C01C2
:1003E000F8013197F1F78F011F8B0E8B10C06D81D3
:1003F0007E818F8198850E94D904DC01CB01898799
:100400008985888F888D182F1A95F1F7188F8BE2C0
:1004100090E02BE230E0F90120812F7BFC0120836A
:100420001092050110920401109202010FC08091F8
:10043000040190910501009749F080910401909189
:100440000501019690930501809304016896DEBF33
:10045000CDBFCF91DF91FF91EF91BF91AF919F9170
:100460008F917F916F915F914F913F912F911F914C
:100470000F910F900FBE0F901F9018951F920F9223
:100480000FB60F9211248F93DF93CF93CDB7DEB7C2
:1004900081E080930201CF91DF918F910F900FBE89
:1004A0000F901F9018951F920F920FB60F92112464
:1004B0008F939F93EF93FF93DF93CF93CDB7DEB7E7
:1004C000000080EC90E0FC0180818823D4F781E07B
:1004D00080930601CF91DF91FF91EF919F918F91D2
:1004E0000F900FBE0F901F9018951F920F920FB68E
:1004F0000F9211240F931F932F933F934F935F936A
:100500006F937F938F939F93AF93BF93EF93FF93DB
:10051000DF93CF93CDB7DEB76C97DEBFCDBF83E25D
:1005200090E0FC018081882F90E0817090700097AE
:1005300009F08AC088E290E028E230E0F9012081E9
:100540002160FC01208380E090E0AAE7B4E4898385
:100550009A83AB83BC8369817A818B819C8120E003
:1005600030E04AE755E40E947E05DC01CB018D8333
:100570009E83AF83B88711E06D817E818F819885DE
:1005800020E030E040E85FE30E946D0488230CF037
:1005900010E0112329F081E090E09A87898746C016
:1005A00011E06D817E818F81988520E03FEF4FE7DC
:1005B00057E40E947A0518160CF010E0112361F13F
:1005C00069817A818B819C8120E030E040E251E4B6
:1005D0000E947E05DC01CB01BC01CD010E94D90443
:1005E000DC01CB019A87898712C080E991E09C8762
:1005F0008B878B859C858C01C8010197F1F78C0155
:100600001C870B8789859A8501979A8789878985B1
:100610009A85009751F7A1C06D817E818F81988561
:100620000E94D904DC01CB019A87898789859A8544
:100630009E878D878D859E858C01F8013197F1F716
:100640008F011E870D8789C088E290E028E230E0A4
:10065000F90120812E7FFC01208380E090E0AAE751
:10066000B4E48F87988BA98BBA8B6F857889898939
:100670009A8920E030E04AE755E40E947E05DC01DB
:10068000CB018B8B9C8BAD8BBE8B11E06B897C89F6
:100690008D899E8920E030E040E85FE30E946D0490
:1006A00088230CF010E0112329F081E090E0988F6E
:1006B0008F8B46C011E06B897C898D899E8920E0F3
:1006C0003FEF4FE757E40E947A0518160CF010E050
:1006D000112361F16F85788989899A8920E030E05A
:1006E00040E251E40E947E05DC01CB01BC01CD015A
:1006F0000E94D904DC01CB01988F8F8B12C080E956
:1007000091E09A8F898F898D9A8D8C01C80101970C
:10071000F1F78C011A8F098F8F89988D0197988F27
:100720008F8B8F89988D009751F717C06B897C89C3
:100730008D899E890E94D904DC01CB01988F8F8B13
:100740008F89988D9C8F8B8F8B8D9C8D8C01F80160
:100750003197F1F78F011C8F0B8F6C96DEBFCDBFE9
:10076000CF91DF91FF91EF91BF91AF919F918F91C9
:100770007F916F915F914F913F912F911F910F91B9
:100780000F900FBE0F901F9018951F920F920FB6EB
:100790000F9211248F939F93EF93FF93DF93CF9347
:1007A000CDB7DEB789E290E0FC018081CF91DF9187
:1007B000FF91EF919F918F910F900FBE0F901F901F
:1007C0001895DF93CF9300D0CDB7DEB79A83898396
:1007D00080E890E022EAFC01208381E890E02DE1AE
:1007E000FC01208386E890E029813A81FC01318375
:1007F000208388E890E02FEF3FEFFC0131832083D6
:100800008AE890E02FEF3FEFFC013183208384E200
:1008100090E024E230E0F90120812260FC01208395
:100820000F900F90CF91DF910895DF93CF9300D079
:10083000CDB7DEB79A83898388E890E029813A8131
:10084000FC01318320830F900F90CF91DF910895A9
:10085000DF93CF9300D0CDB7DEB79A83898385EC41
:1008600090E029813A81232F3327FC01208384ECF7
:1008700090E02981FC01208381EC90E028E9FC01D3
:10088000208382EC90E026E0FC0120830F900F9003
:10089000CF91DF910895DF93CF930F92CDB7DEB75D
:1008A0008983000080EC90E0FC018081882F90E03B
:1008B000807290700097B1F386EC90E02981FC0182
:1008C00020830F90CF91DF910895DF93CF93CDB721
:1008D000DEB780E0CF91DF91089597D008F481E0F2
:1008E00008950CD0CDC0C5D040F0BCD030F021F47C
:1008F0005F3F19F0AEC05111F7C0B1C0D2D098F32C
:100900009923C9F35523B1F3951B550BBB27AA2790
:1009100062177307840738F09F5F5F4F220F331F02
:10092000441FAA1FA9F333D00E2E3AF0E0E830D0CE
:1009300091505040E695001CCAF729D0FE2F27D0D1
:10094000660F771F881FBB1F261737074807AB079F
:10095000B0E809F0BB0B802DBF01FF2793585F4F14
:100960002AF09E3F510568F074C0BEC05F3FECF3B3
:10097000983EDCF3869577956795B795F7959F5FD9
:10098000C9F7880F911D9695879597F90895E1E02D
:10099000660F771F881FBB1F621773078407BA078C
:1009A00020F0621B730B840BBA0BEE1F88F7E095E7
:1009B00008957FD088F09F5790F0B92F9927B751AD
:1009C000A0F0D1F0660F771F881F991F1AF0BA9513
:1009D000C9F712C0B13081F086D0B1E0089583C06C
:1009E000672F782F8827B85F39F0B93FCCF3869509
:1009F00077956795B395D9F73EF490958095709566
:100A000061957F4F8F4F9F4F0895990F0008550FA5
:100A1000AA0BE0E8FEEF16161706E807F907C0F084
:100A200012161306E407F50798F0621B730B840B8C
:100A3000950B39F40A2661F0232B242B252B21F466
:100A400008950A2609F4A140A6958FEF811D811D06
:100A5000089597F99F6780E870E060E008959FEF40
:100A600080EC089500240A94161617061806090645
:100A7000089500240A941216130614060506089514
:100A8000092E0394000C11F4882352F0BB0F40F49C
:100A9000BF2B11F460FF04C06F5F7F4F8F4F9F4FDC
:100AA000089557FD9058440F551F59F05F3F71F05E
:100AB0004795880F97FB991F61F09F3F79F08795C5
:100AC0000895121613061406551FF2CF4695F1DF4E
:100AD00008C0161617061806991FF1CF86957105DE
:100AE000610508940895E894BB2766277727CB0112
:100AF00097F908958ADF08F48FEF08950BD0C0CFDF
:100B0000B1DF28F0B6DF18F0952309F0A2CFA7CF08
:100B10001124EACFC6DFA0F3959FD1F3950F50E0E3
:100B2000551F629FF001729FBB27F00DB11D639F9F
:100B3000AA27F00DB11DAA1F649F6627B00DA11D45
:100B4000661F829F2227B00DA11D621F739FB00DEB
:100B5000A11D621F839FA00D611D221F749F33275B
:100B6000A00D611D231F849F600D211D822F762FF4
:100B70006A2F11249F5750408AF0E1F088234AF0F1
:100B8000EE0FFF1FBB1F661F771F881F915050403D
:100B9000A9F79E3F510570F05CCFA6CF5F3FECF305
:100BA000983EDCF3869577956795B795F795E79529
:100BB0009F5FC1F7FE2B880F911D9695879597F93A
:060BC0000895F894FFCF38
:040BC6001400010016
:00000001FF
