:100000000C9434000C94920D0C9451000C945100FB
:100010000C94D20A0C940B0B0C9451000C94400DD0
:100020000C9451000C94690D0C9451000C94EC0C40
:100030000C9451000C9451000C94B10B0C94510091
:100040000C9451000C9451000C94440B0C945100EE
:100050000C9451000C9451000C9451000C945100DC
:100060000C9451000C94510011241FBECFEFD8E026
:10007000DEBFCDBF12E0A0E0B1E0E0E8F7E202C0F1
:1000800005900D92A836B107D9F713E0A8E6B2E0C3
:1000900001C01D92A431B107E1F70E94F2030C9454
:1000A000BE130C94A70D0F931F93DF93CF93CDB77F
:1000B000DEB72E970FB6F894DEBF0FBECDBF81E03E
:1000C00060E070E040E050E021E00E940D038EE827
:1000D0000E94C50380E60E94C50380E090E0A0E294
:1000E000B1E489839A83AB83BC8369817A818B81F4
:1000F0009C8120E030E04AE755E40E941210DC01C8
:10010000CB018D839E83AF83B88711E06D817E81A3
:100110008F81988520E030E040E85FE30E94010F86
:1001200088230CF010E0112329F081E090E09A87F9
:10013000898746C011E06D817E818F81988520E09E
:100140003FEF4FE757E40E940E1018160CF010E036
:10015000112361F169817A818B819C8120E030E0FB
:1001600040E251E40E941210DC01CB01BC01CD0140
:100170000E946D0FDC01CB019A87898712C080E94C
:1001800091E09C878B878B859C858C01C8010197AA
:10019000F1F78C011C870B8789859A8501979A87CF
:1001A000898789859A85009751F717C06D817E816F
:1001B0008F8198850E946D0FDC01CB019A8789871A
:1001C00089859A859E878D878D859E858C01C8013E
:1001D0000197F1F78C011E870D872E960FB6F894C4
:1001E000DEBF0FBECDBFCF91DF911F910F9108955C
:1001F000EF92FF920F931F93DF93CF93CDB7DEB7AC
:10020000A0970FB6F894DEBF0FBECDBF9E8B8D8B2F
:10021000788F6F8B5A8F498F3C8F2B8F1E8F0D8F4E
:10022000F8A2EF8E8F8D98A198878F838D8D9E8DEC
:100230009A8789878B8D9C8D9C878B871E861D86D0
:100240008D899E89988B8F878F89988D9A8B898BC2
:10025000898D9A8D9C8B8B8B1A8219829AC0898189
:100260009A818330910529F489819A8101969A8334
:10027000898389819A81880F991F9E012F5F3F4F43
:10028000820F931F0696FC01808191812AE030E065
:10029000B9010E9475109B013C832B8389819A814F
:1002A000880F991F9E012F5F3F4F820F931F069665
:1002B000FC01208131818B819C81880F991FAC01C9
:1002C000440F551F440F551F840F951F909581951E
:1002D0009F4F820F931F9E838D8389819A818230E5
:1002E000910599F48B819C818230910529F482E0FB
:1002F00090E09C838B8309C08B819C818130910528
:1003000021F481E090E09C838B838B819C819C0114
:1003100022953295307F3227207F32278D819E8132
:10032000280F391F89819A81880F991FAE014F5F6D
:100330005F4F840F951F0696FC01318320838BE26B
:1003400090E02BE230E0F90120812F7DFC01208339
:10035000898180580E94C50389819A81880F991FDD
:100360009E012F5F3F4F820F931F0696FC018081F5
:1003700091810E94C5038BE290E02BE230E0F9010D
:1003800020812062FC01208389819A8101969A83D1
:10039000898389819A81873091050CF460CFA0967A
:1003A0000FB6F894DEBF0FBECDBFCF91DF911F9186
:1003B0000F91FF90EF900895DF93CF93CDB7DEB705
:1003C0006F970FB6F894DEBF0FBECDBF80E091E00F
:1003D0009E838D831A8219820FC189819A8183300D
:1003E000910529F489819A8101969A83898389816B
:1003F0000E94C50380E00E94C5038F838F81882FF0
:1004000090E08F7090709987888789819A81823077
:100410009105B1F58F81882F90E08073907095954C
:1004200087959595879595958795959587959C83BF
:100430008B838B819C818230910529F484E190E04B
:100440009C838B8309C08B819C818130910521F431
:100450008AE090E09C838B83288539858B819C8101
:10046000280F391F89819A81880F991FAE014F5F2C
:100470005F4F840F951F4196FC0131832083B7C0E5
:1004800089819A818430910561F58F81882F90E070
:100490008073907095958795959587959595879597
:1004A000959587959B878A878A859B85880F991F55
:1004B0009C01220F331F220F331F280F391F8885FD
:1004C0009985280F391F89819A81880F991FAE015C
:1004D0004F5F5F4F840F951F4196FC01318320834E
:1004E00086C089819A818530910561F58F81882F39
:1004F00090E08071907095958795959587959595E5
:100500008795959587959D878C878C859D85880F88
:10051000991F9C01220F331F220F331F280F391FF1
:1005200088859985280F391F89819A81880F991F9D
:10053000AE014F5F5F4F840F951F4196FC013183E1
:10054000208355C089819A818630910529F58F8154
:1005500082958F70882F90E090709F878E878E8510
:100560009F85880F991F9C01220F331F220F331F75
:10057000280F391F88859985280F391F89819A810D
:10058000880F991FAE014F5F5F4F840F951F4196F3
:10059000FC01318320832BC08F81882F90E08077EE
:1005A000907095958795959587959595879595954F
:1005B0008795998B888B88899989880F991F9C01C9
:1005C000220F331F220F331F280F391F888599856B
:1005D000280F391F89819A81880F991FAE014F5FBB
:1005E0005F4F840F951F4196FC01318320838981E1
:1005F0009A8101969A83898389819A8187309105AE
:100600000CF4EBCE8D819E816F960FB6F894DEBF11
:100610000FBECDBFCF91DF910895DF93CF9300D070
:1006200000D000D0CDB7DEB789837B836A835D833A
:100630004C832E838E81803F29F584E290E024E272
:1006400030E0F9012081277FFC01208384E290E0E3
:1006500024E230E0F90120812061FC0120838AE25C
:1006600090E02AE230E0F90120812F7DFC01208317
:1006700084E290E024E230E0F90120812F7DFC014A
:10068000208324C084E290E024E230E0F90120815C
:100690002860FC01208384E290E024E230E0F9014C
:1006A00020812F7EFC01208384E290E024E230E070
:1006B000F90120812062FC0120838AE290E02AE295
:1006C00030E0F90120812062FC0120838CE490E07D
:1006D0002C813D812115310511F040EC01C040E431
:1006E0002A813B81220F331F22953295307F32279A
:1006F000207F3227342F322B2E81203F11F020E132
:1007000001C020E0432F422B2981222F30E02270AC
:1007100030702115310511F028E001C020E0422B96
:100720002981222F30E021703070220F331F220FD9
:10073000331F342F322B2E812270322B2E812170C9
:10074000232BFC0120838DE490E02E81222F30E0CA
:100750002470307041E02115310509F440E0FC01BE
:10076000408326960FB6F894DEBF0FBECDBFCF9163
:10077000DF910895DF93CF93CDB7DEB78CE490E09F
:10078000FC011082CF91DF910895DF93CF930F92F8
:10079000CDB7DEB789838EE490E02981FC01208308
:1007A00000008DE490E0FC0180818823D4F78EE482
:1007B00090E0FC0180810F90CF91DF910895DF934D
:1007C000CF930F92CDB7DEB789838EE490E0298175
:1007D000FC0120838EE490E0FC0180810F90CF919A
:1007E000DF910895CF92DF92EF92FF920F931F93C4
:1007F000DF93CF93CDB7DEB7A2970FB6F894DEBFE5
:100800000FBECDBF19821A821B8A87E290E027E2D1
:1008100030E0D9012C912160FC01208381E490E03B
:100820000E94B9090E94160A89E190E00E94600EB8
:10083000789400D08DB79EB7019625E031E0DC01B9
:100840002D933C930E94DB0E0F900F9082E190E07D
:100850000E94D112882331F082E190E00E94D112EF
:1008600080936D0280E090E00E94D112C82EDD24BA
:1008700081E090E00E94D112E82EFF2482E090E017
:100880000E94D112082F10E083E090E00E94D11264
:10089000282F30E0EDB7FEB73A970FB6F894FEBFB9
:1008A0000FBEEDBF8DB79EB701964BE051E0DC0166
:1008B0004D935C93FC01D382C282DC011596FC92BD
:1008C000EE921497FC0117830683DC0119963C9382
:1008D0002E9318970E94DB0EEDB7FEB73A960FB62F
:1008E000F894FEBF0FBEEDBF84E090E00E94D112ED
:1008F000C82EDD2485E090E00E94D112E82EFF246E
:1009000086E090E00E94D112082F10E087E090E08E
:100910000E94D112282F30E08DB79EB70A970FB6EC
:10092000F8949EBF0FBE8DBF8DB79EB701964FE264
:1009300051E0DC014D935C93FC01D382C282DC0167
:100940001596FC92EE921497FC0117830683DC0146
:1009500019963C932E9318970E94DB0EEDB7FEB7C5
:100960003A960FB6F894FEBF0FBEEDBF8CE090E054
:100970000E94D112C82EDD248DE090E00E94D11299
:10098000E82EFF248EE090E00E94D112082F10E0A4
:100990008FE090E00E94D112282F30E08DB79EB7F3
:1009A0000A970FB6F8949EBF0FBE8DBF8DB79EB746
:1009B000019644E551E0DC014D935C93FC01D38248
:1009C000C282DC011596FC92EE921497FC0117830B
:1009D0000683DC0119963C932E9318970E94DB0E38
:1009E000EDB7FEB73A960FB6F894FEBF0FBEEDBF57
:1009F00088E090E00E94D112C82EDD2489E090E0CA
:100A00000E94D112E82EFF248AE090E00E94D112C9
:100A1000082F10E08BE090E00E94D112282F30E0E8
:100A20008DB79EB70A970FB6F8949EBF0FBE8DBFC5
:100A30008DB79EB701964AE751E0DC014D935C9378
:100A4000FC01D382C282DC011596FC92EE921497CF
:100A5000FC0117830683DC0119963C932E931897AB
:100A60000E94DB0EEDB7FEB73A960FB6F894FEBFC4
:100A70000FBEEDBF0E94D20880910101882309F0CA
:100A800089C2CE01449629EF32E0B9010E94BE101E
:100A900000D08DB79EB701969E012C5E3F4FDC01C2
:100AA0002D933C930E94DB0E0F900F901B8A64C223
:100AB0008B89882F90E09E012C5E3F4F820F931F01
:100AC000FC018081882F90E08C34910509F4C9C124
:100AD0008D34910564F483349105F1F084349105EB
:100AE00009F4E0C08234910509F405C142C282359F
:100AF000910509F4E3C1833591052CF48F349105F8
:100B000009F451C136C28335910509F404C2873511
:100B1000910509F479C12DC2CE0144969E012D5E46
:100B20003F4FB9010E9467088983CE0144969E0118
:100B30002D5E3F4FB9010E9467088A83CE0144961B
:100B40009E012D5E3F4FB9010E9467088B8389810A
:100B5000682F70E08A81482F50E08B81282F30E089
:100B60008DB79EB708970FB6F8949EBF0FBE8DBF86
:100B70008DB79EB70196EFE9F1E0DC01ED93FC93B0
:100B8000FC0173836283DC0115965C934E9314978A
:100B9000FC01378326830E94DB0E8DB79EB7089633
:100BA0000FB6F8949EBF0FBE8DBF8B898F5F8B8B66
:100BB0008B89882F90E001969E012C5E3F4F820F1B
:100BC000931FDC018C91882309F0D2C1809104012C
:100BD000682F70E080917702482F50E08091780272
:100BE000282F30E0EDB7FEB738970FB6F894FEBF68
:100BF0000FBEEDBF8DB79EB70196E5EBF1E0DC01CE
:100C0000ED93FC93FC0173836283DC0115965C9386
:100C10004E931497FC01378326830E94DB0E8DB719
:100C20009EB708960FB6F8949EBF0FBE8DBF898100
:100C3000809304018A81809377028B81809378026C
:100C400080910401682F70E080917702482F50E076
:100C500080917802282F30E0ADB7BEB718970FB655
:100C6000F894BEBF0FBEADBF8DB79EB70196E3ED42
:100C7000F1E0DC01ED93FC93FC0173836283DC0102
:100C800015965C934E931497FC01378326830E943C
:100C9000DB0E8DB79EB708960FB6F8949EBF0FBEB9
:100CA0008DBF67C1CE0144969E012D5E3F4FB901B5
:100CB0000E946708882F90E09093030180930201BF
:100CC000209102013091030100D000D08DB79EB772
:100CD00001964CEE51E0DC014D935C93FC013383B3
:100CE00022830E94DB0E0F900F900F900F908B8944
:100CF0008F5F8B8B3EC180916D02282F332727FD9C
:100D0000309500D000D08DB79EB701964AEF51E0E4
:100D1000DC014D935C93FC01338322830E94DB0E44
:100D20000F900F900F900F90CE0144969E012D5E74
:100D30003F4FB9010E94670880936D0282E190E005
:100D40000E94D112982F80916D02F92FF81B8F2FDE
:100D50008C838C81282F332727FD309500D000D03D
:100D60008DB79EB701964BE052E0DC014D935C934A
:100D7000FC01338322830E94DB0E0F900F900F90B3
:100D80000F908C81882319F08C810E946A0A8091CF
:100D90006D02282F82E190E0622F0E94D9128B8988
:100DA0008F5F8B8BE6C08D89863451F48FEF9FEF78
:100DB00090930301809302018B898E5F8B8B0CC013
:100DC0008D898E3449F48AE590E0909303018093F5
:100DD00002018B898F5F8B8B20910201309103017F
:100DE00000D000D08DB79EB701964CEE51E0DC01EB
:100DF0004D935C93FC01338322830E94DB0E0F90A2
:100E00000F900F900F90B5C000D08DB79EB7019690
:100E100023E232E0DC012D933C930E94DB0E0F9025
:100E20000F9080E090E069810E94D91281E090E00B
:100E30006A810E94D9128091020190910301282FAA
:100E400082E090E0622F0E94D91280916D02282FDB
:100E500083E090E0622F0E94D9128B898F5F8B8B89
:100E600088C000D08DB79EB7019629E232E0FC0120
:100E7000318320830E94DB0E0F900F9084E090E07E
:100E800069810E94D91285E090E06A810E94D9129E
:100E90008091020190910301282F86E090E0622F5B
:100EA0000E94D91280916D02282F87E090E0622F76
:100EB0000E94D9128B898F5F8B8B5BC000D08DB75E
:100EC0009EB7019620E332E0DC012D933C930E9413
:100ED000DB0E0F900F908CE090E069810E94D91298
:100EE0008DE090E06A810E94D91280910201909178
:100EF0000301282F8EE090E0622F0E94D91280918A
:100F00006D02282F8FE090E0622F0E94D9128B890A
:100F10008F5F8B8B2EC000D08DB79EB7019628E3D4
:100F200032E0FC01318320830E94DB0E0F900F9092
:100F300088E090E069810E94D91289E090E06A819E
:100F40000E94D9128091020190910301282F8AE01A
:100F500090E0622F0E94D91280916D02282F8BE0C1
:100F600090E0622F0E94D9128B898F5F8B8B01C01A
:100F700000008B898F5F8B8B8B89082F10E0CE014F
:100F800044960E94C5100817190708F491CD81E016
:100F900080930101809178028C33C0F01092780226
:100FA000809177028F5F80937702809177028C33F4
:100FB00068F010927702809104018F5F80930401A2
:100FC00080910401873110F01092040180E090E0DC
:100FD000AAE7B4E48D839E83AF83B8876D817E8159
:100FE0008F81988520E030E04AE755E40E94121096
:100FF000DC01CB0189879A87AB87BC8711E06985C3
:101000007A858B859C8520E030E040E85FE30E9494
:10101000010F88230CF010E0112329F081E090E00B
:101020009E878D8746C011E069857A858B859C8572
:1010300020E03FEF4FE757E40E940E1018160CF027
:1010400010E0112361F16D817E818F81988520E010
:1010500030E040E251E40E941210DC01CB01BC01FF
:10106000CD010E946D0FDC01CB019E878D8712C0E0
:1010700080E991E0988B8F878F8598898C01C801D2
:101080000197F1F78C01188B0F878D859E8501974D
:101090009E878D878D859E85009751F7EBCC69855E
:1010A0007A858B859C850E946D0FDC01CB019E8724
:1010B0008D878D859E859A8B898B89899A898C01EC
:1010C000D8011197F1F78D011A8B098BD3CCDF93DF
:1010D000CF9300D000D00F92CDB7DEB79B838A8329
:1010E0007D836C838C819D81FC018081282F2E5F04
:1010F0008C819D81FC0120838C819D81FC018081FC
:10110000882F90E02A813B81820F931FFC01808110
:10111000805389838C819D81FC018081882F90E0A0
:1011200001962A813B81820F931FFC0180818823D5
:1011300081F18C819D81FC018081882F90E0019656
:101140002A813B81820F931FFC0180818A3309F140
:101150008C819D81FC018081282F2F5F8C819D8156
:10116000FC0120838981880F982F990F990F890F8F
:1011700089838C819D81FC018081882F90E02A8168
:101180003B81820F931FFC0190818981890F8053DD
:10119000898389810F900F900F900F900F90CF91BE
:1011A000DF9108950F931F93DF93CF93CDB7DEB7F1
:1011B0002E970FB6F894DEBF0FBECDBF80916F02A1
:1011C000882309F0ACC083E290E0FC018081882F85
:1011D00090E081709070009709F0A1C080E090E0ED
:1011E000A8ECB1E489839A83AB83BC8369817A815B
:1011F0008B819C8120E030E04AE755E40E94121088
:10120000DC01CB018D839E83AF83B88711E06D81B4
:101210007E818F81988520E030E040E85FE30E9486
:10122000010F88230CF010E0112329F081E090E0F9
:101230009A87898746C011E06D817E818F8198856C
:1012400020E03FEF4FE757E40E940E1018160CF015
:1012500010E0112361F169817A818B819C8120E00A
:1012600030E040E251E40E941210DC01CB01BC01ED
:10127000CD010E946D0FDC01CB019A87898712C0D6
:1012800080E991E09C878B878B859C858C01C801C8
:101290000197F1F78C011C870B8789859A85019747
:1012A0009A87898789859A85009751F717C06D813C
:1012B0007E818F8198850E946D0FDC01CB019A871A
:1012C000898789859A859E878D878D859E858C01E6
:1012D000F8013197F1F78F011E870D8783E290E0C7
:1012E000FC018081882F90E0817090700097B1F5AB
:1012F00080916F02882389F500D08DB79EB7019643
:101300002FE332E0FC01318320830E94DB0E0F903B
:101310000F9081E080936F02109270021FC0809145
:101320006F028823D9F083E290E0FC018081882F4E
:1013300090E081709070882389F000D08DB79EB7BF
:10134000019623E432E0FC01318320830E94DB0E0E
:101350000F900F9010926F0201C000002E960FB6F2
:10136000F894DEBF0FBECDBFCF91DF911F910F91DB
:101370000895DF93CF9300D0CDB7DEB79A838983EA
:1013800087E290E027E230E0F90120812160FC0152
:10139000208387E490E022E8FC01208388E490E049
:1013A0002981FC01208384E490E024E430E0F90109
:1013B00020812260FC01208385E490E025E430E078
:1013C000F90120812260FC0120838EE690E023E079
:1013D000FC01208389E690E022E0FC0120838DE37C
:1013E00090E02DE330E0F90120812160FC012083B1
:1013F0000F900F90CF91DF910895DF93CF93CDB7EA
:10140000DEB788E690E028E630E0F901208124602C
:10141000FC0120838DE690E02DE630E0F90120818B
:101420002061FC012083CF91DF910895DF93CF935A
:10143000CDB7DEB785E290E025E230E0F90120810A
:101440002160FC01208380E890E020E830E0F90191
:1014500020812064FC01208381E890E021E830E0D5
:10146000F90120812C60FC0120838FE690E02FE6BB
:1014700030E0F90120812260FC01208388E890E0BF
:1014800023E234EFFC0131832083CF91DF91089573
:10149000DF93CF93CDB7DEB784E290E024E230E073
:1014A000F90120812260FC01208382EB90E0FC01A5
:1014B000108280EB90E0FC01108283EB90E021E051
:1014C000FC01208380E790E023E0FC012083CF91A2
:1014D000DF910895DF93CF9300D00F92CDB7DEB7A1
:1014E0008B838B81992787FD90959C01220F331F59
:1014F000280F391F220F331F220F331F220F331FD4
:10150000820F931F9A83898381E080936E0200D0BB
:1015100000D08DB79EB701962EE432E0FC013183F6
:10152000208329813A81FC01338322830E94DB0ED0
:101530000F900F900F900F9081EB90E027E0FC014F
:10154000208389819A811816190634F483EB90E080
:101550002AE0FC0120830CC083EB90E02FE2FC0129
:10156000208389819A81909581959F4F9A83898361
:1015700089819A810E94B70D81E080936E0281EB90
:1015800090E0FC01108285E290E025E230E0F90174
:1015900020812D7FFC0120830F900F900F90CF9121
:1015A000DF9108951F920F920FB60F9211248F931F
:1015B0009F93AF93BF93EF93FF93DF93CF93CDB7F9
:1015C000DEB786E290E0FC018081882F90E0887091
:1015D0009070009799F08091710290917202A091A1
:1015E0007302B09174020196A11DB11D8093710226
:1015F00090937202A0937302B0937402CF91DF9123
:10160000FF91EF91BF91AF919F918F910F900FBE7E
:101610000F901F9018951F920F920FB60F921124E2
:101620008F939F93AF93BF93EF93FF93DF93CF93EA
:10163000CDB7DEB789E290E0FC018081882F90E091
:1016400080719070009799F0809171029091720270
:10165000A0917302B09174020196A11DB11D8093F7
:10166000710290937202A0937302B0937402CF91AF
:10167000DF91FF91EF91BF91AF919F918F910F906B
:101680000FBE0F901F9018951F920F920FB60F92DA
:1016900011242F933F934F935F936F937F938F9377
:1016A0009F93AF93BF93EF93FF93DF93CF9300D0BC
:1016B000CDB7DEB719821A82000080EC90E0FC0101
:1016C00080818823D4F786EC90E0FC0180818A83B6
:1016D0001AC08A818A30B9F08981882F90E08750BA
:1016E0009D4F2A81FC01208389818F5F89830000BF
:1016F00080EC90E0FC0180818823D4F786EC90E0B8
:10170000FC0180818A838A818B3319F78981882F34
:1017100090E087509D4FFC0110821092010100D093
:101720008DB79EB7019629EF32E0FC01318320830B
:101730000E94DB0E0F900F900F900F90CF91DF91D2
:10174000FF91EF91BF91AF919F918F917F916F9199
:101750005F914F913F912F910F900FBE0F901F906F
:1017600018951F920F920FB60F9211240F931F938B
:101770002F933F934F935F936F937F938F939F9399
:10178000AF93BF93EF93FF93DF93CF93CDB7DEB7C4
:101790006897DEBFCDBF80916C02813009F004C133
:1017A00080910201909103019C0180916A029091C5
:1017B0006B028217930708F4EEC088E290E028E2FB
:1017C00030E0F90120812160FC01208380E090E07D
:1017D000A0E2B1E489839A83AB83BC8369817A8177
:1017E0008B819C812BEA3AEA4AEA50E40E9412106B
:1017F000DC01CB018D839E83AF83B88711E06D81BF
:101800007E818F81988520E030E040E85FE30E9490
:10181000010F88230CF010E0112319F081E0898773
:10182000A3C011E06D817E818F81988520E030E03A
:101830004FE753E40E940E1018160CF010E011232D
:1018400009F489C069817A818B819C8120E030E034
:101850004AE754E40E94050FDC01CB018A879B878D
:10186000AC87BD876A857B858C859D8520E030E0CF
:101870004AE755E40E941210DC01CB018E879F8756
:10188000A88BB98B11E06E857F858889998920E0C6
:1018900030E040E85FE30E94010F88230CF010E085
:1018A000112329F081E090E09B8B8A8B46C011E0E8
:1018B0006E857F858889998920E03FEF4FE757E45F
:1018C0000E940E1018160CF010E0112361F16A85C9
:1018D0007B858C859D8520E030E040E251E40E94CC
:1018E0001210DC01CB01BC01CD010E946D0FDC01A7
:1018F000CB019B8B8A8B12C080E991E09D8B8C8BF6
:101900008C899D898C01C8010197F1F78C011D8B91
:101910000C8B8A899B8901979B8B8A8B8A899B89EF
:10192000009751F728C06E857F85888999890E9424
:101930006D0FDC01CB019B8B8A8B8A899B899F8BE6
:101940008E8B8E899F898C01F8013197F1F78F0179
:101950001F8B0E8B10C06D817E818F8198850E94B8
:101960006D0FDC01CB0189878985888F888D182FC1
:101970001A95F1F7188F88E290E028E230E0F9013B
:1019800020812E7FFC01208310926B0210926A024C
:1019900010926C0209C080916A0290916B020196CC
:1019A00090936B0280936A026896DEBFCDBFCF91A1
:1019B000DF91FF91EF91BF91AF919F918F917F91B7
:1019C0006F915F914F913F912F911F910F910F90C8
:1019D0000FBE0F901F9018951F920F920FB60F9287
:1019E00011242F933F934F935F936F937F938F9324
:1019F0009F93AF93BF93EF93FF93DF93CF93CDB7B5
:101A0000DEB78091710290917202A0917302B09141
:101A1000740228EE33E040E050E0BC01CD010E94AA
:101A20008810DA01C90190937602809375021092B2
:101A300071021092720210927302109274028091DD
:101A400078028F5F8093780280916F02882329F457
:101A5000809170028F5F80937002CF91DF91FF9130
:101A6000EF91BF91AF919F918F917F916F915F9116
:101A70004F913F912F910F900FBE0F901F9018958F
:101A80001F920F920FB60F9211242F933F938F93B3
:101A90009F93EF93FF93DF93CF93CDB7DEB7809102
:101AA0006E02882349F085E290E025E230E0F901FA
:101AB00020812D7FFC012083CF91DF91FF91EF9159
:101AC0009F918F913F912F910F900FBE0F901F907C
:101AD00018951F920F920FB60F9211242F933F93D8
:101AE0008F939F93EF93FF93DF93CF93CDB7DEB7A1
:101AF00080916E02882349F085E290E025E230E093
:101B0000F90120812260FC012083CF91DF91FF91B8
:101B1000EF919F918F913F912F910F900FBE0F905A
:101B20001F9018951F920F920FB60F9211248F934A
:101B3000DF93CF93CDB7DEB781E080936C02CF9176
:101B4000DF918F910F900FBE0F901F9018951F92ED
:101B50000F920FB60F921124DF93CF93CDB7DEB75C
:101B6000CF91DF910F900FBE0F901F9018950F939C
:101B70001F93DF93CF93CDB7DEB762970FB6F8947C
:101B8000DEBF0FBECDBF9A8B898B1A82198285C0AA
:101B900080E090E0A0E8BFE38B839C83AD83BE83AD
:101BA0006B817C818D819E8120E030E04AE755E4A5
:101BB0000E941210DC01CB018F839887A987BA8716
:101BC00011E06F81788589859A8520E030E040E8D2
:101BD0005FE30E94010F88230CF010E0112329F02D
:101BE00081E090E09C878B8746C011E06F8178850B
:101BF00089859A8520E03FEF4FE757E40E940E1059
:101C000018160CF010E0112361F16B817C818D813D
:101C10009E8120E030E040E251E40E941210DC019D
:101C2000CB01BC01CD010E946D0FDC01CB019C8773
:101C30008B8712C080E991E09E878D878D859E8578
:101C40008C01C8010197F1F78C011E870D878B85E8
:101C50009C8501979C878B878B859C85009751F786
:101C600017C06F81788589859A850E946D0FDC0188
:101C7000CB019C878B878B859C85988B8F878F85E5
:101C800098898C01C8010197F1F78C01188B0F8797
:101C900089819A8101969A83898329813A818989E8
:101CA0009A892817390708F473CF62960FB6F8940B
:101CB000DEBF0FBECDBFCF91DF911F910F91089571
:101CC000DF93CF9300D0CDB7DEB79A8389838AE2C2
:101CD00090E02AE230E0F90120812360FC012083BA
:101CE00085EC90E029813A81232F3327FC01208362
:101CF00084EC90E02981FC01208381EC90E028E9CC
:101D0000FC01208382EC90E026E0FC0120830F9010
:101D10000F90CF91DF910895DF93CF930F92CDB7BE
:101D2000DEB78983000080EC90E0FC018081882F81
:101D300090E0807290700097B1F386EC90E029817A
:101D4000FC0120830F90CF91DF910895DF93CF9313
:101D5000CDB7DEB780E0CF91DF910895DF93CF93C9
:101D600000D000D000D0CDB7DEB79C838B837E83BC
:101D70006D831A8219820FC089819A812B813C81DF
:101D8000820F931FFC0180810E948C0E89819A81B1
:101D900001969A83898329813A818D819E812817B2
:101DA000390754F326960FB6F894DEBF0FBECDBFA9
:101DB000CF91DF910895DF93CF9300D000D0CDB7BE
:101DC000DEB7CE010B969C838B832B813C8189E708
:101DD00092E049855A85BA01A9010E94CE109A83E2
:101DE000898389E792E029813A81B9010E94AE0E88
:101DF00089819A810F900F900F900F90CF91DF9172
:101E0000089597D008F481E008950CD0CDC0C5D0D6
:101E100040F0BCD030F021F45F3F19F0AEC051115A
:101E2000F7C0B1C0D2D098F39923C9F35523B1F3C9
:101E3000951B550BBB27AA2762177307840738F039
:101E40009F5F5F4F220F331F441FAA1FA9F333D098
:101E50000E2E3AF0E0E830D091505040E695001C4C
:101E6000CAF729D0FE2F27D0660F771F881FBB1F08
:101E7000261737074807AB07B0E809F0BB0B802DE2
:101E8000BF01FF2793585F4F2AF09E3F510568F02E
:101E900074C0BEC05F3FECF3983EDCF38695779547
:101EA0006795B795F7959F5FC9F7880F911D969530
:101EB000879597F90895E1E0660F771F881FBB1F8C
:101EC000621773078407BA0720F0621B730B840B39
:101ED000BA0BEE1F88F7E09508957FD088F09F57E2
:101EE00090F0B92F9927B751A0F0D1F0660F771F66
:101EF000881F991F1AF0BA95C9F712C0B13081F046
:101F000086D0B1E0089583C0672F782F8827B85F07
:101F100039F0B93FCCF3869577956795B395D9F7A6
:101F20003EF490958095709561957F4F8F4F9F4FB0
:101F30000895990F0008550FAA0BE0E8FEEF16165A
:101F40001706E807F907C0F012161306E407F507AD
:101F500098F0621B730B840B950B39F40A2661F021
:101F6000232B242B252B21F408950A2609F4A140C4
:101F7000A6958FEF811D811D089597F99F6780E8D1
:101F800070E060E008959FEF80EC089500240A94CB
:101F90001616170618060906089500240A94121644
:101FA0001306140605060895092E0394000C11F477
:101FB000882352F0BB0F40F4BF2B11F460FF04C024
:101FC0006F5F7F4F8F4F9F4F089557FD9058440F7D
:101FD000551F59F05F3F71F04795880F97FB991F88
:101FE00061F09F3F79F08795089512161306140645
:101FF000551FF2CF4695F1DF08C0161617061806D2
:10200000991FF1CF86957105610508940895E894AC
:10201000BB2766277727CB0197F908958ADF08F455
:102020008FEF08950BD0C0CFB1DF28F0B6DF18F0E6
:10203000952309F0A2CFA7CF1124EACFC6DFA0F3E2
:10204000959FD1F3950F50E0551F629FF001729F4D
:10205000BB27F00DB11D639FAA27F00DB11DAA1F6C
:10206000649F6627B00DA11D661F829F2227B00DB9
:10207000A11D621F739FB00DA11D621F839FA00D44
:10208000611D221F749F3327A00D611D231F849F94
:10209000600D211D822F762F6A2F11249F575040EB
:1020A0008AF0E1F088234AF0EE0FFF1FBB1F661F86
:1020B000771F881F91505040A9F79E3F510570F03F
:1020C0005CCFA6CF5F3FECF3983EDCF38695779527
:1020D0006795B795F795E7959F5FC1F7FE2B880F3A
:1020E000911D9695879597F9089597FB092E0726D8
:1020F0000AD077FD04D02ED006D000201AF47095B7
:1021000061957F4F0895F6F7909581959F4F0895BB
:10211000A1E21A2EAA1BBB1BFD010DC0AA1FBB1FEB
:10212000EE1FFF1FA217B307E407F50720F0A21B5D
:10213000B30BE40BF50B661F771F881F991F1A94CA
:1021400069F760957095809590959B01AC01BD01F4
:10215000CF010895AA1BBB1B51E107C0AA1FBB1FDB
:10216000A617B70710F0A61BB70B881F991F5A9523
:10217000A9F780959095BC01CD010895FB01DC0184
:1021800001900D920020E1F70895FC0101900020DC
:10219000E9F7809590958E0F9F1F0895AEE0B0E00F
:1021A000E4EDF0E10C9495138C0186E08C831A83A6
:1021B00009838FEF9FE79E838D83CE0101960E9456
:1021C000EA10EF81F885E00FF11F10822E96E4E00F
:1021D0000C94B113ACE0B0E0E0EFF0E10C948713A5
:1021E0006C011B018A01FC0117821682838181FF29
:1021F000D1C12E010894411C511CF6019381F101BB
:1022000093FD859193FF81911F01882309F4BEC13D
:10221000853239F493FD859193FF81911F018532B9
:1022200029F490E0B6010E94FD12E7CFEE24FF24CE
:1022300020E02032B0F48B3269F08C3228F4803206
:1022400051F0833271F40BC08D3239F0803349F490
:1022500021602CC02260246029C0286027C0206132
:1022600025C027FD2CC0382F30533A3098F426FF74
:1022700008C08E2D880FE82EEE0CEE0CE80EE30E53
:1022800015C08F2D880FF82EFF0CFF0CF80EF30EE3
:1022900020620CC08E3221F426FD78C1206406C075
:1022A0008C3611F4206802C0883649F4F10193FDA0
:1022B000859193FF81911F01882309F0BACF982F50
:1022C0009554933018F09052933028F40C5F1F4FC0
:1022D000FFE3F9830DC0833631F0833771F0833526
:1022E00009F060C022C0F801808189830E5F1F4F12
:1022F000420171E0A72EB12C16C062E0662E712C4F
:10230000600E711EF8018080918026FF03C06E2D43
:1023100070E002C06FEF7FEFC4012C870E94F212C1
:102320005C0183012C852F7717C052E0652E712C3C
:10233000600E711EF8018080918026FF03C06E2D13
:1023400070E002C06FEF7FEFC4012C870E94E7129C
:102350005C012C852068830123FD20C008C080E239
:1023600090E0B6012C870E94FD12FA942C858F2DE7
:1023700090E0A816B90698F311C0F40127FD8591E5
:1023800027FF81914F0190E0B6012C870E94FD123A
:102390002C85F110FA940894A108B108A114B10495
:1023A00061F7F1C0843611F0893649F527FF08C07E
:1023B000F80160817181828193810C5F1F4F09C098
:1023C000F80160817181882777FD8095982F0E5FD5
:1023D0001F4F4FE6B42EB22297FF09C0909580950B
:1023E000709561957F4F8F4F9F4FF0E8BF2AA201F4
:1023F0002AE030E00E942913782E741845C08537F2
:1024000031F43FEEB32EB2222AE030E025C099EF3E
:10241000B92EB2228F36C1F0803720F4883509F00A
:10242000B5C00DC0803721F0883709F0AFC002C0B9
:1024300020E1B22AB4FE0BC084E0B82A08C0B4FE82
:1024400009C0E6E0BE2A06C028E030E005C020E171
:1024500030E002C020E132E0B7FE08C0F801608140
:102460007181828193810C5F1F4F07C0F8016081E9
:10247000718180E090E00E5F1F4FA2010E9429133E
:10248000782E7418FFE7BF22B6FE0BC02EEFB222E3
:102490007E1438F4B4FE07C0B2FC05C08FEEB8223B
:1024A00002C0A72C01C0AE2C8B2D90E0B4FE0DC055
:1024B000FE01E70DF11D2081203319F4E9EEBE2263
:1024C00009C0A394B2FE06C004C08678907000973D
:1024D00009F0A3948B2C9924B3FC14C0B0FE0FC058
:1024E000AF1428F4E72CEF0CEA18AF2C08C0E72C47
:1024F00006C080E290E0B6010E94FD12A394AF14E2
:10250000C0F304C0AF1410F4FA1801C0FF2484FE15
:102510000FC080E390E0B6010E94FD1282FE1FC052
:1025200081FE03C088E590E010C088E790E00DC010
:10253000C40186789070009791F081FC02C080E21F
:1025400001C08BE2B7FC8DE290E0B6010E94FD1263
:1025500006C080E390E0B6010E94FD12EA947E146A
:10256000C0F37A94F201E70DF11D808190E0B6018D
:102570000E94FD127720A9F706C080E290E0B60124
:102580000E94FD12FA94FF20C1F737CEF601268192
:10259000378102C02FEF3FEFC9012C96E2E10C9486
:1025A000A313F999FECF92BD81BDF89A992780B502
:1025B0000895262FF999FECF1FBA92BD81BD20BD87
:1025C0000FB6F894FA9AF99A0FBE01960895FC0195
:1025D0000590615070400110D8F7809590958E0F4E
:1025E0009F1F0895FC016150704001900110D8F7C1
:1025F000809590958E0F9F1F08950F931F93CF93F3
:10260000DF938C01EB018B8181FF1BC082FF0DC02A
:102610002E813F818C819D812817390764F4E881E0
:10262000F9810193F983E88306C0E885F985802F55
:102630000995009731F48E819F8101969F838E8347
:1026400002C00FEF1FEFC801DF91CF911F910F91D3
:102650000895FA01AA27283051F1203181F1E89438
:102660006F936E7F6E5F7F4F8F4F9F4FAF4FB1E085
:102670003ED0B4E03CD0670F781F891F9A1FA11D80
:10268000680F791F8A1F911DA11D6A0F711D811D81
:10269000911DA11D20D009F468943F912AE0269F46
:1026A00011243019305D3193DEF6CF010895462FA5
:1026B0004770405D4193B3E00FD0C9F7F6CF462F86
:1026C0004F70405D4A3318F0495D31FD40524193EF
:1026D00002D0A9F7EACFB4E0A695979587957795AC
:1026E0006795BA95C9F700976105710508959B0133
:1026F000AC010A2E06945795479537952795BA95BC
:10270000C9F7620F731F841F951FA01D08952F9294
:102710003F924F925F926F927F928F929F92AF9271
:10272000BF92CF92DF92EF92FF920F931F93CF93BE
:10273000DF93CDB7DEB7CA1BDB0B0FB6F894DEBF55
:102740000FBECDBF09942A88398848885F846E847B
:102750007D848C849B84AA84B984C884DF80EE80C5
:10276000FD800C811B81AA81B981CE0FD11D0FB6CE
:10277000F894DEBF0FBECDBFED010895F894FFCFF2
:10278000000114000853746172740057616B652076
:1027900073657420746F2025643A2564207769740A
:1027A000682064696D2076616C7565202564004C35
:1027B000656176652073657420746F2025643A2501
:1027C0006420776974682064696D2076616C756532
:1027D0002025640052657475726E207365742074D0
:1027E0006F2025643A256420776974682064696DD8
:1027F0002076616C756520256400536C65657020DA
:1028000073657420746F2025643A25642077697499
:10281000682064696D2076616C75652025640043CD
:102820006C6F636B2073657420746F2025643A2588
:10283000643A25640054696D65206F6E2063686991
:10284000703A20253032643A253032643A253032ED
:10285000640A004E65772054696D653A2025303250
:10286000643A253032643A253032640044696D2080
:1028700073657420746F20256400426C696E647304
:102880002073657420746F20256400426C696E6447
:102890007320646966666572656E6365206973207E
:1028A00025640057616B6521004C656176652100E8
:1028B00052657475726E2100536C6565702100203D
:1028C000212100204E6F204D6F74696F6E00426CA5
:1028D000696E647320636C6F73696E6720666F72D4
:0828E000202564206D73000047
:00000001FF
