:100000000C9434000C94A2030C9451000C945100F5
:100010000C9451000C9451000C9451000C9451001C
:100020000C9451000C9451000C9451000C9451000C
:100030000C9451000C9451000C9462020C945100E9
:100040000C9451000C9451000C9440020C945100FB
:100050000C9451000C9451000C9451000C945100DC
:100060000C9451000C94510011241FBECFEFD8E026
:10007000DEBFCDBF11E0A0E0B1E0E2EEFAE002C0E9
:1000800005900D92A430B107D9F711E0A4E0B1E0DA
:1000900001C01D92A830B107E1F70E9453000C94F3
:1000A0006F050C9400000F931F93DF93CF93CDB790
:1000B000DEB7A0970FB6F894DEBF0FBECDBF84E2C7
:1000C00090E021E0FC01208387E290E02FEFFC012B
:1000D00020838AE290E02AE230E0F90120812B7F40
:1000E000FC0120838AE290E02AE230E0F9012081DD
:1000F000277FFC01208385E290E025E230E0F901D2
:1001000020812E7FFC01208381E490E00E94C801C1
:100110000E9407028AE090E0909301018093000121
:1001200078948AE090E09A83898390C089819A814B
:10013000909301018093000188E290E02981FC0105
:10014000208380E090E0A8ECB2E48D839E83AF83AF
:10015000B8876D817E818F81988520E030E04AE705
:1001600055E40E940C05DC01CB0189879A87AB8797
:10017000BC8711E069857A858B859C8520E030E01D
:1001800040E85FE30E94FB0388230CF010E011239A
:1001900029F081E090E09E878D8746C011E0698557
:1001A0007A858B859C8520E03FEF4FE757E40E94DE
:1001B000080518160CF010E0112361F16D817E81A5
:1001C0008F81988520E030E040E251E40E940C05E8
:1001D000DC01CB01BC01CD010E946704DC01CB0135
:1001E0009E878D8712C080E991E0988B8F878F85DD
:1001F00098898C01C8010197F1F78C01188B0F8742
:100200008D859E8501979E878D878D859E8500971C
:1002100051F717C069857A858B859C850E94670494
:10022000DC01CB019E878D878D859E859A8B898B7E
:1002300089899A898C01F8013197F1F78F011A8B1E
:10024000098B89819A8101969A83898389819A8110
:100250008A3591050CF46ACF8AE590E09C838B8304
:1002600090C08B819C81909301018093000188E272
:1002700090E02B81FC01208380E090E0A8ECB2E4C8
:100280008B8B9C8BAD8BBE8B6B897C898D899E897A
:1002900020E030E04AE755E40E940C05DC01CB0188
:1002A0008F8B988FA98FBA8F11E06F89788D898D88
:1002B0009A8D20E030E040E85FE30E94FB03882352
:1002C0000CF010E0112329F081E090E09C8F8B8FDF
:1002D00046C011E06F89788D898D9A8D20E03FEFBF
:1002E0004FE757E40E94080518160CF010E01123A0
:1002F00061F16B897C898D899E8920E030E040E244
:1003000051E40E940C05DC01CB01BC01CD010E942F
:100310006704DC01CB019C8F8B8F12C080E991E0D8
:100320009E8F8D8F8D8D9E8D8C01C8010197F1F769
:100330008C011E8F0D8F8B8D9C8D01979C8F8B8FC9
:100340008B8D9C8D009751F717C06F89788D898DA3
:100350009A8D0E946704DC01CB019C8F8B8F8B8D63
:100360009C8D98A38F8F8F8D98A18C01F801319768
:10037000F1F78F0118A30F8F8B819C8101979C83CC
:100380008B838B819C818B3091050CF06ACFC9CE19
:10039000DF93CF9300D0CDB7DEB79A83898387E40C
:1003A00090E022E8FC01208388E490E02981FC01B0
:1003B00020838AE290E02AE230E0F9012081206483
:1003C000FC01208384E490E024E430E0F901208102
:1003D0002068FC01208384E490E024E430E0F9010B
:1003E00020812260FC01208385E490E025E430E058
:1003F000F90120812260FC0120838EE690E023E059
:10040000FC0120830F900F90CF91DF910895DF932F
:10041000CF93CDB7DEB78BE290E02BE230E0F9016D
:1004200020812C60FC01208389E690E0FC01108291
:1004300089E690E029E630E0F90120812A60FC019C
:1004400020838DE390E02DE330E0F90120812360EB
:10045000FC012083CF91DF910895DF93CF9300D0EB
:10046000CDB7DEB79A838983F89487E490E0298139
:10047000FC01208378940F900F90CF91DF91089525
:100480001F920F920FB60F9211248F939F93EF93A9
:10049000FF93DF93CF93CDB7DEB7000080EC90E001
:1004A000FC0180818823D4F781E080930601CF91FD
:1004B000DF91FF91EF919F918F910F900FBE0F9061
:1004C0001F9018951F920F920FB60F9211240F9341
:1004D0001F932F933F934F935F936F937F938F93CC
:1004E0009F93AF93BF93EF93FF93DF93CF93CDB7DA
:1004F000DEB76897DEBFCDBF80910201813009F081
:1005000009C1209104013091050180910001909171
:1005100001012817390708F4EEC085E290E025E2D2
:1005200030E0F90120812160FC01208380E090E02F
:10053000A0EAB0E489839A83AB83BC8369817A8122
:100540008B819C812BEA3AEA4AEA50E40E940C052E
:10055000DC01CB018D839E83AF83B88711E06D8171
:100560007E818F81988520E030E040E85FE30E9443
:10057000FB0388230CF010E0112319F081E0898738
:10058000A3C011E06D817E818F81988520E030E0ED
:100590004FE753E40E94080518160CF010E01123F1
:1005A00009F489C069817A818B819C8120E030E0E7
:1005B0004AE754E40E94FF03DC01CB018A879B8752
:1005C000AC87BD876A857B858C859D8520E030E082
:1005D0004AE755E40E940C05DC01CB018E879F871A
:1005E000A88BB98B11E06E857F858889998920E079
:1005F00030E040E85FE30E94FB0388230CF010E04A
:10060000112329F081E090E09B8B8A8B46C011E09A
:100610006E857F858889998920E03FEF4FE757E411
:100620000E94080518160CF010E0112361F16A858C
:100630007B858C859D8520E030E040E251E40E947E
:100640000C05DC01CB01BC01CD010E946704DC017B
:10065000CB019B8B8A8B12C080E991E09D8B8C8BA8
:100660008C899D898C01C8010197F1F78C011D8B44
:100670000C8B8A899B8901979B8B8A8B8A899B89A2
:10068000009751F728C06E857F85888999890E94D7
:100690006704DC01CB019B8B8A8B8A899B899F8BAA
:1006A0008E8B8E899F898C01F8013197F1F78F012C
:1006B0001F8B0E8B10C06D817E818F8198850E946B
:1006C0006704DC01CB0189878985888F888D182F85
:1006D0001A95F1F7188F85E290E025E230E0F901F4
:1006E00020812E7FFC0120831092050110920401CD
:1006F000109202010FC080910401909105010097B2
:1007000049F08091040190910501019690930501B3
:10071000809304016896DEBFCDBFCF91DF91FF913A
:10072000EF91BF91AF919F918F917F916F915F9169
:100730004F913F912F911F910F910F900FBE0F90EE
:100740001F9018951F920F920FB60F9211248F933E
:10075000DF93CF93CDB7DEB781E080930201CF91D5
:10076000DF918F910F900FBE0F901F901895DF9320
:10077000CF9300D0CDB7DEB79A83898385EC90E024
:1007800029813A81232F3327FC01208384EC90E0D8
:100790002981FC01208381EC90E028E9FC01208381
:1007A00082EC90E026E0FC0120830F900F90CF9127
:1007B000DF910895DF93CF930F92CDB7DEB7898392
:1007C000000080EC90E0FC018081882F90E0807236
:1007D00090700097B1F386EC90E02981FC012083B2
:1007E0000F90CF91DF910895DF93CF93CDB7DEB710
:1007F000CF91DF91089597D008F481E008950CD04F
:10080000CDC0C5D040F0BCD030F021F45F3F19F02E
:10081000AEC05111F7C0B1C0D2D098F39923C9F33B
:100820005523B1F3951B550BBB27AA2762177307F6
:10083000840738F09F5F5F4F220F331F441FAA1FAA
:10084000A9F333D00E2E3AF0E0E830D0915050406A
:10085000E695001CCAF729D0FE2F27D0660F771F18
:10086000881FBB1F261737074807AB07B0E809F0FA
:10087000BB0B802DBF01FF2793585F4F2AF09E3F8F
:10088000510568F074C0BEC05F3FECF3983EDCF3E6
:10089000869577956795B795F7959F5FC9F7880F08
:1008A000911D9695879597F90895E1E0660F771F5A
:1008B000881FBB1F621773078407BA0720F0621BEB
:1008C000730B840BBA0BEE1F88F7E09508957FD069
:1008D00088F09F5790F0B92F9927B751A0F0D1F029
:1008E000660F771F881F991F1AF0BA95C9F712C0B3
:1008F000B13081F086D0B1E0089583C0672F782FA2
:100900008827B85F39F0B93FCCF38695779567951E
:10091000B395D9F73EF490958095709561957F4F8A
:100920008F4F9F4F0895990F0008550FAA0BE0E8CD
:10093000FEEF16161706E807F907C0F012161306A1
:10094000E407F50798F0621B730B840B950B39F4E1
:100950000A2661F0232B242B252B21F408950A2647
:1009600009F4A140A6958FEF811D811D089597F987
:100970009F6780E870E060E008959FEF80EC089545
:1009800000240A941616170618060906089500246E
:100990000A9412161306140605060895092E0394E8
:1009A000000C11F4882352F0BB0F40F4BF2B11F45C
:1009B00060FF04C06F5F7F4F8F4F9F4F089557FDBB
:1009C0009058440F551F59F05F3F71F04795880FBD
:1009D00097FB991F61F09F3F79F087950895121654
:1009E00013061406551FF2CF4695F1DF08C0161600
:1009F00017061806991FF1CF8695710561050894B1
:100A00000895E894BB2766277727CB0197F90895C7
:100A10008ADF08F48FEF08950BD0C0CFB1DF28F044
:100A2000B6DF18F0952309F0A2CFA7CF1124EACFA3
:100A3000C6DFA0F3959FD1F3950F50E0551F629F3D
:100A4000F001729FBB27F00DB11D639FAA27F00D27
:100A5000B11DAA1F649F6627B00DA11D661F829F4E
:100A60002227B00DA11D621F739FB00DA11D621F33
:100A7000839FA00D611D221F749F3327A00D611D50
:100A8000231F849F600D211D822F762F6A2F112432
:100A90009F5750408AF0E1F088234AF0EE0FFF1F85
:100AA000BB1F661F771F881F91505040A9F79E3FBC
:100AB000510570F05CCFA6CF5F3FECF3983EDCF3BE
:100AC000869577956795B795F795E7959F5FC1F7F9
:100AD000FE2B880F911D9695879597F90895F894A8
:020AE000FFCF46
:040AE20014000100FB
:00000001FF
