:100000000C944C000C9463000C9463000C946300FB
:100010000C9463000C9463000C9463000C946300D4
:100020000C9463000C9463000C9463000C946300C4
:100030000C9463000C9463000C9463000C946300B4
:100040000C9463000C9463000C9463000C946300A4
:100050000C9463000C9463000C9463000C94630094
:100060000C9463000C9463000C9463000C94630084
:100070000C9463000C9463000C9463000C94630074
:100080000C9463000C9463000C9463000C94630064
:100090000C9463000C94630011241FBECFEFD0E2D8
:1000A000DEBFCDBF11E0A0E0B1E0E0E0F3E100E0B1
:1000B0000BBF02C007900D92A830B107D9F70E947C
:1000C00055030C947E090C940000DF93CF9300D06D
:1000D0000F92CDB7DEB79B838A830AC08BE08983FA
:1000E00004C0000089818150898389818823C9F7F0
:1000F00021E08A819B81009709F420E08A819B811D
:1001000001979B838A83222349F70F900F900F90CA
:10011000CF91DF910895DF93CF9300D0CDB7DEB7B5
:100120009A83898388E290E028E230E0F901208117
:100130002F7EFC01208388E290E028E230E0F90184
:1001400020812F7DFC01208388E290E028E230E0CE
:10015000F90120812068FC01208388E290E028E2F8
:1001600030E0F90120812064FC01208382E290E0EC
:100170002981FC0120838EE290E029813A81232F9E
:100180003327FC01208388E290E028E230E0F90187
:1001900020812F7BFC01208388E290E028E230E080
:1001A000F90120812064FC01208388E290E028E2AC
:1001B00030E0F90120812061FC0120830F900F9035
:1001C000CF91DF910895DF93CF9300D0CDB7DEB705
:1001D0009A83898388E290E028E230E0F901208167
:1001E0002F7EFC01208388E290E028E230E0F901D4
:1001F00020812062FC01208388E290E028E230E048
:10020000F90120812068FC01208388E290E028E247
:1002100030E0F90120812064FC01208382E290E03B
:100220002981FC0120838EE290E029813A81232FED
:100230003327FC01208388E290E028E230E0F901D6
:1002400020812F7BFC01208388E290E028E230E0CF
:10025000F90120812064FC01208388E290E028E2FB
:1002600030E0F90120812061FC0120830F900F9084
:10027000CF91DF910895DF93CF93CDB7DEB788E2BA
:1002800090E028E230E0F90120812068FC01208321
:1002900088E290E028E230E0F90120812064FC014E
:1002A000208388E290E028E230E0F901208120619B
:1002B000FC01208388E290E028E230E0F90120810F
:1002C0002062FC01208382E290E0FC0110828EE239
:1002D00090E0FC01108288E290E028E230E0F90131
:1002E0002081277FFC01208388EC90E00E9465003C
:1002F00088E290E028E230E0F90120812860FC01EA
:10030000208384EF91E00E94650088E290E00E94E3
:100310008B0086E090E00E94E30080E090E00E9485
:100320008B0081E090E00E94E30080E190E00E9479
:100330008B0080E090E00E94E30081E090E00E946A
:100340008B008FEE92E30E94E30082E090E00E9437
:100350008B0080E096E00E94E30083E090E00E9442
:100360008B0088E39AE60E94E30081E190E00E941E
:100370008B0080E798E60E94E3008FE090E00E9407
:100380008B0080E090E00E94E3008BE090E00E9410
:100390008B0088E093E50E94E3008CE090E00E94EF
:1003A0008B0083E090E00E94E3008DE090E00E94EB
:1003B0008B008AE090E00E94E3008EE090E00E94D3
:1003C0008B0080E09EE20E94E3008EE190E00E94BC
:1003D0008B008EEB90E00E94E30085E290E00E94AB
:1003E0008B0080E090E80E94E30086E290E00E94AB
:1003F0008B0080E098E70E94E3008EE490E00E948A
:100400008B0080E090E00E94E3008FE490E00E9487
:100410008B0080E090E00E94E30082E190E00E9487
:100420008B0089ED98E00E94E30080E390E00E9459
:100430008B0080E090E00E94E30081E390E00E9466
:100440008B0084E091E00E94E30082E390E00E9450
:100450008B0080E091E00E94E30083E390E00E9443
:100460008B0085E093E00E94E30084E390E00E942B
:100470008B0085E095E00E94E30085E390E00E9418
:100480008B0085E093E00E94E30086E390E00E9409
:100490008B0087E097E00E94E30087E390E00E94F2
:1004A0008B0080E093E00E94E3008AE390E00E94EA
:1004B0008B0080E092E10E94E3008BE390E00E94D9
:1004C0008B0080E098E00E94E30087E090E00E94CB
:1004D0008B0083E390E00E94E30086E990E00E94B5
:1004E000650082E290E00E948B00CF91DF91089539
:1004F000DF93CF93CDB7DEB78EE490E00E948B0000
:1005000080E090E00E94E3008FE490E00E948B0086
:1005100080E090E00E94E30084E490E00E948B0081
:1005200080E09FEE0E94E30085E490E00E948B0053
:1005300080E090E00E94E30086E490E00E948B005F
:100540008FE391E00E94E30082E290E00E948B0042
:10055000CF91DF910895DF93CF9300D000D000D0EA
:10056000CDB7DEB79E838D830E9478021A821982EE
:1005700016C01C821B8209C08D819E810E94E300EF
:100580008B819C8101969C838B838B819C81803F96
:10059000910590F389819A8101969A838983898153
:1005A0009A8121E08034920720F326960FB6F894C2
:1005B000DEBF0FBECDBFCF91DF910895DF93CF9304
:1005C00000D000D0CDB7DEB70E9478021A8219821F
:1005D0005EC01C821B8250C089819A8121E08831D3
:1005E000920728F080E090E00E94E30040C08981FB
:1005F0009A81803F910528F08FE190E00E94E3000E
:1006000036C089819A81883C910528F080EE97E078
:100610000E94E3002CC089819A81803A910528F0DC
:100620008FEF97E00E94E30022C089819A8188378A
:10063000910528F080E098EF0E94E30018C08981BE
:100640009A818035910528F08FE198EF0E94E300B0
:100650000EC089819A818832910528F080EE9FEF43
:100660000E94E30004C08FEF9FEF0E94E3008B81A4
:100670009C8101969C838B838B819C81803F91051B
:1006800008F4AACF89819A8101969A838983898106
:100690009A8121E08034920708F49BCF0F900F904D
:1006A0000F900F90CF91DF9108950F931F93DF93D9
:1006B000CF93CDB7DEB72E970FB6F894DEBF0FBE3F
:1006C000CDBF81E290E02FEFFC0120838DE290E02E
:1006D0002FEFFC01208387E290E02FEFFC012083C5
:1006E0008FEF9FEF0E9465000E943B010E94DE0297
:1006F0008FEF9FEF0E94650088E290E028E230E0F3
:10070000F901308121E02327FC01208380E090E083
:10071000AAEFB3E489839A83AB83BC8369817A812E
:100720008B819C8120E030E44CE155E40E94DB05A4
:10073000DC01CB018D839E83AF83B88711E06D818F
:100740007E818F81988520E030E040E85FE30E9461
:10075000350788230CF010E0112329F081E090E0A8
:100760009A87898746C011E06D817E818F81988547
:1007700020E03FEF4FE757E40E94D50618160CF033
:1007800010E0112361F169817A818B819C8120E0E5
:1007900030E040E251E40E94DB05DC01CB01BC010A
:1007A000CD010E940704DC01CB019A87898712C022
:1007B0008AEF90E09C878B878B859C858C01C80194
:1007C0000197F1F78C011C870B8789859A85019722
:1007D0009A87898789859A85009751F78DCF6D8192
:1007E0007E818F8198850E940704DC01CB019A8766
:1007F000898789859A859E878D878D859E858C01C1
:10080000F8013197F1F78F011E870D8775CFEF92B1
:10081000FF920F931F937B018C0120E030E040E0BA
:100820005FE40E94050787FD11C0C801B70120E001
:1008300030E040E05FE40E94AA050E9465079B014A
:10084000AC01205030404040504806C0C801B701BC
:100850000E9465079B01AC01B901CA011F910F916C
:10086000FF90EF900895A0E0B0E0E9E3F4E00C948D
:100870004B09FC01EA018081823008F438C1DB01B8
:100880009C91923008F430C1843059F4943009F0CE
:100890002EC1918111968C911197981709F021C161
:1008A00026C1943009F420C19230B1F4823009F0AD
:1008B0001EC1CA01AF0128E0DA010D90AD01DC01D3
:1008C0000D92CD012150C1F7DB0111968C9111974A
:1008D0009181892389830AC1823009F405C1C280CC
:1008E000D380DB0112966D907C9013972481358123
:1008F000468157811496ED90FD900D911C911797AC
:10090000C601861997095C0197FF04C0AA24BB247D
:10091000A81AB90AB0E2AB16B1040CF061C01816FF
:1009200019066CF5370148010A2C04C09694879487
:10093000779467940A94D2F781E090E0A0E0B0E069
:100940000A2C04C0880F991FAA1FBB1F0A94D2F754
:100950000197A109B1098E219F21A023B123EE2483
:10096000FF248701E3940097A105B10519F4EE2453
:10097000FF248701E628F728082919293CC0009799
:10098000D1F1CA0CDB1C39014A010A2C04C096942F
:100990008794779467940A94D2F781E090E0A0E07E
:1009A000B0E00A2C04C0880F991FAA1FBB1F0A942D
:1009B000D2F70197A109B10982239323A423B52378
:1009C00021E030E040E050E00097A105B10519F4C6
:1009D00020E030E0A90126293729482959290BC0F0
:1009E0006C147D0424F4EE24FF24870104C0630109
:1009F00020E030E0A9018181FB019181891709F490
:100A000045C0882349F0D801C701821B930BA40B72
:100A1000B50B9C01AD0104C02E193F09400B510BD1
:100A200057FD04C01982DB82CA820BC081E0898332
:100A3000DB82CA8250954095309521953F4F4F4FAC
:100A40005F4F2C833D834E835F830DC0880F991FBA
:100A5000AA1FBB1F8C839D83AE83BF838A819B812A
:100A600001979B838A838C819D81AE81BF819C018C
:100A7000AD0121503040404050402F3FEFEF3E0746
:100A8000EFEF4E07EFE35E0708F30BC08983DB82CD
:100A9000CA822E0D3F1D401F511F2C833D834E8364
:100AA0005F8383E088832C813D814E815F8157FF86
:100AB0001DC0DA01C90181709070A070B0705695A8
:100AC000479537952795822B932BA42BB52B8C8399
:100AD0009D83AE83BF838A819B8101969B838A839A
:100AE00005C0E0E0F1E003C0FB0101C0FE01CF0161
:100AF000CDB7DEB7EEE00C946709A0E2B0E0E3E822
:100B0000F5E00C94530969837A838B839C832D834E
:100B10003E834F83588789E0E82EF12CEC0EFD1EB2
:100B2000CE010196B7010E9485088E010F5E1F4F0E
:100B3000CE010596B8010E948508C701B801AE0133
:100B4000475E5F4F0E9433040E94B707A096E6E01D
:100B50000C946F09A0E2B0E0E0EBF5E00C945309CF
:100B600069837A838B839C832D833E834F8358874D
:100B70008E01075F1F4FCE010196B8010E948508C4
:100B800091E1E92EF12CEC0EFD1ECE010596B70188
:100B90000E9485088A8991E089278A8BC801B7015C
:100BA000AE01475E5F4F0E9433040E94B707A096D4
:100BB000E6E00C946F09A0E2B0E0E1EEF5E00C9401
:100BC000470969837A838B839C832D833E834F837C
:100BD0005887CE010196BE01675F7F4F0E9485084E
:100BE000CE010596BE016F5E7F4F0E9485089985F4
:100BF000923078F089898230C0F0943019F48230D4
:100C000041F4CBC0843019F4923079F4C6C09230EC
:100C100051F481E02A859A89291709F480E08A87AE
:100C2000CE010996BCC0823051F481E02A859A89B0
:100C3000291709F480E08A8BCE014196B0C06D84FB
:100C40007E848F849888ED88FE880F89188DE0E275
:100C5000F0E080E090E0DC01AA24BB24650120E004
:100C600030E0A901B3016170707061157105D1F0B8
:100C70002E0D3F1D401F511F15012601280E391E44
:100C80004A1E5B1E81E090E0A0E0B0E02E153F051B
:100C90004007510718F080E090E0DC01820D931DC1
:100CA000A41DB51DAA0CBB1CCC1CDD1C17FF09C064
:100CB00061E0262E312C412C512CA228B328C428C7
:100CC000D528319749F0EE0CFF1C001F111F969498
:100CD000879477946794C6CF6B897C89EB85FC8574
:100CE0006E0F7F1F6E5F7F4F7C8F6B8F61E0EA8599
:100CF0007A89E71709F460E06A8F6B8D7C8D10C0EC
:100D0000FC01E170F070309729F0569547953795C2
:100D100027955068B695A795979587956F5F7F4FF4
:100D2000B7FDEECF0CC0880F991FAA1FBB1F57FD40
:100D30008160220F331F441F551F61507040803067
:100D4000E0E09E07E0E0AE07E0E4BE0760F36B8FF3
:100D50007C8F6FE7E62EF12C012D112DE822F92270
:100D60000A231B2360E4E616F1040105110561F472
:100D700087FD0AC0211531054105510529F0805C28
:100D80009F4FAF4FBF4F80788D8F9E8FAF8FB8A38F
:100D900083E0898FCE01499602C080E091E00E94F5
:100DA000B707A096E2E10C946309A8E1B0E0EBED8F
:100DB000F6E00C94530969837A838B839C832D839B
:100DC0003E834F8358878E01075F1F4FCE010196E8
:100DD000B8010E94850881E1E82EF12CEC0EFD1E81
:100DE000CE010596B7010E9485088985823040F0C2
:100DF0008989823028F0C801B7010E94EE0801C03D
:100E00008FEF6896E6E00C946F09A8E1B0E0EBE0A4
:100E1000F7E00C94530969837A838B839C832D8339
:100E20003E834F8358878E01075F1F4FCE01019687
:100E3000B8010E94850881E1E82EF12CEC0EFD1E20
:100E4000CE010596B7010E9485088985823040F061
:100E50008989823028F0C801B7010E94EE0801C0DC
:100E60008FEF6896E6E00C946F09A8E1B0E0EBE341
:100E7000F7E00C94530969837A838B839C832D83D9
:100E80003E834F8358878E01075F1F4FCE01019627
:100E9000B8010E94850881E1E82EF12CEC0EFD1EC0
:100EA000CE010596B7010E9485088985823040F001
:100EB0008989823028F0C801B7010E94EE0801C07C
:100EC00081E06896E6E00C946F09ACE0B0E0EBE6F8
:100ED000F7E00C94570969837A838B839C83CE0156
:100EE0000196BE016B5F7F4F0E9485088D81823025
:100EF00081F1823070F1843021F48E81882369F190
:100F00000AC02F81388537FD24C06E812F3131050D
:100F10003CF0662311F120E030E040E050E821C0D1
:100F20008EE190E0821B930B29853A854B855C8589
:100F300004C056954795379527958A95D2F766232D
:100F400081F050954095309521953F4F4F4F5F4F21
:100F500008C020E030E0A90104C02FEF3FEF4FEFC1
:100F60005FE7B901CA012C96E2E00C947309EF9295
:100F7000FF920F931F93CF93DF93FC012481358160
:100F80004681578161818081823020F44061EFEF9A
:100F9000F0E0A3C0843009F49BC0823009F492C011
:100FA000211531054105510509F48FC00280F381F7
:100FB000E02D8FEFE238F8070CF05AC0C2E8DFEFFF
:100FC000CE1BDF0BCA31D1056CF579018A010C2EDD
:100FD00004C016950795F794E7940A94D2F781E038
:100FE00090E0A0E0B0E00C2E04C0880F991FAA1F6B
:100FF000BB1F0A94D2F70197A109B1098223932359
:10100000A423B52321E030E040E050E00097A105A3
:10101000B10519F420E030E0A9012E293F29402B29
:10102000512B03C020E030E0A901DA01C9018F771C
:101030009070A070B07080349105A105B10539F4AD
:1010400027FF09C0205C3F4F4F4F5F4F04C0215C1A
:101050003F4F4F4F5F4FE1E0F0E0203080E0380736
:1010600080E0480780E4580728F5E0E0F0E022C07F
:10107000E038F1056CF5E158FF4FDA01C9018F77CF
:101080009070A070B07080349105A105B10539F45D
:1010900027FF09C0205C3F4F4F4F5F4F04C0215CCA
:1010A0003F4F4F4F5F4F57FF05C0569547953795B8
:1010B0002795319687E056954795379527958A95D8
:1010C000D1F70BC0E0E0F0E005C0E0E0F0E005C0E3
:1010D000EFEFF0E020E030E0A9018E2F8795882720
:1010E0008795942F9F77679566276795E695E22EFB
:1010F000A92FA82BFE2FF62B622F732F8A2F9F2F3D
:10110000CDB7DEB7E6E00C946F09DC01FB012C9152
:1011100011963C91119712968C911297482F4F7708
:1011200050E0982F991F9927991F13966C91139748
:10113000862F880F892B90E0661F6627661F6183C4
:10114000009739F5211531054105510511F482E06B
:1011500029C082E89FEF9383828367E0220F331FC9
:10116000441F551F6A95D1F783E0808309C0220F81
:10117000331F441F551F828193810197938382837C
:10118000203080E0380780E0480780E4580778F393
:1011900020C08F3F910579F4211531054105510596
:1011A00019F484E08083089544FF03C081E08083C4
:1011B00010C010820EC08F5790409383828383E0CB
:1011C000808387E0220F331F441F551F8A95D1F774
:1011D000506424833583468357830895FC01DB01E3
:1011E0009081923008F449C08C91823008F445C057
:1011F000943051F461818430B1F511962C9111979E
:1012000030E0261B310941C0843021F0923041F496
:101210008230B1F111968C9111978823A1F12DC0E4
:101220006181823001F111968C9111976817D9F480
:101230002281338112968D919C9113978217930787
:1012400094F028173907BCF02481358146815781F5
:1012500014968D919D910D90BC91A02D82179307AE
:10126000A407B50718F4662341F00DC02817390705
:101270004A075B0728F4662331F021E030E005C01F
:1012800020E030E002C02FEF3FEFC90108952F9218
:101290003F924F925F926F927F928F929F92AF9206
:1012A000BF92CF92DF92EF92FF920F931F93CF9353
:1012B000DF93CDB7DEB7CA1BDB0B0FB6F894DEBFEA
:1012C0000FBECDBF09942A88398848885F846E8410
:1012D0007D848C849B84AA84B984C884DF80EE805A
:1012E000FD800C811B81AA81B981CE0FD11D0FB663
:1012F000F894DEBF0FBECDBFED010895F894FFCF87
:081300000000000000000000E5
:00000001FF
