:100000000C944C000C9456000C9456000C94560022
:100010000C9456000C9456000C9456000C94560008
:100020000C9456000C9456000C9456000C945600F8
:100030000C9456000C9456000C9456000C945600E8
:100040000C9456000C9456000C9456000C945600D8
:100050000C9456000C9456000C9456000C945600C8
:100060000C9456000C9456000C9456000C945600B8
:100070000C9456000C9456000C9456000C945600A8
:100080000C9456000C9456000C9456000C94560098
:100090000C9456000C94560011241FBECFEFD0E2F2
:1000A000DEBFCDBF0E9409020C9430020C94000008
:1000B00005C02BE000002150E9F701970097C9F730
:1000C000089544984598479A469A82B99EB94698A9
:1000D000469A449A08954498459A479A469A82B90E
:1000E0009EB94698469A449A0895479A469A449AE1
:1000F000459A12B81EB8439888EC90E00E945800C8
:10010000439A84EF91E00E94580088E290E00E94B8
:10011000610086E090E00E946B0080E090E00E9429
:10012000610081E090E00E946B0080E190E00E941D
:10013000610080E090E00E946B0081E090E00E940E
:1001400061008FEE92E30E946B0082E090E00E94DB
:10015000610080E096E00E946B0083E090E00E94E6
:10016000610088E39AE60E946B0081E190E00E94C2
:10017000610080E798E60E946B008FE090E00E94AB
:10018000610080E090E00E946B008BE090E00E94B4
:10019000610088E093E50E946B008CE090E00E9493
:1001A000610083E090E00E946B008DE090E00E948F
:1001B00061008AE090E00E946B008EE090E00E9477
:1001C000610080E09EE20E946B008EE190E00E9460
:1001D00061008EEB90E00E946B0085E290E00E944F
:1001E000610080E090E80E946B0086E290E00E944F
:1001F000610080E098E70E946B008EE490E00E942E
:10020000610080E090E00E946B008FE490E00E942B
:10021000610080E090E00E946B0082E190E00E942B
:10022000610089ED98E00E946B0080E390E00E94FD
:10023000610080E090E00E946B0081E390E00E940A
:10024000610084E091E00E946B0082E390E00E94F4
:10025000610080E091E00E946B0083E390E00E94E7
:10026000610085E093E00E946B0084E390E00E94CF
:10027000610085E095E00E946B0085E390E00E94BC
:10028000610085E093E00E946B0086E390E00E94AD
:10029000610087E097E00E946B0087E390E00E9496
:1002A000610080E093E00E946B008AE390E00E948E
:1002B000610080E092E10E946B008BE390E00E947D
:1002C000610080E098E00E946B0087E090E00E946F
:1002D000610083E390E00E946B0086E990E00E9459
:1002E000580082E290E00E94610008958EE490E060
:1002F0000E94610080E090E00E946B008FE490E03B
:100300000E94610080E090E00E946B0084E490E035
:100310000E94610080E09FEE0E946B0085E490E007
:100320000E94610080E090E00E946B0086E490E013
:100330000E9461008FE391E00E946B0082E290E0F6
:100340000E9461000895EF92FF920F931F93CF9345
:10035000DF937C010E947601C0E4D1E008C0C701B0
:100360000E946B0001501040D1F7219719F000EF67
:1003700010E0F5CFDF91CF911F910F91FF90EF909B
:1003800008950F931F93CF93DF930E947601C0E0EF
:10039000D0E037C081E0C831D80718F080E090E0A5
:1003A00026C0C03FD10518F08FE190E020C0C83CC6
:1003B000D10518F080EE97E01AC0C03AD10518F0C8
:1003C0008FEF97E014C0C837D10518F080E098EFA0
:1003D0000EC0C035D10518F08FE198EF08C0C832C3
:1003E000D10518F080EE9FEF02C08FEF9FEF0E94C3
:1003F0006B000150104071F6219681E0C034D8079F
:1004000019F000EF10E0C6CFDF91CF911F910F914F
:1004100008958FEF81B98DB987B98FEF9FEF0E9453
:1004200058000E9475000E94C1012FE734E84EE198
:10043000215030404040E1F700C000008FEF9FEFB7
:100440000E94580091E088B1892788B92FE33DE0E8
:1004500043E0215030404040E1F700C00000F3CFBE
:04046000F894FFCF3E
:00000001FF
