:100000000C9446000C9465000C9465000C946500FB
:100010000C9465000C9465000C9465000C946500CC
:100020000C9465000C9465000C9465000C946500BC
:100030000C9465000C9465000C9465000C946500AC
:100040000C9465000C9465000C9465000C9465009C
:100050000C9465000C9465000C9465000C9465008C
:100060000C9465000C9465000C9465000C9465007C
:100070000C9465000C9465000C9465000C9465006C
:100080000C9465000C9465000C94650011241FBE4F
:10009000CFEFD0E1DEBFCDBF11E0A0E0B1E0EEECEC
:1000A000F8E000E00BBF02C007900D92A430B1074A
:1000B000D9F711E0A4E0B1E001C01D92A630B1076C
:1000C000E1F70E947C010C9465040C940000AD9A49
:1000D00089EF90E00197F1F700C00000AD98089516
:1000E0001F93662311F0AC9A01C0AC98A09AA19A14
:1000F000A29AA39AAB98AA98A998A89887FDAB9AB8
:10010000182F86FDAA9A15FDA99A14FDA89A0E9497
:100110006700AB98AA98A998A89813FDAB9A12FD0E
:10012000AA9A11FDA99A10FDA89A0E946700A89AA0
:10013000A99AAA9AAB9A83E58A95F1F700001F91D4
:10014000089560E00E9470000895843030F4E82F34
:10015000F0E0E050FF4F908101C090E080930401F7
:1001600010920501892F80580E94A10008958A30BD
:1001700069F480910401909105011816190614F490
:1001800080E001C08F5F0E94A500089561E00E9499
:1001900070000895CF93DF93EC0102C00E94B70076
:1001A00089918823D9F7DF91CF9108950F931F93F9
:1001B000DF93CF93CDB7DEB7C050D1400FB6F894E0
:1001C000DEBF0FBECDBFFE01E95FFE4F41915191F1
:1001D0008E010F5F1F4FC8016FEF70E09F010E94FB
:1001E0007D01C8010E94CA00C050DF4F0FB6F894CD
:1001F000DEBF0FBECDBFCF91DF911F910F9108954C
:10020000662319F0613041F404C080580E94A100B7
:10021000089588550E94A10008951092050110923A
:10022000040181E00E94A1000E94670083EC99E034
:100230000197F1F700C000000895A49AA59AA09A2A
:10024000A19AA29AA39A8BE49DE10197F1F700C0CD
:100250000000A99AA89A0E94670081EE94E0019795
:10026000F1F700C000000E94670095E19A95F1F750
:100270000000A8980E94670089EF90E00197F1F7CD
:1002800000C000000E940D0187E893E10197F1F79B
:1002900000C0000088E20E94A1000E94670089EF70
:1002A00090E00197F1F700C0000086E00E94A100F5
:1002B0000E94670089EF90E00197F1F700C000000D
:1002C0008FE00E94A1000E94670089EF90E00197F3
:1002D000F1F700C00000089510920501109204018A
:1002E00082E00E94A1000E94670083EC99E00197E0
:1002F000F1F700C000000895FFCF0F931F93DF9325
:10030000CF93CDB7DEB72E970FB6F894DEBF0FBEF2
:10031000CDBF8C01CB01BA0146E04C831A8309831F
:1003200097FF02C080E090E801979E838D83CE0105
:100330000196A9010E94B5014D815E8157FD0AC059
:100340002F813885421753070CF49A01020F131FAF
:10035000F80110822E960FB6F894DEBF0FBECDBF07
:10036000CF91DF911F910F9108952F923F924F925D
:100370005F926F927F928F929F92AF92BF92CF9235
:10038000DF92EF92FF920F931F93DF93CF93CDB73E
:10039000DEB72C970FB6F894DEBF0FBECDBF6C0151
:1003A0001B018A01FC0117821682838181FFD1C162
:1003B0002E010894411C511CF6019381F10193FD1B
:1003C000859193FF81911F01882309F4BEC1853275
:1003D00039F493FD859193FF81911F01853229F4B2
:1003E00090E0B6010E94DB03E7CFEE24FF2420E07B
:1003F0002032B0F48B3269F08C3228F4803251F024
:10040000833271F40BC08D3239F0803349F42160AE
:100410002CC02260246029C0286027C0206125C02C
:1004200027FD2CC0382F30533A3098F426FF08C0EF
:100430008E2D880FE82EEE0CEE0CE80EE30E15C0A4
:100440008F2D880FF82EFF0CFF0CF80EF30E206294
:100450000CC08E3221F426FD78C1206406C08C3693
:1004600011F4206802C0883649F4F10193FD8591AA
:1004700093FF81911F01882309F0BACF982F9554DB
:10048000933018F09052933028F40C5F1F4FFFE325
:10049000F9830DC0833631F0833771F0833509F06D
:1004A00060C022C0F801808189830E5F1F4F420126
:1004B00071E0A72EB12C16C062E0662E712C600E82
:1004C000711EF8018080918026FF03C06E2D70E0C0
:1004D00002C06FEF7FEFC4012C870E94D0035C0144
:1004E00083012C852F7717C052E0652E712C600E8A
:1004F000711EF8018080918026FF03C06E2D70E090
:1005000002C06FEF7FEFC4012C870E94C5035C011E
:100510002C852068830123FD20C008C080E290E084
:10052000B6012C870E94DB03FA942C858F2D90E076
:10053000A816B90698F311C0F40127FD859127FF8D
:1005400081914F0190E0B6012C870E94DB032C853E
:10055000F110FA940894A108B108A114B10461F74C
:10056000F1C0843611F0893649F527FF08C0F8013B
:1005700060817181828193810C5F1F4F09C0F801F6
:1005800060817181882777FD8095982F0E5F1F4FBE
:100590004FE6B42EB22297FF09C0909580957095D2
:1005A00061957F4F8F4F9F4FF0E8BF2AA2012AE04D
:1005B00030E00E940704782E741845C0853731F466
:1005C0003FEEB32EB2222AE030E025C099EFB92EDB
:1005D000B2228F36C1F0803720F4883509F0B5C0DB
:1005E0000DC0803721F0883709F0AFC002C020E18C
:1005F000B22AB4FE0BC084E0B82A08C0B4FE09C019
:10060000E6E0BE2A06C028E030E005C020E130E088
:1006100002C020E132E0B7FE08C0F80160817181BC
:10062000828193810C5F1F4F07C0F8016081718147
:1006300080E090E00E5F1F4FA2010E940704782E19
:100640007418FFE7BF22B6FE0BC02EEFB2227E1455
:1006500038F4B4FE07C0B2FC05C08FEEB82202C069
:10066000A72C01C0AE2C8B2D90E0B4FE0DC0FE0176
:10067000E70DF11D2081203319F4E9EEBE2209C0F7
:10068000A394B2FE06C004C086789070009709F06B
:10069000A3948B2C9924B3FC14C0B0FE0FC0AF14EC
:1006A00028F4E72CEF0CEA18AF2C08C0E72C06C0A2
:1006B00080E290E0B6010E94DB03A394AF14C0F384
:1006C00004C0AF1410F4FA1801C0FF2484FE0FC058
:1006D00080E390E0B6010E94DB0382FE1FC081FE32
:1006E00003C088E590E010C088E790E00DC0C40129
:1006F00086789070009791F081FC02C080E201C082
:100700008BE2B7FC8DE290E0B6010E94DB0306C0ED
:1007100080E390E0B6010E94DB03EA947E14C0F30C
:100720007A94F201E70DF11D808190E0B6010E94FC
:10073000DB037720A9F706C080E290E0B6010E94B3
:10074000DB03FA94FF20C1F737CEF601268137810B
:1007500002C02FEF3FEFC9012C960FB6F894DEBF11
:100760000FBECDBFCF91DF911F910F91FF90EF9002
:10077000DF90CF90BF90AF909F908F907F906F90C1
:100780005F904F903F902F900895FC01059061502D
:1007900070400110D8F7809590958E0F9F1F089597
:1007A000FC016150704001900110D8F78095909540
:1007B0008E0F9F1F08950F931F93CF93DF938C018C
:1007C000EB018B8181FF1BC082FF0DC02E813F8119
:1007D0008C819D812817390764F4E881F9810193A0
:1007E000F983E88306C0E885F985802F099500978D
:1007F00031F48E819F8101969F838E8302C00FEF1B
:100800001FEFC801DF91CF911F910F910895FA0159
:10081000AA27283051F1203181F1E8946F936E7F3F
:100820006E5F7F4F8F4F9F4FAF4FB1E03ED0B4E030
:100830003CD0670F781F891F9A1FA11D680F791F71
:100840008A1F911DA11D6A0F711D811D911DA11D82
:1008500020D009F468943F912AE0269F1124301992
:10086000305D3193DEF6CF010895462F4770405D2D
:100870004193B3E00FD0C9F7F6CF462F4F70405DDC
:100880004A3318F0495D31FD4052419302D0A9F737
:10089000EACFB4E0A6959795879577956795BA9531
:1008A000C9F700976105710508959B01AC010A2EF7
:1008B00006945795479537952795BA95C9F7620FCE
:0E08C000731F841F951FA01D0895F894FFCF8D
:0408CE000028145496
:00000001FF
