:100000000C9434000C9451000C9451000C94FB029D
:100010000C94AB000C9451000C9451000C945100C2
:100020000C9451000C9451000C9451000C94AC02AF
:100030000C9451000C9451000C9451000C945100FC
:100040000C9451000C9451000C94E4000C94510059
:100050000C9451000C9451000C9451000C945100DC
:100060000C9451000C94510011241FBECFEFD8E026
:10007000DEBFCDBF11E0A0E0B1E0E6E6F3E102C0F3
:1000800005900D92AC30B107D9F711E0ACE0B1E0CA
:1000900001C01D92A032B107E1F70E94AA010C94A1
:1000A000B1090C943203DF93CF9300D0CDB7DEB704
:1000B0009A83898387E490E022E8FC01208388E426
:1000C00090E02981FC01208384E490E024E430E086
:1000D000F90120812068FC01208384E490E024E47D
:1000E00030E0F90120812260FC01208385E490E06A
:1000F00025E430E0F90120812260FC0120838EE6B6
:1001000090E023E0FC01208380E890E020E830E0EC
:10011000F90120812064FC01208381E890E021E83E
:1001200030E0F90120812C60FC0120838FE690E013
:100130002FE630E0F90120812260FC01208388E86D
:1001400090E023E234EFFC01318320830F900F9085
:10015000CF91DF9108951F920F920FB60F92112445
:100160008F939F93AF93BF93EF93FF93DF93CF93BF
:10017000CDB7DEB786E290E0FC018081882F90E069
:1001800088709070009799F080910E0190910F0106
:10019000A0911001B09111010196A11DB11D809394
:1001A0000E0190930F01A0931001B0931101CF9114
:1001B000DF91FF91EF91BF91AF919F918F910F9040
:1001C0000FBE0F901F9018951F920F920FB60F92AF
:1001D00011248F939F93EF93FF93DF93CF93CDB72A
:1001E000DEB7000080EC90E0FC0180818823D4F72A
:1001F00081E080930C01CF91DF91FF91EF919F916E
:100200008F910F900FBE0F901F9018950F931F9313
:10021000DF93CF93CDB7DEB760970FB6F894DEBF0C
:100220000FBECDBF988B8F8785C080E090E0A0E89F
:10023000BFE389839A83AB83BC8369817A818B8195
:100240009C8120E030E04AE755E40E949505DC01FE
:10025000CB018D839E83AF83B88711E06D817E8152
:100260008F81988520E030E040E85FE30E94EF0650
:1002700088230CF010E0112329F081E090E09A87A8
:10028000898746C011E06D817E818F81988520E04D
:100290003FEF4FE757E40E948F0618160CF010E06E
:1002A000112361F169817A818B819C8120E030E0AA
:1002B00040E251E40E949505DC01CB01BC01CD0177
:1002C0000E94C103DC01CB019A87898712C080E9B3
:1002D00091E09C878B878B859C858C01C801019759
:1002E000F1F78C011C870B8789859A8501979A877E
:1002F000898789859A85009751F717C06D817E811E
:100300008F8198850E94C103DC01CB019A87898780
:1003100089859A859E878D878D859E858C01C801EC
:100320000197F1F78C011E870D878F8598890197BA
:10033000988B8F878F859889009709F076CF609684
:100340000FB6F894DEBF0FBECDBFCF91DF911F91E6
:100350000F9108950F931F93DF93CF93CDB7DEB71F
:100360002E970FB6F894DEBF0FBECDBF8AE290E0A5
:100370002AE230E0F90120812064FC01208387E239
:1003800090E027E230E0F90120812160FC01208328
:1003900082ED94E00E94530088E690E025E0FC01A5
:1003A00020838DE690E020E1FC0120838BE690E045
:1003B00021E0FC01208380E890E020E830E0F901B2
:1003C00020812064FC01208381E890E021E830E076
:1003D000F90120812C60FC0120838FE690E02FE65C
:1003E00030E0F90120812260FC01208388E890E060
:1003F00023E234EFFC013183208387E690E00E9402
:100400004203789480910D01853048F088E290E0B5
:1004100028E230E0F90120812E7FFC0120838091C9
:100420000D01882F90E024E131E0B9014AE050E06D
:100430000E946C0984E191E00E9463098C5E9E4FEA
:1004400021E031E0B90143E050E00E945A0984E123
:1004500091E00E94900380E090E0AAE7B4E48983F1
:100460009A83AB83BC8369817A818B819C8120E0F4
:1004700030E04AE755E40E949505DC01CB018D830D
:100480009E83AF83B88711E06D817E818F819885CF
:1004900020E030E040E85FE30E94EF0688230CF0A4
:1004A00010E0112329F081E090E09A87898746C007
:1004B00011E06D817E818F81988520E03FEF4FE7CD
:1004C00057E40E948F0618160CF010E0112361F11A
:1004D00069817A818B819C8120E030E040E251E4A7
:1004E0000E949505DC01CB01BC01CD010E94C10336
:1004F000DC01CB019A87898712C080E991E09C8753
:100500008B878B859C858C01C8010197F1F78C0145
:100510001C870B8789859A8501979A8789878985A2
:100520009A85009751F76ECF6D817E818F81988576
:100530000E94C103DC01CB019A87898789859A854E
:100540009E878D878D859E858C01F8013197F1F707
:100550008F011E870D8756CF1F920F920FB60F92F5
:1005600011242F933F934F935F936F937F938F93B8
:100570009F93AF93BF93EF93FF93DF93CF93CDB749
:10058000DEB780910E0190910F01A0911001B09102
:10059000110128EE33E040E050E0BC01CD010E94A3
:1005A0000109DA01C901909313018093120110929D
:1005B0000E0110920F011092100110921101809102
:1005C0000001882329F480910D018F5F80930D0134
:1005D000CF91DF91FF91EF91BF91AF919F918F915B
:1005E0007F916F915F914F913F912F910F900FBE2F
:1005F0000F901F9018951F920F920FB60F92112413
:100600002F933F938F939F93EF93FF93DF93CF931A
:10061000CDB7DEB783E290E0FC018081882F90E0C7
:1006200081709070009731F481E080930001109206
:100630000D010BC01092000188E290E028E230E04A
:10064000F90120812160FC012083CF91DF91FF918E
:10065000EF919F918F913F912F910F900FBE0F902F
:100660001F9018951F920F920FB60F921124DF93CF
:10067000CF93CDB7DEB7CF91DF910F900FBE0F9024
:100680001F901895DF93CF9300D0CDB7DEB79A8334
:1006900089838AE290E02AE230E0F9012081236038
:1006A000FC01208385EC90E029813A81232F3327B8
:1006B000FC01208384EC90E02981FC01208381EC03
:1006C00090E028E9FC01208382EC90E026E0FC0128
:1006D00020830F900F90CF91DF910895DF93CF93F8
:1006E0000F92CDB7DEB78983000080EC90E0FC016B
:1006F0008081882F90E0807290700097B1F386EC33
:1007000090E02981FC0120830F90CF91DF91089523
:10071000DF93CF93CDB7DEB780E0CF91DF9108951F
:10072000DF93CF9300D000D000D0CDB7DEB79E834B
:100730008D838D819E810E9463099C838B831A82A5
:1007400019820FC089819A812D813E81820F931F6A
:10075000FC0180810E946E0389819A8101969A83AF
:10076000898329813A818B819C812817390754F329
:1007700026960FB6F894DEBF0FBECDBFCF91DF91A6
:100780000895EF92FF920F931F937B018C0120E05D
:1007900030E040E05FE40E94BF0687FD11C0C80161
:1007A000B70120E030E040E05FE40E9464050E9471
:1007B0001F079B01AC01205030404040504806C00C
:1007C000C801B7010E941F079B01AC01B901CA0112
:1007D0001F910F91FF90EF900895A0E0B0E0E3EF3C
:1007E000F3E00C942709FC01EA018081823008F4CF
:1007F00038C1DB019C91923008F430C1843059F447
:10080000943009F02EC1918111968C91119798170F
:1008100009F021C126C1943009F420C19230B1F40D
:10082000823009F01EC1CA01AF0128E0DA010D9043
:10083000AD01DC010D92CD012150C1F7DB01119614
:100840008C9111979181892389830AC1823009F49F
:1008500005C1C280D380DB0112966D907C90139706
:1008600024813581468157811496ED90FD900D913C
:100870001C911797C601861997095C0197FF04C060
:10088000AA24BB24A81AB90AB0E2AB16B1040CF032
:1008900061C0181619066CF5370148010A2C04C00E
:1008A00096948794779467940A94D2F781E090E0C5
:1008B000A0E0B0E00A2C04C0880F991FAA1FBB1F3C
:1008C0000A94D2F70197A109B1098E219F21A02393
:1008D000B123EE24FF248701E3940097A105B1051D
:1008E00019F4EE24FF248701E628F728082919299E
:1008F0003CC00097D1F1CA0CDB1C39014A010A2C1B
:1009000004C096948794779467940A94D2F781E010
:1009100090E0A0E0B0E00A2C04C0880F991FAA1F45
:10092000BB1F0A94D2F70197A109B109822393232F
:10093000A423B52321E030E040E050E00097A1057A
:10094000B10519F420E030E0A9012629372948290A
:1009500059290BC06C147D0424F4EE24FF24870174
:1009600004C0630120E030E0A9018181FB01918195
:10097000891709F445C0882349F0D801C701821BB3
:10098000930BA40BB50B9C01AD0104C02E193F09BC
:10099000400B510B57FD04C01982DB82CA820BC089
:1009A00081E08983DB82CA825095409530952195FC
:1009B0003F4F4F4F5F4F2C833D834E835F830DC06E
:1009C000880F991FAA1FBB1F8C839D83AE83BF8393
:1009D0008A819B8101979B838A838C819D81AE81D3
:1009E000BF819C01AD0121503040404050402F3F1D
:1009F000EFEF3E07EFEF4E07EFE35E0708F30BC0A4
:100A00008983DB82CA822E0D3F1D401F511F2C831C
:100A10003D834E835F8383E088832C813D814E81BB
:100A20005F8157FF1DC0DA01C90181709070A0700D
:100A3000B0705695479537952795822B932BA42B0D
:100A4000B52B8C839D83AE83BF838A819B81019666
:100A50009B838A8305C0E4E0F1E003C0FB0101C091
:100A6000FE01CF01CDB7DEB7EEE00C944309A0E262
:100A7000B0E0EDE3F5E00C942F0969837A838B8372
:100A80009C832D833E834F83588789E0E82EF12C89
:100A9000EC0EFD1ECE010196B7010E943F088E01AB
:100AA0000F5E1F4FCE010596B8010E943F08C70197
:100AB000B801AE01475E5F4F0E94ED030E947107CF
:100AC000A096E6E00C944B09A0E2B0E0EAE6F5E07F
:100AD0000C942F0969837A838B839C832D833E83B7
:100AE0004F8358878E01075F1F4FCE010196B801D3
:100AF0000E943F0891E1E92EF12CEC0EFD1ECE0183
:100B00000596B7010E943F088A8991E089278A8B60
:100B1000C801B701AE01475E5F4F0E94ED030E941E
:100B20007107A096E6E00C944B09A0E2B0E0EBE977
:100B3000F5E00C94230969837A838B839C832D834E
:100B40003E834F835887CE010196BE01675F7F4F7A
:100B50000E943F08CE010596BE016F5E7F4F0E9446
:100B60003F089985923078F089898230C0F09430BE
:100B700019F4823041F4CBC0843019F4923079F406
:100B8000C6C0923051F481E02A859A89291709F468
:100B900080E08A87CE010996BCC0823051F481E0A2
:100BA0002A859A89291709F480E08A8BCE0141961B
:100BB000B0C06D847E848F849888ED88FE880F890C
:100BC000188DE0E2F0E080E090E0DC01AA24BB2494
:100BD000650120E030E0A901B3016170707061151A
:100BE0007105D1F02E0D3F1D401F511F150126012B
:100BF000280E391E4A1E5B1E81E090E0A0E0B0E0A6
:100C00002E153F054007510718F080E090E0DC0109
:100C1000820D931DA41DB51DAA0CBB1CCC1CDD1C94
:100C200017FF09C061E0262E312C412C512CA2283F
:100C3000B328C428D528319749F0EE0CFF1C001FBB
:100C4000111F9694879477946794C6CF6B897C899B
:100C5000EB85FC856E0F7F1F6E5F7F4F7C8F6B8FE8
:100C600061E0EA857A89E71709F460E06A8F6B8DA5
:100C70007C8D10C0FC01E170F070309729F0569522
:100C80004795379527955068B695A7959795879579
:100C90006F5F7F4FB7FDEECF0CC0880F991FAA1F63
:100CA000BB1F57FD8160220F331F441F551F61502A
:100CB00070408030E0E09E07E0E0AE07E0E4BE0771
:100CC00060F36B8F7C8F6FE7E62EF12C012D112DD9
:100CD000E822F9220A231B2360E4E616F104010549
:100CE000110561F487FD0AC0211531054105510543
:100CF00029F0805C9F4FAF4FBF4F80788D8F9E8FC4
:100D0000AF8FB8A383E0898FCE01499602C084E0FB
:100D100091E00E947107A096E2E10C943F09A8E1DE
:100D2000B0E0E5E9F6E00C942F0969837A838B83C0
:100D30009C832D833E834F8358878E01075F1F4F0F
:100D4000CE010196B8010E943F0881E1E82EF12C06
:100D5000EC0EFD1ECE010596B7010E943F08898565
:100D6000823040F08989823028F0C801B7010E94A2
:100D7000A80801C08FEF6896E6E00C944B09A8E143
:100D8000B0E0E5ECF6E00C942F0969837A838B835D
:100D90009C832D833E834F8358878E01075F1F4FAF
:100DA000CE010196B8010E943F0881E1E82EF12CA6
:100DB000EC0EFD1ECE010596B7010E943F08898505
:100DC000823040F08989823028F0C801B7010E9442
:100DD000A80801C08FEF6896E6E00C944B09A8E1E3
:100DE000B0E0E5EFF6E00C942F0969837A838B83FA
:100DF0009C832D833E834F8358878E01075F1F4F4F
:100E0000CE010196B8010E943F0881E1E82EF12C45
:100E1000EC0EFD1ECE010596B7010E943F088985A4
:100E2000823040F08989823028F0C801B7010E94E1
:100E3000A80801C081E06896E6E00C944B09ACE09C
:100E4000B0E0E5E2F7E00C94330969837A838B83A1
:100E50009C83CE010196BE016B5F7F4F0E943F08CD
:100E60008D81823081F1823070F1843021F48E8165
:100E7000882369F10AC02F81388537FD24C06E812F
:100E80002F3131053CF0662311F120E030E040E0E5
:100E900050E821C08EE190E0821B930B29853A85B2
:100EA0004B855C8504C056954795379527958A955F
:100EB000D2F7662381F050954095309521953F4FAC
:100EC0004F4F5F4F08C020E030E0A90104C02FEF72
:100ED0003FEF4FEF5FE7B901CA012C96E2E00C94B7
:100EE0004F09EF92FF920F931F93CF93DF93FC0173
:100EF000248135814681578161818081823020F44F
:100F00004061EFEFF0E0A3C0843009F49BC0823071
:100F100009F492C0211531054105510509F48FC02E
:100F20000280F381E02D8FEFE238F8070CF05AC011
:100F3000C2E8DFEFCE1BDF0BCA31D1056CF57901BA
:100F40008A010C2E04C016950795F794E7940A942D
:100F5000D2F781E090E0A0E0B0E00C2E04C0880F52
:100F6000991FAA1FBB1F0A94D2F70197A109B109C3
:100F700082239323A423B52321E030E040E050E016
:100F80000097A105B10519F420E030E0A9012E2950
:100F90003F29402B512B03C020E030E0A901DA01AA
:100FA000C9018F779070A070B07080349105A10551
:100FB000B10539F427FF09C0205C3F4F4F4F5F4F09
:100FC00004C0215C3F4F4F4F5F4FE1E0F0E0203025
:100FD00080E0380780E0480780E4580728F5E0E023
:100FE000F0E022C0E038F1056CF5E158FF4FDA017E
:100FF000C9018F779070A070B07080349105A10501
:10100000B10539F427FF09C0205C3F4F4F4F5F4FB8
:1010100004C0215C3F4F4F4F5F4F57FF05C05695AF
:10102000479537952795319687E05695479537959B
:1010300027958A95D1F70BC0E0E0F0E005C0E0E02D
:10104000F0E005C0EFEFF0E020E030E0A9018E2FE6
:10105000879588278795942F9F776795662767954B
:10106000E695E22EA92FA82BFE2FF62B622F732FC9
:101070008A2F9F2FCDB7DEB7E6E00C944B09DC0139
:10108000FB012C9111963C91119712968C9112971D
:10109000482F4F7750E0982F991F9927991F139643
:1010A0006C911397862F880F892B90E0661F662717
:1010B000661F6183009739F52115310541055105FA
:1010C00011F482E029C082E89FEF9383828367E076
:1010D000220F331F441F551F6A95D1F783E0808389
:1010E00009C0220F331F441F551F8281938101972E
:1010F00093838283203080E0380780E0480780E4D3
:10110000580778F320C08F3F910579F421153105F8
:101110004105510519F484E08083089544FF03C01C
:1011200081E0808310C010820EC08F57904093835F
:10113000828383E0808387E0220F331F441F551F83
:101140008A95D1F750642483358346835783089565
:10115000FC01DB019081923008F449C08C9182300F
:1011600008F445C0943051F461818430B1F5119692
:101170002C91119730E0261B310941C0843021F0B9
:10118000923041F48230B1F111968C9111978823FD
:10119000A1F12DC06181823001F111968C911197DE
:1011A0006817D9F42281338112968D919C911397FF
:1011B0008217930794F028173907BCF024813581F2
:1011C0004681578114968D919D910D90BC91A02DD3
:1011D00082179307A407B50718F4662341F00DC0E2
:1011E000281739074A075B0728F4662331F021E006
:1011F00030E005C020E030E002C02FEF3FEFC90132
:101200000895A1E21A2EAA1BBB1BFD010DC0AA1F47
:10121000BB1FEE1FFF1FA217B307E407F50720F05F
:10122000A21BB30BE40BF50B661F771F881F991FDA
:101230001A9469F760957095809590959B01AC0123
:10124000BD01CF0108952F923F924F925F926F920E
:101250007F928F929F92AF92BF92CF92DF92EF9246
:10126000FF920F931F93CF93DF93CDB7DEB7CA1BC7
:10127000DB0B0FB6F894DEBF0FBECDBF09942A88F2
:10128000398848885F846E847D848C849B84AA849A
:10129000B984C884DF80EE80FD800C811B81AA8127
:1012A000B981CE0FD11D0FB6F894DEBF0FBECDBFF2
:1012B000ED010895FB01DC0102C001900D92415047
:1012C0005040D8F70895FC0101900020E9F780957F
:1012D00090958E0F9F1F0895FB019F01E894423067
:1012E000C4F04532B4F44A3029F497FB1EF49095CB
:1012F00081959F4F642F77270E949D09805D8A33D7
:101300000CF0895D8193CB010097A1F716F45DE2A3
:1013100051931082C9010C948D09DC01FC01672FE7
:1013200071917723E1F7329704C07C916D937083BC
:101330006291AE17BF07C8F30895AA1BBB1B51E10A
:1013400007C0AA1FBB1FA617B70710F0A61BB70B35
:10135000881F991F5A95A9F780959095BC01CD01DA
:061360000895F894FFCF90
:0C136600017320000000000000000000E7
:00000001FF
