:100000000C9434000C9476060C9451000C9451001E
:100010000C9451000C9469050C9451000C945606F4
:100020000C9451000C9466060C9451000C94FA0543
:100030000C9451000C9451000C94C3050C94510085
:100040000C9451000C9451000C9490050C945100A8
:100050000C9451000C9451000C9451000C945100DC
:100060000C9451000C94510011241FBECFEFD8E026
:10007000DEBFCDBF11E0A0E0B1E0ECE4F4E102C0EE
:1000800005900D92A23CB107D9F712E0A2ECB1E0C5
:1000900001C01D92A737B107E1F70E944C020C94F2
:1000A000240A0C94850681E060E070E040E050E0B6
:1000B00021E00E94F4008EE80E942B0180E60E945D
:1000C0002B018FE39CE90197F1F700C00000089530
:1000D0008F929F92AF92BF92CF92DF92EF92FF9258
:1000E0000F931F93DF93CF93CDB7DEB72E970FB645
:1000F000F894DEBF0FBECDBFFA82E9821C830B836A
:100100003E832D8318861F829A8789877C876B8719
:100110005E874D8700E010E06E010894C11CD11C81
:100120003AE0A32EB12C26EF822E2FEF922E05C09F
:100130000330110511F404E010E0F801EE0FFF1F89
:10014000EC0DFD1D20813181C901B5010E94E4063D
:10015000689D7001699DF00C789DF00C112484E07D
:10016000660F771F8A95E1F7E60EF71EE20EF31E83
:10017000F182E0825D98802F80580E942B018E2DA5
:100180000E942B015D9A0F5F1F4F0730110584F20B
:100190002E960FB6F894DEBF0FBECDBFCF91DF9184
:1001A0001F910F91FF90EF90DF90CF90BF90AF9095
:1001B0009F908F900895CF93DF93C0E0D0E005C06B
:1001C000C330D10511F4C4E0D0E08C2F0E942B0184
:1001D00080E00E942B012196C730D1058CF380E08E
:1001E00091E0DF91CF910895203F29F42398249A3C
:1001F0005598259804C0239A2498259A559A411514
:10020000510511F050EC01C050E46295660F607E1C
:10021000203F11F040E101C040E090E081FF02C0CA
:1002200038E001C030E081709070880F991F880F0E
:10023000991F862B922F9270892B922F9170892B68
:10024000852B842B832B8CBD81E022FF80E08DBD2C
:1002500008951CBC08958EBD0DB407FEFDCF8EB56C
:1002600008958EBD8EB508951F9382E090E00E94A0
:1002700037091091C1018117B9F483E090E00E9421
:1002800037099091D101891779F484E090E00E94B8
:10029000370990E0909375028093740285E090E0B6
:1002A0000E9437098093760286E090E00E94370929
:1002B0008117B9F487E090E00E9437099091D1014D
:1002C000891779F488E090E00E94370990E09093D4
:1002D00075028093740289E090E00E943709809350
:1002E00076028EE090E00E9437098117B9F48FE022
:1002F00090E00E9437099091D101891779F480E14B
:1003000090E00E94370990E0909375028093740208
:1003100081E190E00E943709809376028AE090E0C4
:100320000E9437098117B9F48BE090E00E943709E9
:100330009091D101891779F48CE090E00E943709FF
:1003400090E090937502809374028DE090E00E949B
:100350003709809376021F910895909375028093D8
:10036000740208958093760208959C01FB014081F8
:10037000842F8E5F8083D901A80FB11D8C9180538B
:1003800011969C911197992379F09A3369F04D5FFA
:100390004083880F982F990F990F980F240F311DC4
:1003A000F90180818053890F08958091C0018823CD
:1003B00051F5189928C08FE798E3A1E0815090404B
:1003C000A040E1F700C00000189925C08091C0014D
:1003D000882309F581E08093C0011092C801209123
:1003E000740230917502809155029091560228173F
:1003F000390789F0809155029091560290937502C9
:100400008093740208958091C001882321F0189B85
:1004100002C01092C0010895389A92E897BD88BD35
:1004200084B5826084BD85B5826085BD83E080939C
:100430006E0082E080936900E89A0895E8E6F0E0B3
:10044000808184608083EDE6F0E08081806180833C
:100450000895289AE0E8F0E0808180648083E1E8F4
:10046000F0E080818C608083EFE6F0E08081826044
:10047000808383E294EF90938900809388000895AD
:100480003A9A1092B2001092B00081E08093B300CB
:1004900083E08093700008952F923F925F926F9255
:1004A0007F928F929F92AF92BF92CF92DF92EF9204
:1004B000FF920F931F93DF93CF93CDB7DEB7609773
:1004C0000FB6F894DEBF0FBECDBF1982389A0E94D6
:1004D000400281E490E00E940C020E941E020E94F1
:1004E000290289E190E00E948F06789480E090E0F4
:1004F0000E943709882319F08093760202C0109277
:10050000760281E090E00E94370990E0009729F0A0
:10051000909375028093740204C010927502109239
:100520007402AA24BB242FE0C22E21E0D22E91E037
:10053000892E91E0992E88E1282E81E0382E0E94A4
:10054000D5018091BF01882309F064C21092C801CF
:1005500081E08093BF018E010E5F1F4FC80167E5E8
:1005600072E00E942D0719827E010894E11CF11CA3
:1005700043C2800F911FDC018C918C3409F4DDC0E3
:100580008D3488F4833411F1843438F48F3309F4D2
:1005900055C1823409F02DC24AC08434B1F1863489
:1005A00009F027C228C1833509F4F5C0843538F431
:1005B0008F3409F47FC0823509F01BC2D5C087355E
:1005C00009F4A4C0883509F014C2FDC0C801B70100
:1005D0000E94B501B82EC801B7010E94B501A82E2E
:1005E000C801B7010E94B50199819F5F9983FE01FF
:1005F000E90FF11D9381992309F0FBC1B092C1016C
:10060000A092D1018093D201F4C1C801B7010E9428
:10061000B50190E09093750280937402809174020A
:100620009091750290935602809355023FC0C80185
:10063000B7010E94B5018093760280E090E00E94AD
:10064000370990917602891B59F196E48902C0011D
:10065000112421E02093C70127E02093B100181650
:10066000190624F42AE02093B30006C02FE2209359
:10067000B300909581959F4F20E030E008C0EFE9EE
:10068000FFE03197F1F700C000002F5F3F4F2817C0
:100690003907A8F381E08093C7011092B100429816
:1006A0006091760280E090E00E943F0989818F5F2F
:1006B00089839FC18B81863441F48FEF9FEF9093A4
:1006C0007502809374022E5F09C08E3441F489E173
:1006D00090E090937502809374022F5F298380913C
:1006E00074029091750200D000D0ADB7BEB71296DB
:1006F0009C928E92119714969C938E9313970E94BE
:10070000C5060F900F900F900F9073C182E090E09C
:100710006B2D0E943F0983E090E06A2D0E943F0903
:10072000609174027091750284E090E00E943F092C
:100730006091760285E090E0B7CF86E090E06B2D87
:100740000E943F0987E090E06A2D0E943F09609176
:1007500074027091750288E090E00E943F096091F8
:10076000760289E090E0A0CF8EE090E06B2D0E94B1
:100770003F098FE090E06A2D0E943F09609174026A
:100780007091750280E190E00E943F0960917602CD
:1007900081E190E089CF8AE090E06B2D0E943F09D3
:1007A0008BE090E06A2D0E943F0920917402309105
:1007B00075028CE090E0622F0E943F096091760202
:1007C0008DE090E071CF209174023091750280919C
:1007D000760200D000D000D0EDB7FEB73196ADB7AD
:1007E000BEB71296DC92CE9211973383228399275B
:1007F00087FD909516C0209153023091540280914C
:1008000072029091730200D000D000D0EDB7FEB715
:100810003196ADB7BEB712963C922E9211973383A4
:100820002283958384830E94C506EDB7FEB7369672
:100830000FB6F894FEBF0FBEEDBFDBC082E090E0C4
:100840000E943709582E83E090E00E943709682EF5
:1008500084E090E00E943709782E85E090E00E94C5
:1008600037092DB73EB72A5030400FB6F8943EBF37
:100870000FBE2DBFEDB7FEB7319622E231E0ADB726
:10088000BEB712963C932E931197528213826482C4
:10089000158276821782808711860E94C5068DB7E1
:1008A0009EB70A960FB6F8949EBF0FBE8DBF86E026
:1008B00090E00E943709582E87E090E00E943709A7
:1008C000682E88E090E00E943709782E89E090E059
:1008D0000E943709ADB7BEB71A970FB6F894BEBFDE
:1008E0000FBEADBFEDB7FEB7319626E431E01296EC
:1008F0003C932E93119752821382648215827682E2
:100900001782808711860E94C5068DB79EB70A960A
:100910000FB6F8949EBF0FBE8DBF8EE090E00E9490
:100920003709582E8FE090E00E943709682E80E149
:1009300090E00E943709782E81E190E00E9437090B
:10094000ADB7BEB71A970FB6F894BEBF0FBEADBF16
:10095000EDB7FEB731962BE631E012963C932E931D
:100960001197528213826482158276821782808761
:1009700011860E94C5068DB79EB70A960FB6F894E9
:100980009EBF0FBE8DBF8AE090E00E943709582EAF
:100990008BE090E00E943709682E8CE090E00E9486
:1009A0003709782E8DE090E00E943709ADB7BEB7C9
:1009B0001A970FB6F894BEBF0FBEADBFEDB7FEB726
:1009C000319621E931E012963C932E931197528291
:1009D00013826482158276821782808711860E9434
:1009E000C5068DB79EB70A960FB6F8949EBF0FBE88
:1009F0008DBF89818F5F89832981F8010190002053
:100A0000E9F73197E01BF10B822F90E08E179F07DB
:100A100008F4AFCD8091D2018C33D8F11092D2017D
:100A20008091D1018F5F8093D1018C3358F0109267
:100A3000D1018091C1018F5F8093C101873110F096
:100A40001092C101ADB7BEB718970FB6F894BEBFEC
:100A50000FBEADBFEDB7FEB7319686EB91E01296B3
:100A60009C938E9311978091C10182831382809110
:100A7000D10184831582178216820E94C506EDB7C4
:100A8000FEB738960FB6F894FEBF0FBEEDBF0E94BA
:100A900034018091C801803108F451CD8091C801A2
:100AA000823108F04CCD8091740290917502181635
:100AB000190644F480917402909175029093560245
:100AC000809355028FEF9FEF90937502809374028D
:100AD00036CD1F920F920FB60F9211248F939F93D2
:100AE000AF93BF934C9B13C08091C9019091CA01F1
:100AF000A091CB01B091CC010196A11DB11D8093B5
:100B0000C9019093CA01A093CB01B093CC01BF91CE
:100B1000AF919F918F910F900FBE0F901F901895DE
:100B20001F920F920FB60F9211248F93AF93BF9322
:100B3000EF93FF938091C00087FFFCCF8091C600A8
:100B4000E0E00EC08A30F1F0AE2FB0E0A95ABD4F00
:100B50008C93EF5F8091C00087FFFCCF8091C6002F
:100B60008B3381F7F0E0E95AFD4F10821092BF01FC
:100B7000FF91EF91BF91AF918F910F900FBE0F90AA
:100B80001F901895FFCF1F920F920FB60F9211244E
:100B90002F933F938F939F938091C601813009F5E6
:100BA0002091C4013091C501809174029091750229
:100BB0002817390768F0409A85E38A95F1F7000015
:100BC00040981092C5011092C4011092C60109C04C
:100BD0008091C4019091C50101969093C5018093C5
:100BE000C4019F918F913F912F910F900FBE0F9055
:100BF0001F9018951F920F920FB60F9211242F93EA
:100C00003F934F935F936F937F938F939F93AF9394
:100C1000BF93EF93FF936091C9017091CA018091D6
:100C2000CB019091CC0128EE33E040E050E00E94EF
:100C3000F70630935402209353028091C90190919A
:100C4000CA01A091CB01B091CC0120915302309107
:100C50005402821B930B9093730280937202109242
:100C6000C9011092CA011092CB011092CC0180915F
:100C7000D2018F5F8093D2018091C001882329F433
:100C80008091C8018F5F8093C801FF91EF91BF9160
:100C9000AF919F918F917F916F915F914F913F9114
:100CA0002F910F900FBE0F901F9018951F920F92CB
:100CB0000FB60F9211248F938091C7018111429832
:100CC0008F910F900FBE0F901F9018951F920F924B
:100CD0000FB60F9211248F938091C7018111429A10
:100CE0008F910F900FBE0F901F9018951F920F922B
:100CF0000FB60F9211248F9381E08093C6018F91DC
:100D00000F900FBE0F901F9018951F920F920FB665
:100D10000F9211240F900FBE0F901F9018952AB1BB
:100D200023602AB99093C5008093C40088E980931A
:100D3000C10086E08093C20008959091C00095FFA5
:100D4000FCCF8093C600089580E00895EF92FF9253
:100D50000F931F93CF93DF937B01082F192FC0E0D0
:100D6000D0E006C0F80181918F010E949D06219676
:100D7000CE15DF05BCF38BE30E949D06DF91CF917A
:100D80001F910F91FF90EF900895EF92FF920F93B4
:100D90001F93DF93CF93CDB7DEB7FE0139966191F4
:100DA000719103ED11E0C801AF010E9434077C018D
:100DB000C801B7010E94A606C701CF91DF911F911C
:100DC0000F91FF90EF90089597FB092E07260AD008
:100DD00077FD04D02ED006D000201AF470956195CE
:100DE0007F4F0895F6F7909581959F4F0895A1E262
:100DF0001A2EAA1BBB1BFD010DC0AA1FBB1FEE1F95
:100E0000FF1FA217B307E407F50720F0A21BB30BDF
:100E1000E40BF50B661F771F881F991F1A9469F75B
:100E200060957095809590959B01AC01BD01CF01B7
:100E30000895AA1BBB1B51E107C0AA1FBB1FA61721
:100E4000B70710F0A61BB70B881F991F5A95A9F773
:100E500080959095BC01CD010895FB01DC010190C6
:100E60000D920020E1F70895AEE0B0E0EAE3F7E08C
:100E70000C94FB098C0186E08C831A8309838FEF25
:100E80009FE79E838D83CE0101960E945007EF81DC
:100E9000F885E00FF11F10822E96E4E00C94170AFB
:100EA000ACE0B0E0E6E5F7E00C94ED096C011B0165
:100EB0008A01FC0117821682838181FFD1C12E0134
:100EC0000894411C511CF6019381F10193FD859119
:100ED00093FF81911F01882309F4BEC1853239F443
:100EE00093FD859193FF81911F01853229F490E054
:100EF000B6010E946309E7CFEE24FF2420E02032F0
:100F0000B0F48B3269F08C3228F4803251F08332A5
:100F100071F40BC08D3239F0803349F421602CC05C
:100F20002260246029C0286027C0206125C027FDD9
:100F30002CC0382F30533A3098F426FF08C08E2D3D
:100F4000880FE82EEE0CEE0CE80EE30E15C08F2D88
:100F5000880FF82EFF0CFF0CF80EF30E20620CC069
:100F60008E3221F426FD78C1206406C08C3611F43F
:100F7000206802C0883649F4F10193FD859193FF02
:100F800081911F01882309F0BACF982F955493308F
:100F900018F09052933028F40C5F1F4FFFE3F98351
:100FA0000DC0833631F0833771F0833509F060C0AE
:100FB00022C0F801808189830E5F1F4F420171E0DA
:100FC000A72EB12C16C062E0662E712C600E711E29
:100FD000F8018080918026FF03C06E2D70E002C072
:100FE0006FEF7FEFC4012C870E9458095C018301D9
:100FF0002C852F7717C052E0652E712C600E711E64
:10100000F8018080918026FF03C06E2D70E002C041
:101010006FEF7FEFC4012C870E944D095C012C8586
:101020002068830123FD20C008C080E290E0B60163
:101030002C870E946309FA942C858F2D90E0A816C6
:10104000B90698F311C0F40127FD859127FF81911E
:101050004F0190E0B6012C870E9463092C85F110A6
:10106000FA940894A108B108A114B10461F7F1C081
:10107000843611F0893649F527FF08C0F8016081F0
:101080007181828193810C5F1F4F09C0F8016081DB
:101090007181882777FD8095982F0E5F1F4F4FE64F
:1010A000B42EB22297FF09C09095809570956195F6
:1010B0007F4F8F4F9F4FF0E8BF2AA2012AE030E018
:1010C0000E948F09782E741845C0853731F43FEEA1
:1010D000B32EB2222AE030E025C099EFB92EB22219
:1010E0008F36C1F0803720F4883509F0B5C00DC0C7
:1010F000803721F0883709F0AFC002C020E1B22A62
:10110000B4FE0BC084E0B82A08C0B4FE09C0E6E013
:10111000BE2A06C028E030E005C020E130E002C071
:1011200020E132E0B7FE08C0F80160817181828160
:1011300093810C5F1F4F07C0F8016081718180E0CF
:1011400090E00E5F1F4FA2010E948F09782E741845
:10115000FFE7BF22B6FE0BC02EEFB2227E1438F49A
:10116000B4FE07C0B2FC05C08FEEB82202C0A72CA7
:1011700001C0AE2C8B2D90E0B4FE0DC0FE01E70D3A
:10118000F11D2081203319F4E9EEBE2209C0A39499
:10119000B2FE06C004C086789070009709F0A39450
:1011A0008B2C9924B3FC14C0B0FE0FC0AF1428F4EC
:1011B000E72CEF0CEA18AF2C08C0E72C06C080E241
:1011C00090E0B6010E946309A394AF14C0F304C079
:1011D000AF1410F4FA1801C0FF2484FE0FC080E39E
:1011E00090E0B6010E94630982FE1FC081FE03C029
:1011F00088E590E010C088E790E00DC0C4018678D3
:101200009070009791F081FC02C080E201C08BE2F7
:10121000B7FC8DE290E0B6010E94630906C080E34E
:1012200090E0B6010E946309EA947E14C0F37A94B8
:10123000F201E70DF11D808190E0B6010E94630983
:101240007720A9F706C080E290E0B6010E9463090A
:10125000FA94FF20C1F737CEF6012681378102C00C
:101260002FEF3FEFC9012C96E2E10C94090AF9999E
:10127000FECF92BD81BDF89A992780B50895262F9B
:10128000F999FECF1FBA92BD81BD20BD0FB6F8946B
:10129000FA9AF99A0FBE01960895FC0105906150E3
:1012A00070400110D8F7809590958E0F9F1F08957C
:1012B000FC016150704001900110D8F78095909525
:1012C0008E0F9F1F08950F931F93CF93DF938C0171
:1012D000EB018B8181FF1BC082FF0DC02E813F81FE
:1012E0008C819D812817390764F4E881F981019385
:1012F000F983E88306C0E885F985802F0995009772
:1013000031F48E819F8101969F838E8302C00FEFFF
:101310001FEFC801DF91CF911F910F910895FA013E
:10132000AA27283051F1203181F1E8946F936E7F24
:101330006E5F7F4F8F4F9F4FAF4FB1E03ED0B4E015
:101340003CD0670F781F891F9A1FA11D680F791F56
:101350008A1F911DA11D6A0F711D811D911DA11D67
:1013600020D009F468943F912AE0269F1124301977
:10137000305D3193DEF6CF010895462F4770405D12
:101380004193B3E00FD0C9F7F6CF462F4F70405DC1
:101390004A3318F0495D31FD4052419302D0A9F71C
:1013A000EACFB4E0A6959795879577956795BA9516
:1013B000C9F700976105710508959B01AC010A2EDC
:1013C00006945795479537952795BA95C9F7620FB3
:1013D000731F841F951FA01D08952F923F924F9257
:1013E0005F926F927F928F929F92AF92BF92CF92B5
:1013F000DF92EF92FF920F931F93CF93DF93CDB7BE
:10140000DEB7CA1BDB0B0FB6F894DEBF0FBECDBF35
:1014100009942A88398848885F846E847D848C8406
:101420009B84AA84B984C884DF80EE80FD800C810F
:101430001B81AA81B981CE0FD11D0FB6F894DEBFF2
:0C1440000FBECDBFED010895F894FFCF62
:10144C000044696D2073657420746F202564005806
:10145C00443A25643A256400463A25642E253034F6
:10146C00640057616B652073657420746F2025646C
:10147C003A256420776974682064696D2076616C04
:10148C007565202564004C65617665207365742054
:10149C00746F2025643A2564207769746820646928
:1014AC006D2076616C7565202564005265747572CB
:1014BC006E2073657420746F2025643A2564207740
:1014CC006974682064696D2076616C75652025648B
:1014DC0000536C6565702073657420746F202564EF
:1014EC003A256420776974682064696D2076616C94
:1014FC0075652025640025643A25643A256400014D
:02150C000108D4
:00000001FF
